{"abi":[{"type":"constructor","inputs":[],"stateMutability":"nonpayable"},{"type":"function","name":"ADMIN_ROLE","inputs":[],"outputs":[{"name":"","type":"bytes32","internalType":"bytes32"}],"stateMutability":"view"},{"type":"function","name":"DEFAULT_ADMIN_ROLE","inputs":[],"outputs":[{"name":"","type":"bytes32","internalType":"bytes32"}],"stateMutability":"view"},{"type":"function","name":"MAX_BET_AMOUNT","inputs":[],"outputs":[{"name":"","type":"uint256","internalType":"uint256"}],"stateMutability":"view"},{"type":"function","name":"MIN_BET_AMOUNT","inputs":[],"outputs":[{"name":"","type":"uint256","internalType":"uint256"}],"stateMutability":"view"},{"type":"function","name":"OPERATOR_ROLE","inputs":[],"outputs":[{"name":"","type":"bytes32","internalType":"bytes32"}],"stateMutability":"view"},{"type":"function","name":"bets","inputs":[{"name":"","type":"uint256","internalType":"uint256"},{"name":"","type":"address","internalType":"address"}],"outputs":[{"name":"prediction","type":"bool","internalType":"bool"},{"name":"amount","type":"uint256","internalType":"uint256"},{"name":"claimed","type":"bool","internalType":"bool"},{"name":"payout","type":"uint256","internalType":"uint256"}],"stateMutability":"view"},{"type":"function","name":"betterMarkets","inputs":[{"name":"","type":"address","internalType":"address"},{"name":"","type":"uint256","internalType":"uint256"}],"outputs":[{"name":"","type":"uint256","internalType":"uint256"}],"stateMutability":"view"},{"type":"function","name":"claimPayout","inputs":[{"name":"marketId","type":"uint256","internalType":"uint256"}],"outputs":[],"stateMutability":"nonpayable"},{"type":"function","name":"createMarket","inputs":[{"name":"raffleId","type":"uint256","internalType":"uint256"},{"name":"question","type":"string","internalType":"string"},{"name":"tokenAddress","type":"address","internalType":"address"}],"outputs":[],"stateMutability":"nonpayable"},{"type":"function","name":"getBet","inputs":[{"name":"marketId","type":"uint256","internalType":"uint256"},{"name":"better","type":"address","internalType":"address"}],"outputs":[{"name":"","type":"tuple","internalType":"struct InfoFiMarket.BetInfo","components":[{"name":"prediction","type":"bool","internalType":"bool"},{"name":"amount","type":"uint256","internalType":"uint256"},{"name":"claimed","type":"bool","internalType":"bool"},{"name":"payout","type":"uint256","internalType":"uint256"}]}],"stateMutability":"view"},{"type":"function","name":"getBetterMarkets","inputs":[{"name":"better","type":"address","internalType":"address"}],"outputs":[{"name":"","type":"uint256[]","internalType":"uint256[]"}],"stateMutability":"view"},{"type":"function","name":"getMarket","inputs":[{"name":"marketId","type":"uint256","internalType":"uint256"}],"outputs":[{"name":"","type":"tuple","internalType":"struct InfoFiMarket.MarketInfo","components":[{"name":"id","type":"uint256","internalType":"uint256"},{"name":"raffleId","type":"uint256","internalType":"uint256"},{"name":"question","type":"string","internalType":"string"},{"name":"createdAt","type":"uint256","internalType":"uint256"},{"name":"resolvedAt","type":"uint256","internalType":"uint256"},{"name":"totalYesPool","type":"uint256","internalType":"uint256"},{"name":"totalNoPool","type":"uint256","internalType":"uint256"},{"name":"totalPool","type":"uint256","internalType":"uint256"},{"name":"resolved","type":"bool","internalType":"bool"},{"name":"outcome","type":"bool","internalType":"bool"},{"name":"tokenAddress","type":"address","internalType":"address"}]}],"stateMutability":"view"},{"type":"function","name":"getRoleAdmin","inputs":[{"name":"role","type":"bytes32","internalType":"bytes32"}],"outputs":[{"name":"","type":"bytes32","internalType":"bytes32"}],"stateMutability":"view"},{"type":"function","name":"grantRole","inputs":[{"name":"role","type":"bytes32","internalType":"bytes32"},{"name":"account","type":"address","internalType":"address"}],"outputs":[],"stateMutability":"nonpayable"},{"type":"function","name":"hasRole","inputs":[{"name":"role","type":"bytes32","internalType":"bytes32"},{"name":"account","type":"address","internalType":"address"}],"outputs":[{"name":"","type":"bool","internalType":"bool"}],"stateMutability":"view"},{"type":"function","name":"markets","inputs":[{"name":"","type":"uint256","internalType":"uint256"}],"outputs":[{"name":"id","type":"uint256","internalType":"uint256"},{"name":"raffleId","type":"uint256","internalType":"uint256"},{"name":"question","type":"string","internalType":"string"},{"name":"createdAt","type":"uint256","internalType":"uint256"},{"name":"resolvedAt","type":"uint256","internalType":"uint256"},{"name":"totalYesPool","type":"uint256","internalType":"uint256"},{"name":"totalNoPool","type":"uint256","internalType":"uint256"},{"name":"totalPool","type":"uint256","internalType":"uint256"},{"name":"resolved","type":"bool","internalType":"bool"},{"name":"outcome","type":"bool","internalType":"bool"},{"name":"tokenAddress","type":"address","internalType":"address"}],"stateMutability":"view"},{"type":"function","name":"nextMarketId","inputs":[],"outputs":[{"name":"","type":"uint256","internalType":"uint256"}],"stateMutability":"view"},{"type":"function","name":"pause","inputs":[],"outputs":[],"stateMutability":"nonpayable"},{"type":"function","name":"paused","inputs":[],"outputs":[{"name":"","type":"bool","internalType":"bool"}],"stateMutability":"view"},{"type":"function","name":"placeBet","inputs":[{"name":"marketId","type":"uint256","internalType":"uint256"},{"name":"prediction","type":"bool","internalType":"bool"},{"name":"amount","type":"uint256","internalType":"uint256"}],"outputs":[],"stateMutability":"nonpayable"},{"type":"function","name":"renounceRole","inputs":[{"name":"role","type":"bytes32","internalType":"bytes32"},{"name":"callerConfirmation","type":"address","internalType":"address"}],"outputs":[],"stateMutability":"nonpayable"},{"type":"function","name":"resolveMarket","inputs":[{"name":"marketId","type":"uint256","internalType":"uint256"},{"name":"outcome","type":"bool","internalType":"bool"}],"outputs":[],"stateMutability":"nonpayable"},{"type":"function","name":"revokeRole","inputs":[{"name":"role","type":"bytes32","internalType":"bytes32"},{"name":"account","type":"address","internalType":"address"}],"outputs":[],"stateMutability":"nonpayable"},{"type":"function","name":"supportsInterface","inputs":[{"name":"interfaceId","type":"bytes4","internalType":"bytes4"}],"outputs":[{"name":"","type":"bool","internalType":"bool"}],"stateMutability":"view"},{"type":"function","name":"unpause","inputs":[],"outputs":[],"stateMutability":"nonpayable"},{"type":"event","name":"BetPlaced","inputs":[{"name":"better","type":"address","indexed":true,"internalType":"address"},{"name":"marketId","type":"uint256","indexed":true,"internalType":"uint256"},{"name":"prediction","type":"bool","indexed":false,"internalType":"bool"},{"name":"amount","type":"uint256","indexed":false,"internalType":"uint256"}],"anonymous":false},{"type":"event","name":"MarketCreated","inputs":[{"name":"marketId","type":"uint256","indexed":true,"internalType":"uint256"},{"name":"raffleId","type":"uint256","indexed":false,"internalType":"uint256"},{"name":"question","type":"string","indexed":false,"internalType":"string"}],"anonymous":false},{"type":"event","name":"MarketResolved","inputs":[{"name":"marketId","type":"uint256","indexed":true,"internalType":"uint256"},{"name":"outcome","type":"bool","indexed":false,"internalType":"bool"},{"name":"totalYesPool","type":"uint256","indexed":false,"internalType":"uint256"},{"name":"totalNoPool","type":"uint256","indexed":false,"internalType":"uint256"}],"anonymous":false},{"type":"event","name":"Paused","inputs":[{"name":"account","type":"address","indexed":false,"internalType":"address"}],"anonymous":false},{"type":"event","name":"PayoutClaimed","inputs":[{"name":"better","type":"address","indexed":true,"internalType":"address"},{"name":"amount","type":"uint256","indexed":false,"internalType":"uint256"}],"anonymous":false},{"type":"event","name":"RoleAdminChanged","inputs":[{"name":"role","type":"bytes32","indexed":true,"internalType":"bytes32"},{"name":"previousAdminRole","type":"bytes32","indexed":true,"internalType":"bytes32"},{"name":"newAdminRole","type":"bytes32","indexed":true,"internalType":"bytes32"}],"anonymous":false},{"type":"event","name":"RoleGranted","inputs":[{"name":"role","type":"bytes32","indexed":true,"internalType":"bytes32"},{"name":"account","type":"address","indexed":true,"internalType":"address"},{"name":"sender","type":"address","indexed":true,"internalType":"address"}],"anonymous":false},{"type":"event","name":"RoleRevoked","inputs":[{"name":"role","type":"bytes32","indexed":true,"internalType":"bytes32"},{"name":"account","type":"address","indexed":true,"internalType":"address"},{"name":"sender","type":"address","indexed":true,"internalType":"address"}],"anonymous":false},{"type":"event","name":"Unpaused","inputs":[{"name":"account","type":"address","indexed":false,"internalType":"address"}],"anonymous":false},{"type":"error","name":"AccessControlBadConfirmation","inputs":[]},{"type":"error","name":"AccessControlUnauthorizedAccount","inputs":[{"name":"account","type":"address","internalType":"address"},{"name":"neededRole","type":"bytes32","internalType":"bytes32"}]},{"type":"error","name":"EnforcedPause","inputs":[]},{"type":"error","name":"ExpectedPause","inputs":[]},{"type":"error","name":"ReentrancyGuardReentrantCall","inputs":[]}],"bytecode":{"object":"0x60806040523461003a57600180556100163361003f565b50610020336100bb565b5061002a33610153565b506040516118df90816101ec8239f35b600080fd5b6001600160a01b0381166000908152600080516020611b2b833981519152602052604090205460ff166100b5576001600160a01b03166000818152600080516020611b2b83398151915260205260408120805460ff19166001179055339190600080516020611acb8339815191528180a4600190565b50600090565b6001600160a01b0381166000908152600080516020611aeb833981519152602052604090205460ff166100b5576001600160a01b03166000818152600080516020611aeb83398151915260205260408120805460ff191660011790553391907fa49807205ce4d355092ef5a8a18f56e8913cf4a201fbe287825b095693c2177590600080516020611acb8339815191529080a4600190565b6001600160a01b0381166000908152600080516020611b0b833981519152602052604090205460ff166100b5576001600160a01b03166000818152600080516020611b0b83398151915260205260408120805460ff191660011790553391907f97667070c54ef182b0f5858b034beac1b6f3089aa2d3188bb1e8929f4fa9b92990600080516020611acb8339815191529080a460019056fe608080604052600436101561001357600080fd5b60003560e01c90816301ffc9a714611389575080631a38cac6146110ee578063248a9ca3146110b957806328ab70b514610fff5780632f2ff15d14610fbf578063309167f514610f9b57806336568abe14610f5557806338dae74e14610efc5780633f4ba83a14610e93578063406ef2ef14610e7557806357bde44614610db85780635c975abb14610d955780636475e3d314610d7357806375b238fc14610d385780638456cb5914610cde5780638a69614e146109c357806391d1485414610976578063a217fddf1461095a578063b1283e7714610894578063b4ab3a851461046e578063d547741f14610427578063e0950ddf1461036f578063eb44fdd3146101e4578063f5b541a6146101a95763f644b3bb1461013257600080fd5b346101a45760403660031901126101a4576080604061014f611401565b60043560005260056020528160002060009160018060a01b031682526020522060ff81541690600181015490600360ff6002830154169101549160405193151584526020840152151560408301526060820152f35b600080fd5b346101a45760003660031901126101a45760206040517f97667070c54ef182b0f5858b034beac1b6f3089aa2d3188bb1e8929f4fa9b9298152f35b346101a45760203660031901126101a45760006101406040516102068161147f565b828152826020820152606060408201528260608201528260808201528260a08201528260c08201528260e082015282610100820152826101208201520152600435600052600460205260406000206040516102608161147f565b815481526001820154916020820192835261027d600282016114da565b90604083019182526003810154916060840192835260048201546080850190815260058301549260a08601938452600681015460c08701908152600860078301549260e0890193845201549461010088019360ff8716151585526103296101208a019660ff8960081c16151588526101408b019860018060a01b039060101c1689526040519b8c9b60208d525160208d01525160408c01525161016060608c01526101808b019061157e565b975160808a01525160a08901525160c08801525160e087015251610100860152511515610120850152511515610140840152516001600160a01b03166101608301520390f35b346101a45760403660031901126101a4576080604061038c611401565b60006060835161039b8161149c565b8281528260208201528285820152015260043560005260056020528160002060009160018060a01b03168252602052206040516103d78161149c565b60ff8254161515918282526001810154602083019081526060600360ff60028501541693604086019415158552015493019283526040519384525160208401525115156040830152516060820152f35b346101a45760403660031901126101a45761046c600435610446611401565b9061046761046282600052600060205260016040600020015490565b611761565b611827565b005b346101a45760603660031901126101a45760243567ffffffffffffffff81116101a457366023820112156101a457806004013567ffffffffffffffff81116107c357604051916104c8601f8301601f1916602001846114b8565b81835236602483830101116101a4578160009260246020930183860137830101526044356001600160a01b03811691908290036101a4576105076116ef565b61050f611660565b8051156108405781156107ef576003549160001983146107d957600183016003556040519061053d8261147f565b838252602082016004358152604083019284845260608101428152608082016000815260a083016000815260c08401916000835260e08501936000855261010086019860008a52610120870197600089526101408801998a528c600052600460205260406000209751885551600188015560028701905180519067ffffffffffffffff82116107c3576105d08354611445565b601f811161077b575b50602090601f83116001146106dc57947fab6d88d6ca97686071b9943b9775a42168bd3d169b3b5ee0ea010f9d86af72f89d9b999461068c9994846106cc9f9d9a956106759a9560089a6000926106d1575b50508160011b916000199060031b1c19161790555b5160038601555160048501555160058401555160068301555160078201550194511515859060ff801983541691151516179055565b51835461ff00191690151560081b61ff0016178355565b51815462010000600160b01b03191660109190911b62010000600160b01b031617905560408051600435815260208101829052928392909183019061157e565b0390a2005b01519050388061062b565b90601f1983169184600052816000209260005b8181106107635750947fab6d88d6ca97686071b9943b9775a42168bd3d169b3b5ee0ea010f9d86af72f89f9d9b96916106cc9f9d9a956106759a9560089a9560019361068c9f9a841161074a575b505050811b019055610640565b015160001960f88460031b161c1916905538808061073d565b929360206001819287860151815501950193016106ef565b836000526020600020601f840160051c810191602085106107b9575b601f0160051c01905b8181106107ad57506105d9565b600081556001016107a0565b9091508190610797565b634e487b7160e01b600052604160045260246000fd5b634e487b7160e01b600052601160045260246000fd5b60405162461bcd60e51b815260206004820152602360248201527f496e666f46694d61726b65743a20696e76616c696420746f6b656e206164647260448201526265737360e81b6064820152608490fd5b60405162461bcd60e51b815260206004820152602660248201527f496e666f46694d61726b65743a207175657374696f6e2063616e6e6f7420626560448201526520656d70747960d01b6064820152608490fd5b346101a45760203660031901126101a4576004356000526004602052604060002080546001820154916108c9600282016114da565b6003820154916004810154600582015460068301549161090d6008600786015495015495604051998a998a5260208a015261016060408a015261016089019061157e565b6060880196909652608087015260a086015260c085015260e084015260ff8181161515610100850152600882901c16151561012084015260101c6001600160a01b03166101408301520390f35b346101a45760003660031901126101a457602060405160008152f35b346101a45760403660031901126101a45761098f611401565b600435600052600060205260406000209060018060a01b0316600052602052602060ff604060002054166040519015158152f35b346101a45760203660031901126101a4576004356109df61163e565b6109e7611660565b600090815260046020908152604080832060058352818420338552909252909120600882018054929060ff841615610c8f5760018301548015610c4a57600284019081549560ff8716610bf95760ff808754169160081c169081151590151503610ba95715610b9c5760076005850154945b0154808202918204036107d9578315610b865760039560009560209560019304978891015560ff191617905560018060a01b03905460101c1660446040518094819363a9059cbb60e01b83523360048401528760248401525af1908115610b7a57600091610b4b575b5015610afa576040519081527fec68461f5d4cc45c89e914cb8826a966c73dd35e5f97815ece0a01ffa4a025a660203392a260018055005b60405162461bcd60e51b8152602060048201526024808201527f496e666f46694d61726b65743a207061796f7574207472616e736665722066616044820152631a5b195960e21b6064820152608490fd5b610b6d915060203d602011610b73575b610b6581836114b8565b810190611619565b82610ac2565b503d610b5b565b6040513d6000823e3d90fd5b634e487b7160e01b600052601260045260246000fd5b6007600685015494610a59565b60405162461bcd60e51b815260206004820152602260248201527f496e666f46694d61726b65743a20696e636f727265637420707265646963746960448201526137b760f11b6064820152608490fd5b60405162461bcd60e51b8152602060048201526024808201527f496e666f46694d61726b65743a207061796f757420616c726561647920636c616044820152631a5b595960e21b6064820152608490fd5b60405162461bcd60e51b815260206004820152601b60248201527f496e666f46694d61726b65743a206e6f2062657420706c6163656400000000006044820152606490fd5b60405162461bcd60e51b815260206004820152602160248201527f496e666f46694d61726b65743a206d61726b6574206e6f74207265736f6c76656044820152601960fa1b6064820152608490fd5b346101a45760003660031901126101a457610cf761167d565b610cff611660565b600160ff1960025416176002557f62e78cea01bee320cd4e420270b5ea74000d11b0c9f74754ebdbfc544b05a2586020604051338152a1005b346101a45760003660031901126101a45760206040517fa49807205ce4d355092ef5a8a18f56e8913cf4a201fbe287825b095693c217758152f35b346101a45760003660031901126101a457602060405166038d7ea4c680008152f35b346101a45760003660031901126101a457602060ff600254166040519015158152f35b346101a45760403660031901126101a4576004357ff1265d8d5565e10ef15b60baa6bfc2282850bafc2f18789bfb239e00fc00b7216060610df76113dc565b610dff6116ef565b610e07611660565b8360005260046020526040600020610e4f826008830160018154610e2e60ff8216156115bf565b61ff001990911661ffff199091161791151560081b61ff0016919091179055565b4260048201556006600582015491015490604051921515835260208301526040820152a2005b346101a45760003660031901126101a4576020600354604051908152f35b346101a45760003660031901126101a457610eac61167d565b60025460ff811615610eeb5760ff19166002557f5db9ee0a495bf2e6ff9c91a7834c1ba4fdd244a5e8aa4e537bd38aeae4b073aa6020604051338152a1005b638dfc202b60e01b60005260046000fd5b346101a45760403660031901126101a457610f156113eb565b6001600160a01b03166000908152600660205260409020805460243591908210156101a457602091610f4691611417565b90549060031b1c604051908152f35b346101a45760403660031901126101a457610f6e611401565b336001600160a01b03821603610f8a5761046c90600435611827565b63334bd91960e11b60005260046000fd5b346101a45760003660031901126101a4576020604051683635c9adc5dea000008152f35b346101a45760403660031901126101a45761046c600435610fde611401565b90610ffa61046282600052600060205260016040600020015490565b61179c565b346101a45760203660031901126101a4576001600160a01b036110206113eb565b16600052600660205260406000206040518060208354918281520190819360005260206000209060005b8181106110a357505050816110609103826114b8565b6040519182916020830190602084525180915260408301919060005b81811061108a575050500390f35b825184528594506020938401939092019160010161107c565b825484526020909301926001928301920161104a565b346101a45760203660031901126101a45760206110e6600435600052600060205260016040600020015490565b604051908152f35b346101a45760603660031901126101a45760043561110a6113dc565b60443561111561163e565b61111d611660565b8260005260046020526040600020600881015461113d60ff8216156115bf565b66038d7ea4c6800083101580611376575b15611332576040516323b872dd60e01b815233600482015230602482015260448101849052906020908290606490829060009060101c6001600160a01b03165af1908115610b7a57600091611313575b50156112c25760079083156112ac57600581016111bc848254611631565b90555b016111cb828254611631565b9055826000526005602052604060002060018060a01b0333166000526020526040600020600181019083825415611258575b611212919060ff801983541691151516179055565b61121d828254611631565b9055604051911515825260208201527fb2dea862933fda054de6f12d6e0b7affaff4ba9f6aa471c7532461410d6ba46d60403392a360018055005b50336000526006602052604060002090815490680100000000000000008210156107c357611290826112129460018995018155611417565b81549060031b9089821b91600019901b191617905591506111fd565b600681016112bb848254611631565b90556111bf565b60405162461bcd60e51b815260206004820152602360248201527f496e666f46694d61726b65743a20746f6b656e207472616e73666572206661696044820152621b195960ea1b6064820152608490fd5b61132c915060203d602011610b7357610b6581836114b8565b8561119e565b606460405162461bcd60e51b815260206004820152602060248201527f496e666f46694d61726b65743a20696e76616c69642062657420616d6f756e746044820152fd5b50683635c9adc5dea0000083111561114e565b346101a45760203660031901126101a4576004359063ffffffff60e01b82168092036101a457602091637965db0b60e01b81149081156113cb575b5015158152f35b6301ffc9a760e01b149050836113c4565b6024359081151582036101a457565b600435906001600160a01b03821682036101a457565b602435906001600160a01b03821682036101a457565b805482101561142f5760005260206000200190600090565b634e487b7160e01b600052603260045260246000fd5b90600182811c92168015611475575b602083101461145f57565b634e487b7160e01b600052602260045260246000fd5b91607f1691611454565b610160810190811067ffffffffffffffff8211176107c357604052565b6080810190811067ffffffffffffffff8211176107c357604052565b90601f8019910116810190811067ffffffffffffffff8211176107c357604052565b90604051918260008254926114ee84611445565b808452936001811690811561155c5750600114611515575b50611513925003836114b8565b565b90506000929192526020600020906000915b8183106115405750509060206115139282010138611506565b6020919350806001915483858901015201910190918492611527565b90506020925061151394915060ff191682840152151560051b82010138611506565b919082519283825260005b8481106115aa575050826000602080949584010152601f8019910116010190565b80602080928401015182828601015201611589565b156115c657565b60405162461bcd60e51b815260206004820152602560248201527f496e666f46694d61726b65743a206d61726b657420616c7265616479207265736044820152641bdb1d995960da1b6064820152608490fd5b908160209103126101a4575180151581036101a45790565b919082018092116107d957565b60026001541461164f576002600155565b633ee5aeb560e01b60005260046000fd5b60ff6002541661166c57565b63d93c066560e01b60005260046000fd5b3360009081527f7d7ffb7a348e1c6a02869081a26547b49160dd3df72d1d75a570eb9b698292ec602052604090205460ff16156116b657565b63e2517d3f60e01b600052336004527fa49807205ce4d355092ef5a8a18f56e8913cf4a201fbe287825b095693c2177560245260446000fd5b3360009081527fee57cd81e84075558e8fcc182a1f4393f91fc97f963a136e66b7f949a62f319f602052604090205460ff161561172857565b63e2517d3f60e01b600052336004527f97667070c54ef182b0f5858b034beac1b6f3089aa2d3188bb1e8929f4fa9b92960245260446000fd5b60008181526020818152604080832033845290915290205460ff16156117845750565b63e2517d3f60e01b6000523360045260245260446000fd5b6000818152602081815260408083206001600160a01b038616845290915290205460ff16611820576000818152602081815260408083206001600160a01b0395909516808452949091528120805460ff19166001179055339291907f2f8788117e7eff1d82e926ec794901d17c78024a50270940304540a733656f0d9080a4600190565b5050600090565b6000818152602081815260408083206001600160a01b038616845290915290205460ff1615611820576000818152602081815260408083206001600160a01b0395909516808452949091528120805460ff19169055339291907ff6391f5c32d9c69d2a47ea670b442974b53935d1edc7fd64eb21e047a839171b9080a460019056fea26469706673582212200e51133a472f5100931f361bd3d49d543d63db42bb6bf4d459d5b0ddd0e0a2d664736f6c634300081a00332f8788117e7eff1d82e926ec794901d17c78024a50270940304540a733656f0d7d7ffb7a348e1c6a02869081a26547b49160dd3df72d1d75a570eb9b698292ecee57cd81e84075558e8fcc182a1f4393f91fc97f963a136e66b7f949a62f319fad3228b676f7d3cd4284a5443f17f1962b36e491b30a40b2405849e597ba5fb5","linkReferences":{}},"methodIdentifiers":{"ADMIN_ROLE()":"75b238fc","DEFAULT_ADMIN_ROLE()":"a217fddf","MAX_BET_AMOUNT()":"309167f5","MIN_BET_AMOUNT()":"6475e3d3","OPERATOR_ROLE()":"f5b541a6","bets(uint256,address)":"f644b3bb","betterMarkets(address,uint256)":"38dae74e","claimPayout(uint256)":"8a69614e","createMarket(uint256,string,address)":"b4ab3a85","getBet(uint256,address)":"e0950ddf","getBetterMarkets(address)":"28ab70b5","getMarket(uint256)":"eb44fdd3","getRoleAdmin(bytes32)":"248a9ca3","grantRole(bytes32,address)":"2f2ff15d","hasRole(bytes32,address)":"91d14854","markets(uint256)":"b1283e77","nextMarketId()":"406ef2ef","pause()":"8456cb59","paused()":"5c975abb","placeBet(uint256,bool,uint256)":"1a38cac6","renounceRole(bytes32,address)":"36568abe","resolveMarket(uint256,bool)":"57bde446","revokeRole(bytes32,address)":"d547741f","supportsInterface(bytes4)":"01ffc9a7","unpause()":"3f4ba83a"},"id":41}