{"abi":[{"type":"constructor","inputs":[{"name":"vrfCoordinator","type":"address","internalType":"address"},{"name":"keyHash","type":"bytes32","internalType":"bytes32"},{"name":"subscriptionId","type":"uint256","internalType":"uint256"}],"stateMutability":"nonpayable"},{"type":"function","name":"ADMIN_ROLE","inputs":[],"outputs":[{"name":"","type":"bytes32","internalType":"bytes32"}],"stateMutability":"view"},{"type":"function","name":"DEFAULT_ADMIN_ROLE","inputs":[],"outputs":[{"name":"","type":"bytes32","internalType":"bytes32"}],"stateMutability":"view"},{"type":"function","name":"MAX_DURATION","inputs":[],"outputs":[{"name":"","type":"uint256","internalType":"uint256"}],"stateMutability":"view"},{"type":"function","name":"MAX_TICKET_PRICE","inputs":[],"outputs":[{"name":"","type":"uint256","internalType":"uint256"}],"stateMutability":"view"},{"type":"function","name":"MIN_DURATION","inputs":[],"outputs":[{"name":"","type":"uint256","internalType":"uint256"}],"stateMutability":"view"},{"type":"function","name":"OPERATOR_ROLE","inputs":[],"outputs":[{"name":"","type":"bytes32","internalType":"bytes32"}],"stateMutability":"view"},{"type":"function","name":"acceptOwnership","inputs":[],"outputs":[],"stateMutability":"nonpayable"},{"type":"function","name":"buyTickets","inputs":[{"name":"raffleId","type":"uint256","internalType":"uint256"},{"name":"ticketCount","type":"uint256","internalType":"uint256"}],"outputs":[],"stateMutability":"nonpayable"},{"type":"function","name":"callbackGasLimit","inputs":[],"outputs":[{"name":"","type":"uint32","internalType":"uint32"}],"stateMutability":"view"},{"type":"function","name":"cancelRaffle","inputs":[{"name":"raffleId","type":"uint256","internalType":"uint256"}],"outputs":[],"stateMutability":"nonpayable"},{"type":"function","name":"claimPrize","inputs":[{"name":"raffleId","type":"uint256","internalType":"uint256"}],"outputs":[],"stateMutability":"nonpayable"},{"type":"function","name":"createRaffle","inputs":[{"name":"name","type":"string","internalType":"string"},{"name":"description","type":"string","internalType":"string"},{"name":"duration","type":"uint256","internalType":"uint256"},{"name":"ticketPrice","type":"uint256","internalType":"uint256"},{"name":"winnerCount","type":"uint256","internalType":"uint256"},{"name":"tokenAddress","type":"address","internalType":"address"}],"outputs":[],"stateMutability":"nonpayable"},{"type":"function","name":"endRaffle","inputs":[{"name":"raffleId","type":"uint256","internalType":"uint256"}],"outputs":[],"stateMutability":"nonpayable"},{"type":"function","name":"getParticipants","inputs":[{"name":"raffleId","type":"uint256","internalType":"uint256"}],"outputs":[{"name":"","type":"address[]","internalType":"address[]"}],"stateMutability":"view"},{"type":"function","name":"getPlayerInfo","inputs":[{"name":"raffleId","type":"uint256","internalType":"uint256"},{"name":"player","type":"address","internalType":"address"}],"outputs":[{"name":"","type":"tuple","internalType":"struct Raffle.PlayerInfo","components":[{"name":"ticketCount","type":"uint256","internalType":"uint256"},{"name":"firstTicketId","type":"uint256","internalType":"uint256"},{"name":"lastTicketId","type":"uint256","internalType":"uint256"},{"name":"hasWon","type":"bool","internalType":"bool"},{"name":"hasClaimed","type":"bool","internalType":"bool"},{"name":"prizeAmount","type":"uint256","internalType":"uint256"}]}],"stateMutability":"view"},{"type":"function","name":"getRaffle","inputs":[{"name":"raffleId","type":"uint256","internalType":"uint256"}],"outputs":[{"name":"","type":"tuple","internalType":"struct Raffle.RaffleInfo","components":[{"name":"id","type":"uint256","internalType":"uint256"},{"name":"name","type":"string","internalType":"string"},{"name":"description","type":"string","internalType":"string"},{"name":"startTime","type":"uint256","internalType":"uint256"},{"name":"endTime","type":"uint256","internalType":"uint256"},{"name":"ticketPrice","type":"uint256","internalType":"uint256"},{"name":"totalPrize","type":"uint256","internalType":"uint256"},{"name":"totalTickets","type":"uint256","internalType":"uint256"},{"name":"winnerCount","type":"uint256","internalType":"uint256"},{"name":"status","type":"uint8","internalType":"enum Raffle.RaffleStatus"},{"name":"tokenAddress","type":"address","internalType":"address"},{"name":"vrfRequestId","type":"uint256","internalType":"uint256"},{"name":"winningTicket","type":"uint256","internalType":"uint256"},{"name":"prizeDistributed","type":"bool","internalType":"bool"}]}],"stateMutability":"view"},{"type":"function","name":"getRoleAdmin","inputs":[{"name":"role","type":"bytes32","internalType":"bytes32"}],"outputs":[{"name":"","type":"bytes32","internalType":"bytes32"}],"stateMutability":"view"},{"type":"function","name":"getWinners","inputs":[{"name":"raffleId","type":"uint256","internalType":"uint256"}],"outputs":[{"name":"","type":"address[]","internalType":"address[]"}],"stateMutability":"view"},{"type":"function","name":"grantRole","inputs":[{"name":"role","type":"bytes32","internalType":"bytes32"},{"name":"account","type":"address","internalType":"address"}],"outputs":[],"stateMutability":"nonpayable"},{"type":"function","name":"hasRole","inputs":[{"name":"role","type":"bytes32","internalType":"bytes32"},{"name":"account","type":"address","internalType":"address"}],"outputs":[{"name":"","type":"bool","internalType":"bool"}],"stateMutability":"view"},{"type":"function","name":"i_keyHash","inputs":[],"outputs":[{"name":"","type":"bytes32","internalType":"bytes32"}],"stateMutability":"view"},{"type":"function","name":"i_subscriptionId","inputs":[],"outputs":[{"name":"","type":"uint256","internalType":"uint256"}],"stateMutability":"view"},{"type":"function","name":"nextRaffleId","inputs":[],"outputs":[{"name":"","type":"uint256","internalType":"uint256"}],"stateMutability":"view"},{"type":"function","name":"nextTicketId","inputs":[],"outputs":[{"name":"","type":"uint256","internalType":"uint256"}],"stateMutability":"view"},{"type":"function","name":"numWords","inputs":[],"outputs":[{"name":"","type":"uint32","internalType":"uint32"}],"stateMutability":"view"},{"type":"function","name":"owner","inputs":[],"outputs":[{"name":"","type":"address","internalType":"address"}],"stateMutability":"view"},{"type":"function","name":"pause","inputs":[],"outputs":[],"stateMutability":"nonpayable"},{"type":"function","name":"paused","inputs":[],"outputs":[{"name":"","type":"bool","internalType":"bool"}],"stateMutability":"view"},{"type":"function","name":"playerInfo","inputs":[{"name":"","type":"uint256","internalType":"uint256"},{"name":"","type":"address","internalType":"address"}],"outputs":[{"name":"ticketCount","type":"uint256","internalType":"uint256"},{"name":"firstTicketId","type":"uint256","internalType":"uint256"},{"name":"lastTicketId","type":"uint256","internalType":"uint256"},{"name":"hasWon","type":"bool","internalType":"bool"},{"name":"hasClaimed","type":"bool","internalType":"bool"},{"name":"prizeAmount","type":"uint256","internalType":"uint256"}],"stateMutability":"view"},{"type":"function","name":"playerRaffles","inputs":[{"name":"","type":"address","internalType":"address"},{"name":"","type":"uint256","internalType":"uint256"}],"outputs":[{"name":"","type":"uint256","internalType":"uint256"}],"stateMutability":"view"},{"type":"function","name":"raffleParticipants","inputs":[{"name":"","type":"uint256","internalType":"uint256"},{"name":"","type":"uint256","internalType":"uint256"}],"outputs":[{"name":"","type":"address","internalType":"address"}],"stateMutability":"view"},{"type":"function","name":"raffleWinners","inputs":[{"name":"","type":"uint256","internalType":"uint256"},{"name":"","type":"uint256","internalType":"uint256"}],"outputs":[{"name":"","type":"address","internalType":"address"}],"stateMutability":"view"},{"type":"function","name":"raffles","inputs":[{"name":"","type":"uint256","internalType":"uint256"}],"outputs":[{"name":"id","type":"uint256","internalType":"uint256"},{"name":"name","type":"string","internalType":"string"},{"name":"description","type":"string","internalType":"string"},{"name":"startTime","type":"uint256","internalType":"uint256"},{"name":"endTime","type":"uint256","internalType":"uint256"},{"name":"ticketPrice","type":"uint256","internalType":"uint256"},{"name":"totalPrize","type":"uint256","internalType":"uint256"},{"name":"totalTickets","type":"uint256","internalType":"uint256"},{"name":"winnerCount","type":"uint256","internalType":"uint256"},{"name":"status","type":"uint8","internalType":"enum Raffle.RaffleStatus"},{"name":"tokenAddress","type":"address","internalType":"address"},{"name":"vrfRequestId","type":"uint256","internalType":"uint256"},{"name":"winningTicket","type":"uint256","internalType":"uint256"},{"name":"prizeDistributed","type":"bool","internalType":"bool"}],"stateMutability":"view"},{"type":"function","name":"rawFulfillRandomWords","inputs":[{"name":"requestId","type":"uint256","internalType":"uint256"},{"name":"randomWords","type":"uint256[]","internalType":"uint256[]"}],"outputs":[],"stateMutability":"nonpayable"},{"type":"function","name":"renounceRole","inputs":[{"name":"role","type":"bytes32","internalType":"bytes32"},{"name":"callerConfirmation","type":"address","internalType":"address"}],"outputs":[],"stateMutability":"nonpayable"},{"type":"function","name":"requestConfirmations","inputs":[],"outputs":[{"name":"","type":"uint16","internalType":"uint16"}],"stateMutability":"view"},{"type":"function","name":"revokeRole","inputs":[{"name":"role","type":"bytes32","internalType":"bytes32"},{"name":"account","type":"address","internalType":"address"}],"outputs":[],"stateMutability":"nonpayable"},{"type":"function","name":"s_vrfCoordinator","inputs":[],"outputs":[{"name":"","type":"address","internalType":"contract IVRFCoordinatorV2Plus"}],"stateMutability":"view"},{"type":"function","name":"setCoordinator","inputs":[{"name":"_vrfCoordinator","type":"address","internalType":"address"}],"outputs":[],"stateMutability":"nonpayable"},{"type":"function","name":"supportsInterface","inputs":[{"name":"interfaceId","type":"bytes4","internalType":"bytes4"}],"outputs":[{"name":"","type":"bool","internalType":"bool"}],"stateMutability":"view"},{"type":"function","name":"transferOwnership","inputs":[{"name":"to","type":"address","internalType":"address"}],"outputs":[],"stateMutability":"nonpayable"},{"type":"function","name":"unpause","inputs":[],"outputs":[],"stateMutability":"nonpayable"},{"type":"event","name":"CoordinatorSet","inputs":[{"name":"vrfCoordinator","type":"address","indexed":false,"internalType":"address"}],"anonymous":false},{"type":"event","name":"OwnershipTransferRequested","inputs":[{"name":"from","type":"address","indexed":true,"internalType":"address"},{"name":"to","type":"address","indexed":true,"internalType":"address"}],"anonymous":false},{"type":"event","name":"OwnershipTransferred","inputs":[{"name":"from","type":"address","indexed":true,"internalType":"address"},{"name":"to","type":"address","indexed":true,"internalType":"address"}],"anonymous":false},{"type":"event","name":"Paused","inputs":[{"name":"account","type":"address","indexed":false,"internalType":"address"}],"anonymous":false},{"type":"event","name":"PrizeClaimed","inputs":[{"name":"winner","type":"address","indexed":true,"internalType":"address"},{"name":"amount","type":"uint256","indexed":false,"internalType":"uint256"}],"anonymous":false},{"type":"event","name":"RaffleCreated","inputs":[{"name":"raffleId","type":"uint256","indexed":true,"internalType":"uint256"},{"name":"name","type":"string","indexed":false,"internalType":"string"},{"name":"duration","type":"uint256","indexed":false,"internalType":"uint256"},{"name":"ticketPrice","type":"uint256","indexed":false,"internalType":"uint256"}],"anonymous":false},{"type":"event","name":"RaffleEnded","inputs":[{"name":"raffleId","type":"uint256","indexed":true,"internalType":"uint256"},{"name":"winningTicket","type":"uint256","indexed":false,"internalType":"uint256"},{"name":"winners","type":"address[]","indexed":false,"internalType":"address[]"}],"anonymous":false},{"type":"event","name":"RoleAdminChanged","inputs":[{"name":"role","type":"bytes32","indexed":true,"internalType":"bytes32"},{"name":"previousAdminRole","type":"bytes32","indexed":true,"internalType":"bytes32"},{"name":"newAdminRole","type":"bytes32","indexed":true,"internalType":"bytes32"}],"anonymous":false},{"type":"event","name":"RoleGranted","inputs":[{"name":"role","type":"bytes32","indexed":true,"internalType":"bytes32"},{"name":"account","type":"address","indexed":true,"internalType":"address"},{"name":"sender","type":"address","indexed":true,"internalType":"address"}],"anonymous":false},{"type":"event","name":"RoleRevoked","inputs":[{"name":"role","type":"bytes32","indexed":true,"internalType":"bytes32"},{"name":"account","type":"address","indexed":true,"internalType":"address"},{"name":"sender","type":"address","indexed":true,"internalType":"address"}],"anonymous":false},{"type":"event","name":"TicketPurchased","inputs":[{"name":"player","type":"address","indexed":true,"internalType":"address"},{"name":"raffleId","type":"uint256","indexed":true,"internalType":"uint256"},{"name":"amount","type":"uint256","indexed":false,"internalType":"uint256"},{"name":"ticketCount","type":"uint256","indexed":false,"internalType":"uint256"}],"anonymous":false},{"type":"event","name":"Unpaused","inputs":[{"name":"account","type":"address","indexed":false,"internalType":"address"}],"anonymous":false},{"type":"event","name":"WinnerSelected","inputs":[{"name":"raffleId","type":"uint256","indexed":true,"internalType":"uint256"},{"name":"winner","type":"address","indexed":true,"internalType":"address"},{"name":"prizeAmount","type":"uint256","indexed":false,"internalType":"uint256"}],"anonymous":false},{"type":"error","name":"AccessControlBadConfirmation","inputs":[]},{"type":"error","name":"AccessControlUnauthorizedAccount","inputs":[{"name":"account","type":"address","internalType":"address"},{"name":"neededRole","type":"bytes32","internalType":"bytes32"}]},{"type":"error","name":"EnforcedPause","inputs":[]},{"type":"error","name":"ExpectedPause","inputs":[]},{"type":"error","name":"OnlyCoordinatorCanFulfill","inputs":[{"name":"have","type":"address","internalType":"address"},{"name":"want","type":"address","internalType":"address"}]},{"type":"error","name":"OnlyOwnerOrCoordinator","inputs":[{"name":"have","type":"address","internalType":"address"},{"name":"owner","type":"address","internalType":"address"},{"name":"coordinator","type":"address","internalType":"address"}]},{"type":"error","name":"ReentrancyGuardReentrantCall","inputs":[]},{"type":"error","name":"ZeroAddress","inputs":[]}],"bytecode":{"object":"0x60803461014457601f61298838819003918201601f19168301916001600160401b03831184841017610149578084926060946040528339810103126101445780516001600160a01b03811691908290036101445760406020820151910151916001805533156100ff5760028054610100600160a81b0319163360081b610100600160a81b031617905580156100ee57600480546001600160a01b031916919091179055600e80546001600160501b03191666010003000186a0179055600c55600d556100ca3361015f565b506100d4336101db565b506100de33610273565b506040516125fc908161030c8239f35b63d92e233d60e01b60005260046000fd5b60405162461bcd60e51b815260206004820152601860248201527f43616e6e6f7420736574206f776e657220746f207a65726f00000000000000006044820152606490fd5b600080fd5b634e487b7160e01b600052604160045260246000fd5b6001600160a01b0381166000908152600080516020612968833981519152602052604090205460ff166101d5576001600160a01b0316600081815260008051602061296883398151915260205260408120805460ff191660011790553391906000805160206129088339815191528180a4600190565b50600090565b6001600160a01b0381166000908152600080516020612928833981519152602052604090205460ff166101d5576001600160a01b0316600081815260008051602061292883398151915260205260408120805460ff191660011790553391907fa49807205ce4d355092ef5a8a18f56e8913cf4a201fbe287825b095693c21775906000805160206129088339815191529080a4600190565b6001600160a01b0381166000908152600080516020612948833981519152602052604090205460ff166101d5576001600160a01b0316600081815260008051602061294883398151915260205260408120805460ff191660011790553391907f97667070c54ef182b0f5858b034beac1b6f3089aa2d3188bb1e8929f4fa9b929906000805160206129088339815191529080a460019056fe608080604052600436101561001357600080fd5b60003560e01c90816301ffc9a714611fbe5750806318cfb7f014611f655780631fe543e314611cd5578063248a9ca314611ca057806324f7469714611c7c5780632f2ff15d14611c3c57806336568abe14611bf657806339638f1414611bc55780633ccd10e914611adb5780633f4ba83a14611a72578063470cdf9714611a545780635c975abb14611a315780635d4bc0ce1461192d5780635f7a1729146113645780635fba3171146112be5780636031a52f146112a05780636b1426a41461122e57806375b238fc146111f357806379ba5097146111285780637ccfd7fc146111015780638456cb59146110a75780638458e3e4146110895780638627df4614610d715780638da5cb5b14610d445780638ea9811714610c6b57806391d1485414610c1e57806395ff694314610c005780639def429d146109c75780639eccacf61461099e578063a217fddf14610982578063b0fb162f1461095e578063b1724b4614610940578063b1ddd82a146108f6578063b5e41287146108d1578063b6a6d177146108b4578063c1e3bd3e1461082a578063d547741f146107e3578063d7098154146105d0578063e4dafec9146103af578063edc67eb61461032b578063f2fde38b1461022d5763f5b541a6146101ed57600080fd5b346102285760003660031901126102285760206040517f97667070c54ef182b0f5858b034beac1b6f3089aa2d3188bb1e8929f4fa9b9298152f35b600080fd5b3461022857602036600319011261022857610246612011565b60025460081c6001600160a01b031690338290036102ed576001600160a01b0316903382146102a857600380546001600160a01b031916831790557fed8889f560326eb138920d842192f0eb3dd22b4f139c87a2c57538e05bae1278600080a3005b60405162461bcd60e51b815260206004820152601760248201527f43616e6e6f74207472616e7366657220746f2073656c660000000000000000006044820152606490fd5b60405162461bcd60e51b815260206004820152601660248201527527b7363c9031b0b63630b1363290313c9037bbb732b960511b6044820152606490fd5b346102285760403660031901126102285760c06040610348612027565b60043560005260086020528160002060009160018060a01b031682526020522080549060ff60018201549160028101546004600383015492015493604051958652602086015260408501528181161515606085015260081c161515608083015260a0820152f35b346102285760203660031901126102285760006101a06040516103d1816120c1565b82815260606020820152606060408201528260608201528260808201528260a08201528260c08201528260e08201528261010082015282610120820152826101408201528261016082015282610180820152015260043560005260076020526040600020604051610441816120c1565b8154815261045160018301612100565b916020820192835261046560028201612100565b6040830190815260038201549160608401928352600481015460808501908152600582015460a0860190815260068301549060c08701918252600784015460e08801908152600885015490610100890191825260098601549360ff8516936101208b019460048110156105ba5785526101408b0195600160a01b600190039060081c168652600a880154966101608c01978852600b890154986101808d01998a52600c015460ff16996101a08d019a15158b526040519d8e809e60208252519060200152518d604081016101c090526101e001610541916121a4565b90518d8203601f190160608f015261055991906121a4565b9a5160808d01525160a08c01525160c08b01525160e08a0152516101008901525161012088015251610140870161058f916121e5565b516001600160a01b031661016086015251610180850152516101a08401525115156101c08301520390f35b634e487b7160e01b600052602160045260246000fd5b34610228576020366003190112610228576004356105ec6125a4565b6105f4612587565b6000908152600760209081526040808320600883528184203385529092529091206009909101805490919060ff1660048110156105ba576002610637911461231b565b60038101805460ff8116156107a75760ff8160081c166107625761ff001916610100179055600490810154915460405163a9059cbb60e01b81523392810192909252602482018390526020908290604490829060009060081c6001600160a01b03165af190811561075657600091610727575b50156106e2576040519081527f95681e512bc0fe659e195e06c283eada494316f3d801213e48e7101af92bf77060203392a260018055005b60405162461bcd60e51b815260206004820152601d60248201527f526166666c653a207072697a65207472616e73666572206661696c65640000006044820152606490fd5b610749915060203d60201161074f575b61074181836120de565b8101906122eb565b826106aa565b503d610737565b6040513d6000823e3d90fd5b60405162461bcd60e51b815260206004820152601d60248201527f526166666c653a207072697a6520616c726561647920636c61696d65640000006044820152606490fd5b60405162461bcd60e51b81526020600482015260146024820152732930b33336329d103737ba1030903bb4b73732b960611b6044820152606490fd5b3461022857604036600319011261022857610828600435610802612027565b9061082361081e82600052600060205260016040600020015490565b61243f565b612505565b005b34610228576020366003190112610228576004356000526009602052604060002060405190816020825491828152019160005260206000209060005b818110610895576108918561087d818703826120de565b604051918291602083526020830190612249565b0390f35b82546001600160a01b0316845260209093019260019283019201610866565b34610228576000366003190112610228576020604051610e108152f35b3461022857600036600319011261022857602060405169021e19e0c9bab24000008152f35b346102285761090436612055565b90600052600960205260406000208054821015610228576020916109279161203d565b905460405160039290921b1c6001600160a01b03168152f35b34610228576000366003190112610228576020604051621275008152f35b3461022857600036600319011261022857602061ffff600e54821c16604051908152f35b3461022857600036600319011261022857602060405160008152f35b34610228576000366003190112610228576004546040516001600160a01b039091168152602090f35b34610228576020366003190112610228576004356109e36123cd565b6109eb612587565b8060005260076020526040600020600981019060ff82541660048110156105ba576001610a1891146122aa565b60048101544210610bc357610b0191600260ff19825416179055600c5490600d54600e549060405193610a4a856120a5565b845260208401908152604084019361ffff8360201c168552606081019063ffffffff8416825263ffffffff608082019460301c168452600060208098819663ffffffff60405191610a9b85846120de565b85835260a087019283528160018060a01b03600454169861ffff6040519e8f9c8d9b8c9a634d8e1c2f60e11b8c5260048c01525160248b01525160448a01525116606488015251166084860152511660a48401525160c060c484015260e48301906121a4565b03925af191821561075657600092610b72575b5091604091600a7fa1b8378b0deede943223b89f5fcc35c3743c6e9c21f7295733b75d1163a55b4b940155610b6d8251610b4e83826120de565b6000815260003681378351938493600085528401526040830190612249565b0390a2005b9150918082813d8311610bbc575b610b8a81836120de565b8101031261022857905190917fa1b8378b0deede943223b89f5fcc35c3743c6e9c21f7295733b75d1163a55b4b610b14565b503d610b80565b60405162461bcd60e51b8152602060048201526015602482015274149859999b194e881b9bdd081e595d08195b991959605a1b6044820152606490fd5b34610228576000366003190112610228576020600c54604051908152f35b3461022857604036600319011261022857610c37612027565b600435600052600060205260406000209060018060a01b0316600052602052602060ff604060002054166040519015158152f35b3461022857602036600319011261022857610c84612011565b60025460081c6001600160a01b03163381141580610d2f575b610d0857506001600160a01b03168015610cf7576020817fd1a6a14209a385a964d036e404cb5cfb71f4000cdb03c9366292430787261be6926bffffffffffffffffffffffff60a01b6004541617600455604051908152a1005b63d92e233d60e01b60005260046000fd5b60018060a01b03600454169063061db9c160e01b6000523360045260245260445260646000fd5b506004546001600160a01b0316331415610c9d565b346102285760003660031901126102285760025460405160089190911c6001600160a01b03168152602090f35b3461022857610d7f36612055565b610d876125a4565b610d8f612587565b81600052600760205260406000209060098201549160ff831660048110156105ba576001610dbd91146122aa565b600481015442101561105457811561100f5760058101549282840293808504841490151715610eee576040516323b872dd60e01b815233600482015230602482015260448101859052906020908290606490829060009060081c6001600160a01b03165af190811561075657600091610ff0575b5015610fab5760008481526008602090815260408083203384529091529020805490919015610f04575b610e6783600654612286565b600019810192908311610eee576006926002820155610e87848254612286565b905560078101610e98848254612286565b905501610ea6838254612286565b9055610eb481600654612286565b60065560405191825260208201527f96541f70da731142b18e96f1def4d2a7733deb7d784723106d52c1d906d4c67a60403392a360018055005b634e487b7160e01b600052601160045260246000fd5b600654600183015584600052600960205260406000208054600160401b811015610f9557610f379160018201815561203d565b81549060031b9033821b9160018060a01b03901b191617905533600052600a60205260406000208054600160401b811015610f9557610f7b9160018201815561203d565b81549060031b9087821b91600019901b1916179055610e5b565b634e487b7160e01b600052604160045260246000fd5b60405162461bcd60e51b815260206004820152601d60248201527f526166666c653a20746f6b656e207472616e73666572206661696c65640000006044820152606490fd5b611009915060203d60201161074f5761074181836120de565b85610e31565b60405162461bcd60e51b815260206004820152601c60248201527f526166666c653a20696e76616c6964207469636b657420636f756e74000000006044820152606490fd5b60405162461bcd60e51b815260206004820152600d60248201526c149859999b194e88195b991959609a1b6044820152606490fd5b34610228576000366003190112610228576020600554604051908152f35b34610228576000366003190112610228576110c061235b565b6110c8612587565b600160ff1960025416176002557f62e78cea01bee320cd4e420270b5ea74000d11b0c9f74754ebdbfc544b05a2586020604051338152a1005b3461022857600036600319011261022857602063ffffffff600e5460301c16604051908152f35b34610228576000366003190112610228576003546001600160a01b03811633036111b55760028054610100600160a81b0319811633600881811b610100600160a81b0316929092179093556001600160a01b031990931660035590911c6001600160a01b03167f8be0079c531659141344cd1fd0a4f28419497f9722a3daafe3b4186f6b6457e0600080a3005b60405162461bcd60e51b815260206004820152601660248201527526bab9ba10313290383937b837b9b2b21037bbb732b960511b6044820152606490fd5b346102285760003660031901126102285760206040517fa49807205ce4d355092ef5a8a18f56e8913cf4a201fbe287825b095693c217758152f35b3461022857602036600319011261022857600435600052600b602052604060002060405190816020825491828152019160005260206000209060005b818110611281576108918561087d818703826120de565b82546001600160a01b031684526020909301926001928301920161126a565b34610228576000366003190112610228576020600654604051908152f35b34610228576020366003190112610228576112d761235b565b6112df612587565b60043560005260076020526040600020600981019060ff8254169060048210156105ba576113116001600493146122aa565b015442101561132757805460ff19166003179055005b60405162461bcd60e51b8152602060048201526015602482015274149859999b194e88185b1c9958591e48195b991959605a1b6044820152606490fd5b346102285760c03660031901126102285760043567ffffffffffffffff8111610228576113959036906004016121f2565b60243567ffffffffffffffff8111610228576113b59036906004016121f2565b6084359160a4356001600160a01b03811691906044359060643590849003610228576113df6123cd565b6113e7612587565b8251156118e857610e10821015806118db575b156118965780151580611882575b1561183d5785151580611832575b156117ed5783156117a857600554956000198714610eee5760019587918783016005556114438542612286565b60405191611450836120c1565b84835260208301918883526040840194855260608401904282526080850190815260a0850188815260c08601916000835260e087019360008552610100880195865261012088019e8f5261014088019d8e5261016088019860008a52610180890197600089526101a08a019b60008d526000526007602052604060002099518a5560018a01905180519067ffffffffffffffff8211610f955781906114f5845461206b565b601f8111611776575b50602090601f831160011461171157600092611706575b50508160011b916000199060031b1c19161790555b51805160028a019167ffffffffffffffff8211610f9557819061154d845461206b565b601f81116116c9575b50602090601f831160011461166457600092611659575b50508160011b916000199060031b1c19161790555b5160038801555160048701555160058601555160068501555160078401555160088301556009820198519260048410156105ba57895498516001600160a81b031990991660ff9485161760089990991b610100600160a81b0316989098179098559551600a8701559551600b86015551600c909401805494151590951660ff199094169390931790935560405160608082527fa67a3ae202f19c155f33ec43781f888d5b6b6ddf7467ff4893647ece828a26b29491938493909161164991908501906121a4565b91602084015260408301520390a2005b01519050388061156d565b60008581528281209350601f198516905b8181106116b15750908460019594939210611698575b505050811b019055611582565b015160001960f88460031b161c1916905538808061168b565b92936020600181928786015181550195019301611675565b6116f690856000526020600020601f850160051c810191602086106116fc575b601f0160051c0190612293565b38611556565b90915081906116e9565b015190503880611515565b60008581528281209350601f198516905b81811061175e5750908460019594939210611745575b505050811b01905561152a565b015160001960f88460031b161c19169055388080611738565b92936020600181928786015181550195019301611722565b6117a290856000526020600020601f850160051c810191602086106116fc57601f0160051c0190612293565b386114fe565b60405162461bcd60e51b815260206004820152601d60248201527f526166666c653a20696e76616c696420746f6b656e20616464726573730000006044820152606490fd5b60405162461bcd60e51b815260206004820152601c60248201527f526166666c653a20696e76616c69642077696e6e657220636f756e74000000006044820152606490fd5b50600a861115611416565b60405162461bcd60e51b815260206004820152601c60248201527f526166666c653a20696e76616c6964207469636b6574207072696365000000006044820152606490fd5b5069021e19e0c9bab2400000811115611408565b60405162461bcd60e51b815260206004820152601860248201527f526166666c653a20696e76616c6964206475726174696f6e00000000000000006044820152606490fd5b50621275008211156113fa565b60405162461bcd60e51b815260206004820152601c60248201527f526166666c653a206e616d652063616e6e6f7420626520656d707479000000006044820152606490fd5b34610228576020366003190112610228576004356000526007602052604060002080546001820161195d90612100565b9161196a60028201612100565b6003820154916004810154600582015460068301546007840154600885015491600986015493600a87015495600b88015497600c015460ff16986040519c8d9c8d5260208d016101c090526101c08d016119c3916121a4565b8c810360408e01526119d4916121a4565b9960608c015260808b015260a08a015260c089015260e0880152610100870152610120860160ff821690611a07916121e5565b60081c6001600160a01b031661014086015261016085015261018084015215156101a08301520390f35b3461022857600036600319011261022857602060ff600254166040519015158152f35b34610228576000366003190112610228576020600d54604051908152f35b3461022857600036600319011261022857611a8b61235b565b60025460ff811615611aca5760ff19166002557f5db9ee0a495bf2e6ff9c91a7834c1ba4fdd244a5e8aa4e537bd38aeae4b073aa6020604051338152a1005b638dfc202b60e01b60005260046000fd5b346102285760403660031901126102285760c06040611af8612027565b600060a08351611b07816120a5565b8281528260208201528285820152826060820152826080820152015260043560005260086020528160002060009160018060a01b0316825260205220604051611b4f816120a5565b8154918282526001810154906020830191825260028101546040840190815260038201549260a06004606087019460ff87161515865260ff608089019760081c161515875201549501948552604051958652516020860152516040850152511515606084015251151560808301525160a0820152f35b3461022857611bd336612055565b90600052600b60205260406000208054821015610228576020916109279161203d565b3461022857604036600319011261022857611c0f612027565b336001600160a01b03821603611c2b5761082890600435612505565b63334bd91960e11b60005260046000fd5b3461022857604036600319011261022857610828600435611c5b612027565b90611c7761081e82600052600060205260016040600020015490565b61247a565b3461022857600036600319011261022857602063ffffffff600e5416604051908152f35b34610228576020366003190112610228576020611ccd600435600052600060205260016040600020015490565b604051908152f35b346102285760403660031901126102285760243560043567ffffffffffffffff821161022857366023830112156102285781600401359167ffffffffffffffff8311610228573660248460051b83010111610228576004546001600160a01b031633819003611f4d5750600554600092839190825b828110611f1c575b50505015611ed75781600052600760205260406000209260ff60098501541660048110156105ba576002611d86911461231b565b15611ec1576007830154908115611eab5760240135069160018301809311610eee578083600b60089301550154611dd5611dbf82612303565b91611dcd60405193846120de565b808352612303565b602082019390601f190136853782600052600b60205260406000209382519067ffffffffffffffff8211610f9557600160401b8211610f95578554828755808310611e8d575b509460005260206000209460005b828110611e7057857fa1b8378b0deede943223b89f5fcc35c3743c6e9c21f7295733b75d1163a55b4b8686610b6d6040519283928352604060208401526040830190612249565b81516001600160a01b031681880155602090910190600101611e29565b611ea590876000528360206000209182019101612293565b86611e1b565b634e487b7160e01b600052601260045260246000fd5b634e487b7160e01b600052603260045260246000fd5b60405162461bcd60e51b815260206004820152601960248201527f526166666c653a2072657175657374206e6f7420666f756e64000000000000006044820152606490fd5b80600052600760205281600a6040600020015414611f3c57600101611d4a565b939450505050906001848080611d52565b63073e64fd60e21b6000523360045260245260446000fd5b3461022857604036600319011261022857611f7e612011565b6001600160a01b03166000908152600a602052604090208054602435919082101561022857602091611faf9161203d565b90549060031b1c604051908152f35b34610228576020366003190112610228576004359063ffffffff60e01b821680920361022857602091637965db0b60e01b8114908115612000575b5015158152f35b6301ffc9a760e01b14905083611ff9565b600435906001600160a01b038216820361022857565b602435906001600160a01b038216820361022857565b8054821015611ec15760005260206000200190600090565b6040906003190112610228576004359060243590565b90600182811c9216801561209b575b602083101461208557565b634e487b7160e01b600052602260045260246000fd5b91607f169161207a565b60c0810190811067ffffffffffffffff821117610f9557604052565b6101c0810190811067ffffffffffffffff821117610f9557604052565b90601f8019910116810190811067ffffffffffffffff821117610f9557604052565b90604051918260008254926121148461206b565b8084529360018116908115612182575060011461213b575b50612139925003836120de565b565b90506000929192526020600020906000915b818310612166575050906020612139928201013861212c565b602091935080600191548385890101520191019091849261214d565b90506020925061213994915060ff191682840152151560051b8201013861212c565b919082519283825260005b8481106121d0575050826000602080949584010152601f8019910116010190565b806020809284010151828286010152016121af565b9060048210156105ba5752565b81601f820112156102285780359067ffffffffffffffff8211610f955760405192612227601f8401601f1916602001856120de565b8284526020838301011161022857816000926020809301838601378301015290565b906020808351928381520192019060005b8181106122675750505090565b82516001600160a01b031684526020938401939092019160010161225a565b91908201809211610eee57565b81811061229e575050565b60008155600101612293565b156122b157565b60405162461bcd60e51b8152602060048201526012602482015271526166666c653a206e6f742061637469766560701b6044820152606490fd5b90816020910312610228575180151581036102285790565b67ffffffffffffffff8111610f955760051b60200190565b1561232257565b60405162461bcd60e51b8152602060048201526011602482015270149859999b194e881b9bdd08195b991959607a1b6044820152606490fd5b3360009081527f7d7ffb7a348e1c6a02869081a26547b49160dd3df72d1d75a570eb9b698292ec602052604090205460ff161561239457565b63e2517d3f60e01b600052336004527fa49807205ce4d355092ef5a8a18f56e8913cf4a201fbe287825b095693c2177560245260446000fd5b3360009081527fee57cd81e84075558e8fcc182a1f4393f91fc97f963a136e66b7f949a62f319f602052604090205460ff161561240657565b63e2517d3f60e01b600052336004527f97667070c54ef182b0f5858b034beac1b6f3089aa2d3188bb1e8929f4fa9b92960245260446000fd5b60008181526020818152604080832033845290915290205460ff16156124625750565b63e2517d3f60e01b6000523360045260245260446000fd5b6000818152602081815260408083206001600160a01b038616845290915290205460ff166124fe576000818152602081815260408083206001600160a01b0395909516808452949091528120805460ff19166001179055339291907f2f8788117e7eff1d82e926ec794901d17c78024a50270940304540a733656f0d9080a4600190565b5050600090565b6000818152602081815260408083206001600160a01b038616845290915290205460ff16156124fe576000818152602081815260408083206001600160a01b0395909516808452949091528120805460ff19169055339291907ff6391f5c32d9c69d2a47ea670b442974b53935d1edc7fd64eb21e047a839171b9080a4600190565b60ff6002541661259357565b63d93c066560e01b60005260046000fd5b6002600154146125b5576002600155565b633ee5aeb560e01b60005260046000fdfea26469706673582212207ec05daf94fbe8e1f04ece88cde07165308a4f1e05baaf71282fae97e368570f64736f6c634300081a00332f8788117e7eff1d82e926ec794901d17c78024a50270940304540a733656f0d7d7ffb7a348e1c6a02869081a26547b49160dd3df72d1d75a570eb9b698292ecee57cd81e84075558e8fcc182a1f4393f91fc97f963a136e66b7f949a62f319fad3228b676f7d3cd4284a5443f17f1962b36e491b30a40b2405849e597ba5fb5","linkReferences":{}},"methodIdentifiers":{"ADMIN_ROLE()":"75b238fc","DEFAULT_ADMIN_ROLE()":"a217fddf","MAX_DURATION()":"b1724b46","MAX_TICKET_PRICE()":"b5e41287","MIN_DURATION()":"b6a6d177","OPERATOR_ROLE()":"f5b541a6","acceptOwnership()":"79ba5097","buyTickets(uint256,uint256)":"8627df46","callbackGasLimit()":"24f74697","cancelRaffle(uint256)":"5fba3171","claimPrize(uint256)":"d7098154","createRaffle(string,string,uint256,uint256,uint256,address)":"5f7a1729","endRaffle(uint256)":"9def429d","getParticipants(uint256)":"c1e3bd3e","getPlayerInfo(uint256,address)":"3ccd10e9","getRaffle(uint256)":"e4dafec9","getRoleAdmin(bytes32)":"248a9ca3","getWinners(uint256)":"6b1426a4","grantRole(bytes32,address)":"2f2ff15d","hasRole(bytes32,address)":"91d14854","i_keyHash()":"95ff6943","i_subscriptionId()":"470cdf97","nextRaffleId()":"8458e3e4","nextTicketId()":"6031a52f","numWords()":"7ccfd7fc","owner()":"8da5cb5b","pause()":"8456cb59","paused()":"5c975abb","playerInfo(uint256,address)":"edc67eb6","playerRaffles(address,uint256)":"18cfb7f0","raffleParticipants(uint256,uint256)":"b1ddd82a","raffleWinners(uint256,uint256)":"39638f14","raffles(uint256)":"5d4bc0ce","rawFulfillRandomWords(uint256,uint256[])":"1fe543e3","renounceRole(bytes32,address)":"36568abe","requestConfirmations()":"b0fb162f","revokeRole(bytes32,address)":"d547741f","s_vrfCoordinator()":"9eccacf6","setCoordinator(address)":"8ea98117","supportsInterface(bytes4)":"01ffc9a7","transferOwnership(address)":"f2fde38b","unpause()":"3f4ba83a"},"id":40}