{"abi":[{"type":"function","name":"EXTRA_ARGS_V1_TAG","inputs":[],"outputs":[{"name":"","type":"bytes4","internalType":"bytes4"}],"stateMutability":"view"}],"bytecode":{"object":"0x60808060405234601757607b9081601d823930815050f35b600080fdfe6080806040526004361015601257600080fd5b60003560e01c63f7514ab414602657600080fd5b600036600319011260405763125fa26760e31b8152602090f35b600080fdfea26469706673582212204b8ab740ad6b27922ff1162193b3168efd35f78bfa963e29d376a0bd327a1d3b64736f6c634300081a0033","linkReferences":{}},"methodIdentifiers":{"EXTRA_ARGS_V1_TAG()":"f7514ab4"},"id":7}