{"abi":[{"type":"constructor","inputs":[{"name":"_sofToken","type":"address","internalType":"address"},{"name":"_vrfCoordinator","type":"address","internalType":"address"},{"name":"_vrfSubscriptionId","type":"uint256","internalType":"uint256"},{"name":"_vrfKeyHash","type":"bytes32","internalType":"bytes32"}],"stateMutability":"nonpayable"},{"type":"function","name":"BONDING_CURVE_ROLE","inputs":[],"outputs":[{"name":"","type":"bytes32","internalType":"bytes32"}],"stateMutability":"view"},{"type":"function","name":"DEFAULT_ADMIN_ROLE","inputs":[],"outputs":[{"name":"","type":"bytes32","internalType":"bytes32"}],"stateMutability":"view"},{"type":"function","name":"EMERGENCY_ROLE","inputs":[],"outputs":[{"name":"","type":"bytes32","internalType":"bytes32"}],"stateMutability":"view"},{"type":"function","name":"MAX_WINNER_COUNT","inputs":[],"outputs":[{"name":"","type":"uint16","internalType":"uint16"}],"stateMutability":"view"},{"type":"function","name":"SEASON_CREATOR_ROLE","inputs":[],"outputs":[{"name":"","type":"bytes32","internalType":"bytes32"}],"stateMutability":"view"},{"type":"function","name":"VRF_REQUEST_CONFIRMATIONS","inputs":[],"outputs":[{"name":"","type":"uint16","internalType":"uint16"}],"stateMutability":"view"},{"type":"function","name":"VRF_TIMEOUT","inputs":[],"outputs":[{"name":"","type":"uint256","internalType":"uint256"}],"stateMutability":"view"},{"type":"function","name":"_executeFinalizationExternal","inputs":[{"name":"seasonId","type":"uint256","internalType":"uint256"}],"outputs":[],"stateMutability":"nonpayable"},{"type":"function","name":"acceptOwnership","inputs":[],"outputs":[],"stateMutability":"nonpayable"},{"type":"function","name":"canCreateSeason","inputs":[{"name":"account","type":"address","internalType":"address"}],"outputs":[{"name":"","type":"bool","internalType":"bool"}],"stateMutability":"view"},{"type":"function","name":"cancelStuckSeason","inputs":[{"name":"seasonId","type":"uint256","internalType":"uint256"}],"outputs":[],"stateMutability":"nonpayable"},{"type":"function","name":"completeSeasonManually","inputs":[{"name":"seasonId","type":"uint256","internalType":"uint256"}],"outputs":[],"stateMutability":"nonpayable"},{"type":"function","name":"createSeason","inputs":[{"name":"config","type":"tuple","internalType":"struct RaffleTypes.SeasonConfig","components":[{"name":"name","type":"string","internalType":"string"},{"name":"startTime","type":"uint256","internalType":"uint256"},{"name":"endTime","type":"uint256","internalType":"uint256"},{"name":"winnerCount","type":"uint16","internalType":"uint16"},{"name":"grandPrizeBps","type":"uint16","internalType":"uint16"},{"name":"treasuryAddress","type":"address","internalType":"address"},{"name":"raffleToken","type":"address","internalType":"address"},{"name":"bondingCurve","type":"address","internalType":"address"},{"name":"sponsor","type":"address","internalType":"address"},{"name":"isActive","type":"bool","internalType":"bool"},{"name":"isCompleted","type":"bool","internalType":"bool"},{"name":"gated","type":"bool","internalType":"bool"}]},{"name":"bondSteps","type":"tuple[]","internalType":"struct RaffleTypes.BondStep[]","components":[{"name":"rangeTo","type":"uint128","internalType":"uint128"},{"name":"price","type":"uint128","internalType":"uint128"}]},{"name":"buyFeeBps","type":"uint16","internalType":"uint16"},{"name":"sellFeeBps","type":"uint16","internalType":"uint16"}],"outputs":[{"name":"seasonId","type":"uint256","internalType":"uint256"}],"stateMutability":"nonpayable"},{"type":"function","name":"createSeasonWithTiers","inputs":[{"name":"config","type":"tuple","internalType":"struct RaffleTypes.SeasonConfig","components":[{"name":"name","type":"string","internalType":"string"},{"name":"startTime","type":"uint256","internalType":"uint256"},{"name":"endTime","type":"uint256","internalType":"uint256"},{"name":"winnerCount","type":"uint16","internalType":"uint16"},{"name":"grandPrizeBps","type":"uint16","internalType":"uint16"},{"name":"treasuryAddress","type":"address","internalType":"address"},{"name":"raffleToken","type":"address","internalType":"address"},{"name":"bondingCurve","type":"address","internalType":"address"},{"name":"sponsor","type":"address","internalType":"address"},{"name":"isActive","type":"bool","internalType":"bool"},{"name":"isCompleted","type":"bool","internalType":"bool"},{"name":"gated","type":"bool","internalType":"bool"}]},{"name":"bondSteps","type":"tuple[]","internalType":"struct RaffleTypes.BondStep[]","components":[{"name":"rangeTo","type":"uint128","internalType":"uint128"},{"name":"price","type":"uint128","internalType":"uint128"}]},{"name":"buyFeeBps","type":"uint16","internalType":"uint16"},{"name":"sellFeeBps","type":"uint16","internalType":"uint16"},{"name":"tierConfigs","type":"tuple[]","internalType":"struct IRafflePrizeDistributor.TierConfig[]","components":[{"name":"winnerCount","type":"uint16","internalType":"uint16"}]}],"outputs":[{"name":"seasonId","type":"uint256","internalType":"uint256"}],"stateMutability":"nonpayable"},{"type":"function","name":"currentSeasonId","inputs":[],"outputs":[{"name":"","type":"uint256","internalType":"uint256"}],"stateMutability":"view"},{"type":"function","name":"defaultGrandPrizeBps","inputs":[],"outputs":[{"name":"","type":"uint16","internalType":"uint16"}],"stateMutability":"view"},{"type":"function","name":"finalizeSeason","inputs":[{"name":"seasonId","type":"uint256","internalType":"uint256"}],"outputs":[],"stateMutability":"nonpayable"},{"type":"function","name":"fundPrizeDistributor","inputs":[{"name":"seasonId","type":"uint256","internalType":"uint256"}],"outputs":[],"stateMutability":"nonpayable"},{"type":"function","name":"gatingContract","inputs":[],"outputs":[{"name":"","type":"address","internalType":"address"}],"stateMutability":"view"},{"type":"function","name":"getCoordinatorAddress","inputs":[],"outputs":[{"name":"","type":"address","internalType":"address"}],"stateMutability":"view"},{"type":"function","name":"getCurrentSeason","inputs":[],"outputs":[{"name":"","type":"uint256","internalType":"uint256"}],"stateMutability":"view"},{"type":"function","name":"getFinalPlayerPosition","inputs":[{"name":"seasonId","type":"uint256","internalType":"uint256"},{"name":"player","type":"address","internalType":"address"}],"outputs":[{"name":"","type":"uint256","internalType":"uint256"}],"stateMutability":"view"},{"type":"function","name":"getNumberRange","inputs":[{"name":"seasonId","type":"uint256","internalType":"uint256"},{"name":"player","type":"address","internalType":"address"}],"outputs":[{"name":"startRange","type":"uint256","internalType":"uint256"},{"name":"endRange","type":"uint256","internalType":"uint256"}],"stateMutability":"view"},{"type":"function","name":"getParticipantNumberRange","inputs":[{"name":"seasonId","type":"uint256","internalType":"uint256"},{"name":"participant","type":"address","internalType":"address"}],"outputs":[{"name":"start","type":"uint256","internalType":"uint256"},{"name":"end","type":"uint256","internalType":"uint256"}],"stateMutability":"view"},{"type":"function","name":"getParticipantPosition","inputs":[{"name":"seasonId","type":"uint256","internalType":"uint256"},{"name":"participant","type":"address","internalType":"address"}],"outputs":[{"name":"position","type":"tuple","internalType":"struct RaffleStorage.ParticipantPosition","components":[{"name":"ticketCount","type":"uint256","internalType":"uint256"},{"name":"entryBlock","type":"uint256","internalType":"uint256"},{"name":"lastUpdateBlock","type":"uint256","internalType":"uint256"},{"name":"isActive","type":"bool","internalType":"bool"}]}],"stateMutability":"view"},{"type":"function","name":"getParticipants","inputs":[{"name":"seasonId","type":"uint256","internalType":"uint256"}],"outputs":[{"name":"","type":"address[]","internalType":"address[]"}],"stateMutability":"view"},{"type":"function","name":"getPlayerList","inputs":[{"name":"seasonId","type":"uint256","internalType":"uint256"}],"outputs":[{"name":"","type":"address[]","internalType":"address[]"}],"stateMutability":"view"},{"type":"function","name":"getRoleAdmin","inputs":[{"name":"role","type":"bytes32","internalType":"bytes32"}],"outputs":[{"name":"","type":"bytes32","internalType":"bytes32"}],"stateMutability":"view"},{"type":"function","name":"getSeasonDetails","inputs":[{"name":"seasonId","type":"uint256","internalType":"uint256"}],"outputs":[{"name":"config","type":"tuple","internalType":"struct RaffleTypes.SeasonConfig","components":[{"name":"name","type":"string","internalType":"string"},{"name":"startTime","type":"uint256","internalType":"uint256"},{"name":"endTime","type":"uint256","internalType":"uint256"},{"name":"winnerCount","type":"uint16","internalType":"uint16"},{"name":"grandPrizeBps","type":"uint16","internalType":"uint16"},{"name":"treasuryAddress","type":"address","internalType":"address"},{"name":"raffleToken","type":"address","internalType":"address"},{"name":"bondingCurve","type":"address","internalType":"address"},{"name":"sponsor","type":"address","internalType":"address"},{"name":"isActive","type":"bool","internalType":"bool"},{"name":"isCompleted","type":"bool","internalType":"bool"},{"name":"gated","type":"bool","internalType":"bool"}]},{"name":"status","type":"uint8","internalType":"enum RaffleStorage.SeasonStatus"},{"name":"totalParticipants","type":"uint256","internalType":"uint256"},{"name":"totalTickets","type":"uint256","internalType":"uint256"},{"name":"totalPrizePool","type":"uint256","internalType":"uint256"}],"stateMutability":"view"},{"type":"function","name":"getSeasonSnapshot","inputs":[{"name":"seasonId","type":"uint256","internalType":"uint256"}],"outputs":[{"name":"","type":"bytes32","internalType":"bytes32"}],"stateMutability":"view"},{"type":"function","name":"getSeasonWinner","inputs":[{"name":"seasonId","type":"uint256","internalType":"uint256"}],"outputs":[{"name":"","type":"address","internalType":"address"}],"stateMutability":"view"},{"type":"function","name":"getTotalTickets","inputs":[{"name":"seasonId","type":"uint256","internalType":"uint256"}],"outputs":[{"name":"","type":"uint256","internalType":"uint256"}],"stateMutability":"view"},{"type":"function","name":"getVrfRequestForSeason","inputs":[{"name":"seasonId","type":"uint256","internalType":"uint256"}],"outputs":[{"name":"","type":"uint256","internalType":"uint256"}],"stateMutability":"view"},{"type":"function","name":"getWinners","inputs":[{"name":"seasonId","type":"uint256","internalType":"uint256"}],"outputs":[{"name":"","type":"address[]","internalType":"address[]"}],"stateMutability":"view"},{"type":"function","name":"grantRole","inputs":[{"name":"role","type":"bytes32","internalType":"bytes32"},{"name":"account","type":"address","internalType":"address"}],"outputs":[],"stateMutability":"nonpayable"},{"type":"function","name":"hasRole","inputs":[{"name":"role","type":"bytes32","internalType":"bytes32"},{"name":"account","type":"address","internalType":"address"}],"outputs":[{"name":"","type":"bool","internalType":"bool"}],"stateMutability":"view"},{"type":"function","name":"hatsProtocol","inputs":[],"outputs":[{"name":"","type":"address","internalType":"contract IHats"}],"stateMutability":"view"},{"type":"function","name":"isSeasonActive","inputs":[{"name":"seasonId","type":"uint256","internalType":"uint256"}],"outputs":[{"name":"","type":"bool","internalType":"bool"}],"stateMutability":"view"},{"type":"function","name":"owner","inputs":[],"outputs":[{"name":"","type":"address","internalType":"address"}],"stateMutability":"view"},{"type":"function","name":"pauseSeason","inputs":[{"name":"seasonId","type":"uint256","internalType":"uint256"}],"outputs":[],"stateMutability":"nonpayable"},{"type":"function","name":"prizeDistributor","inputs":[],"outputs":[{"name":"","type":"address","internalType":"address"}],"stateMutability":"view"},{"type":"function","name":"rawFulfillRandomWords","inputs":[{"name":"requestId","type":"uint256","internalType":"uint256"},{"name":"randomWords","type":"uint256[]","internalType":"uint256[]"}],"outputs":[],"stateMutability":"nonpayable"},{"type":"function","name":"recordParticipant","inputs":[{"name":"seasonId","type":"uint256","internalType":"uint256"},{"name":"participant","type":"address","internalType":"address"},{"name":"ticketAmount","type":"uint256","internalType":"uint256"}],"outputs":[],"stateMutability":"nonpayable"},{"type":"function","name":"removeParticipant","inputs":[{"name":"seasonId","type":"uint256","internalType":"uint256"},{"name":"participant","type":"address","internalType":"address"},{"name":"ticketAmount","type":"uint256","internalType":"uint256"}],"outputs":[],"stateMutability":"nonpayable"},{"type":"function","name":"renounceRole","inputs":[{"name":"role","type":"bytes32","internalType":"bytes32"},{"name":"callerConfirmation","type":"address","internalType":"address"}],"outputs":[],"stateMutability":"nonpayable"},{"type":"function","name":"requestSeasonEnd","inputs":[{"name":"seasonId","type":"uint256","internalType":"uint256"}],"outputs":[],"stateMutability":"nonpayable"},{"type":"function","name":"requestSeasonEndEarly","inputs":[{"name":"seasonId","type":"uint256","internalType":"uint256"}],"outputs":[],"stateMutability":"nonpayable"},{"type":"function","name":"revokeRole","inputs":[{"name":"role","type":"bytes32","internalType":"bytes32"},{"name":"account","type":"address","internalType":"address"}],"outputs":[],"stateMutability":"nonpayable"},{"type":"function","name":"s_vrfCoordinator","inputs":[],"outputs":[{"name":"","type":"address","internalType":"contract IVRFCoordinatorV2Plus"}],"stateMutability":"view"},{"type":"function","name":"seasonFactory","inputs":[],"outputs":[{"name":"","type":"address","internalType":"contract ISeasonFactory"}],"stateMutability":"view"},{"type":"function","name":"seasonStates","inputs":[{"name":"","type":"uint256","internalType":"uint256"}],"outputs":[{"name":"status","type":"uint8","internalType":"enum RaffleStorage.SeasonStatus"},{"name":"totalParticipants","type":"uint256","internalType":"uint256"},{"name":"totalTickets","type":"uint256","internalType":"uint256"},{"name":"totalPrizePool","type":"uint256","internalType":"uint256"},{"name":"vrfRequestId","type":"uint256","internalType":"uint256"},{"name":"vrfRequestTimestamp","type":"uint256","internalType":"uint256"},{"name":"lockSnapshot","type":"bytes32","internalType":"bytes32"}],"stateMutability":"view"},{"type":"function","name":"seasons","inputs":[{"name":"","type":"uint256","internalType":"uint256"}],"outputs":[{"name":"name","type":"string","internalType":"string"},{"name":"startTime","type":"uint256","internalType":"uint256"},{"name":"endTime","type":"uint256","internalType":"uint256"},{"name":"winnerCount","type":"uint16","internalType":"uint16"},{"name":"grandPrizeBps","type":"uint16","internalType":"uint16"},{"name":"treasuryAddress","type":"address","internalType":"address"},{"name":"raffleToken","type":"address","internalType":"address"},{"name":"bondingCurve","type":"address","internalType":"address"},{"name":"sponsor","type":"address","internalType":"address"},{"name":"isActive","type":"bool","internalType":"bool"},{"name":"isCompleted","type":"bool","internalType":"bool"},{"name":"gated","type":"bool","internalType":"bool"}],"stateMutability":"view"},{"type":"function","name":"setCoordinator","inputs":[{"name":"_vrfCoordinator","type":"address","internalType":"address"}],"outputs":[],"stateMutability":"nonpayable"},{"type":"function","name":"setDefaultGrandPrizeBps","inputs":[{"name":"bps","type":"uint16","internalType":"uint16"}],"outputs":[],"stateMutability":"nonpayable"},{"type":"function","name":"setGatingContract","inputs":[{"name":"_gatingContract","type":"address","internalType":"address"}],"outputs":[],"stateMutability":"nonpayable"},{"type":"function","name":"setHatsProtocol","inputs":[{"name":"_hatsProtocol","type":"address","internalType":"address"}],"outputs":[],"stateMutability":"nonpayable"},{"type":"function","name":"setPrizeDistributor","inputs":[{"name":"distributor","type":"address","internalType":"address"}],"outputs":[],"stateMutability":"nonpayable"},{"type":"function","name":"setSeasonFactory","inputs":[{"name":"_seasonFactoryAddress","type":"address","internalType":"address"}],"outputs":[],"stateMutability":"nonpayable"},{"type":"function","name":"setSponsorHat","inputs":[{"name":"_hatId","type":"uint256","internalType":"uint256"}],"outputs":[],"stateMutability":"nonpayable"},{"type":"function","name":"setVRFCoordinator","inputs":[{"name":"_vrfCoordinator","type":"address","internalType":"address"}],"outputs":[],"stateMutability":"nonpayable"},{"type":"function","name":"setupPrizeDistributionManually","inputs":[{"name":"seasonId","type":"uint256","internalType":"uint256"}],"outputs":[],"stateMutability":"view"},{"type":"function","name":"sofToken","inputs":[],"outputs":[{"name":"","type":"address","internalType":"contract IERC20"}],"stateMutability":"view"},{"type":"function","name":"sponsorHatId","inputs":[],"outputs":[{"name":"","type":"uint256","internalType":"uint256"}],"stateMutability":"view"},{"type":"function","name":"startSeason","inputs":[{"name":"seasonId","type":"uint256","internalType":"uint256"}],"outputs":[],"stateMutability":"nonpayable"},{"type":"function","name":"supportsInterface","inputs":[{"name":"interfaceId","type":"bytes4","internalType":"bytes4"}],"outputs":[{"name":"","type":"bool","internalType":"bool"}],"stateMutability":"view"},{"type":"function","name":"transferOwnership","inputs":[{"name":"to","type":"address","internalType":"address"}],"outputs":[],"stateMutability":"nonpayable"},{"type":"function","name":"updateVRFConfig","inputs":[{"name":"_subscriptionId","type":"uint64","internalType":"uint64"},{"name":"_keyHash","type":"bytes32","internalType":"bytes32"},{"name":"_callbackGasLimit","type":"uint32","internalType":"uint32"}],"outputs":[],"stateMutability":"nonpayable"},{"type":"function","name":"vrfCallbackGasLimit","inputs":[],"outputs":[{"name":"","type":"uint32","internalType":"uint32"}],"stateMutability":"view"},{"type":"function","name":"vrfKeyHash","inputs":[],"outputs":[{"name":"","type":"bytes32","internalType":"bytes32"}],"stateMutability":"view"},{"type":"function","name":"vrfRequestToSeason","inputs":[{"name":"","type":"uint256","internalType":"uint256"}],"outputs":[{"name":"","type":"uint256","internalType":"uint256"}],"stateMutability":"view"},{"type":"function","name":"vrfSubscriptionId","inputs":[],"outputs":[{"name":"","type":"uint256","internalType":"uint256"}],"stateMutability":"view"},{"type":"event","name":"AutoFinalizeAttempted","inputs":[{"name":"seasonId","type":"uint256","indexed":true,"internalType":"uint256"},{"name":"success","type":"bool","indexed":false,"internalType":"bool"}],"anonymous":false},{"type":"event","name":"AutoFinalizeFailed","inputs":[{"name":"seasonId","type":"uint256","indexed":true,"internalType":"uint256"},{"name":"reason","type":"string","indexed":false,"internalType":"string"}],"anonymous":false},{"type":"event","name":"AutoFinalizeFailedLowLevel","inputs":[{"name":"seasonId","type":"uint256","indexed":true,"internalType":"uint256"},{"name":"data","type":"bytes","indexed":false,"internalType":"bytes"}],"anonymous":false},{"type":"event","name":"CoordinatorSet","inputs":[{"name":"vrfCoordinator","type":"address","indexed":false,"internalType":"address"}],"anonymous":false},{"type":"event","name":"GatingContractUpdated","inputs":[{"name":"oldContract","type":"address","indexed":true,"internalType":"address"},{"name":"newContract","type":"address","indexed":true,"internalType":"address"}],"anonymous":false},{"type":"event","name":"HatsProtocolUpdated","inputs":[{"name":"oldAddress","type":"address","indexed":true,"internalType":"address"},{"name":"newAddress","type":"address","indexed":true,"internalType":"address"}],"anonymous":false},{"type":"event","name":"OwnershipTransferRequested","inputs":[{"name":"from","type":"address","indexed":true,"internalType":"address"},{"name":"to","type":"address","indexed":true,"internalType":"address"}],"anonymous":false},{"type":"event","name":"OwnershipTransferred","inputs":[{"name":"from","type":"address","indexed":true,"internalType":"address"},{"name":"to","type":"address","indexed":true,"internalType":"address"}],"anonymous":false},{"type":"event","name":"ParticipantAdded","inputs":[{"name":"seasonId","type":"uint256","indexed":true,"internalType":"uint256"},{"name":"participant","type":"address","indexed":false,"internalType":"address"},{"name":"tickets","type":"uint256","indexed":false,"internalType":"uint256"},{"name":"totalTickets","type":"uint256","indexed":false,"internalType":"uint256"}],"anonymous":false},{"type":"event","name":"ParticipantRemoved","inputs":[{"name":"seasonId","type":"uint256","indexed":true,"internalType":"uint256"},{"name":"participant","type":"address","indexed":false,"internalType":"address"},{"name":"totalTickets","type":"uint256","indexed":false,"internalType":"uint256"}],"anonymous":false},{"type":"event","name":"ParticipantUpdated","inputs":[{"name":"seasonId","type":"uint256","indexed":true,"internalType":"uint256"},{"name":"participant","type":"address","indexed":false,"internalType":"address"},{"name":"newTickets","type":"uint256","indexed":false,"internalType":"uint256"},{"name":"totalTickets","type":"uint256","indexed":false,"internalType":"uint256"}],"anonymous":false},{"type":"event","name":"PositionUpdate","inputs":[{"name":"seasonId","type":"uint256","indexed":true,"internalType":"uint256"},{"name":"player","type":"address","indexed":true,"internalType":"address"},{"name":"oldTickets","type":"uint256","indexed":false,"internalType":"uint256"},{"name":"newTickets","type":"uint256","indexed":false,"internalType":"uint256"},{"name":"totalTickets","type":"uint256","indexed":false,"internalType":"uint256"}],"anonymous":false},{"type":"event","name":"PrizeDistributionFailed","inputs":[{"name":"seasonId","type":"uint256","indexed":true,"internalType":"uint256"},{"name":"reason","type":"string","indexed":false,"internalType":"string"}],"anonymous":false},{"type":"event","name":"PrizeDistributionSetup","inputs":[{"name":"seasonId","type":"uint256","indexed":true,"internalType":"uint256"},{"name":"merkleDistributor","type":"address","indexed":false,"internalType":"address"}],"anonymous":false},{"type":"event","name":"RoleAdminChanged","inputs":[{"name":"role","type":"bytes32","indexed":true,"internalType":"bytes32"},{"name":"previousAdminRole","type":"bytes32","indexed":true,"internalType":"bytes32"},{"name":"newAdminRole","type":"bytes32","indexed":true,"internalType":"bytes32"}],"anonymous":false},{"type":"event","name":"RoleGranted","inputs":[{"name":"role","type":"bytes32","indexed":true,"internalType":"bytes32"},{"name":"account","type":"address","indexed":true,"internalType":"address"},{"name":"sender","type":"address","indexed":true,"internalType":"address"}],"anonymous":false},{"type":"event","name":"RoleRevoked","inputs":[{"name":"role","type":"bytes32","indexed":true,"internalType":"bytes32"},{"name":"account","type":"address","indexed":true,"internalType":"address"},{"name":"sender","type":"address","indexed":true,"internalType":"address"}],"anonymous":false},{"type":"event","name":"SeasonCancelled","inputs":[{"name":"seasonId","type":"uint256","indexed":true,"internalType":"uint256"}],"anonymous":false},{"type":"event","name":"SeasonCompleted","inputs":[{"name":"seasonId","type":"uint256","indexed":true,"internalType":"uint256"}],"anonymous":false},{"type":"event","name":"SeasonCreated","inputs":[{"name":"seasonId","type":"uint256","indexed":true,"internalType":"uint256"},{"name":"name","type":"string","indexed":false,"internalType":"string"},{"name":"startTime","type":"uint256","indexed":false,"internalType":"uint256"},{"name":"endTime","type":"uint256","indexed":false,"internalType":"uint256"},{"name":"raffleToken","type":"address","indexed":false,"internalType":"address"},{"name":"bondingCurve","type":"address","indexed":false,"internalType":"address"}],"anonymous":false},{"type":"event","name":"SeasonEndRequested","inputs":[{"name":"seasonId","type":"uint256","indexed":true,"internalType":"uint256"},{"name":"vrfRequestId","type":"uint256","indexed":false,"internalType":"uint256"}],"anonymous":false},{"type":"event","name":"SeasonLocked","inputs":[{"name":"seasonId","type":"uint256","indexed":true,"internalType":"uint256"}],"anonymous":false},{"type":"event","name":"SeasonSnapshotted","inputs":[{"name":"seasonId","type":"uint256","indexed":true,"internalType":"uint256"},{"name":"snapshotHash","type":"bytes32","indexed":false,"internalType":"bytes32"}],"anonymous":false},{"type":"event","name":"SeasonStarted","inputs":[{"name":"seasonId","type":"uint256","indexed":true,"internalType":"uint256"}],"anonymous":false},{"type":"event","name":"SponsorHatUpdated","inputs":[{"name":"oldHatId","type":"uint256","indexed":true,"internalType":"uint256"},{"name":"newHatId","type":"uint256","indexed":true,"internalType":"uint256"}],"anonymous":false},{"type":"event","name":"VRFFulfilled","inputs":[{"name":"seasonId","type":"uint256","indexed":true,"internalType":"uint256"},{"name":"requestId","type":"uint256","indexed":true,"internalType":"uint256"}],"anonymous":false},{"type":"event","name":"WinnersSelected","inputs":[{"name":"seasonId","type":"uint256","indexed":true,"internalType":"uint256"},{"name":"winners","type":"address[]","indexed":false,"internalType":"address[]"}],"anonymous":false},{"type":"error","name":"AccessControlBadConfirmation","inputs":[]},{"type":"error","name":"AccessControlUnauthorizedAccount","inputs":[{"name":"account","type":"address","internalType":"address"},{"name":"neededRole","type":"bytes32","internalType":"bytes32"}]},{"type":"error","name":"DistributorNotSet","inputs":[]},{"type":"error","name":"FactoryNotSet","inputs":[]},{"type":"error","name":"InvalidAddress","inputs":[]},{"type":"error","name":"InvalidBasisPoints","inputs":[{"name":"bps","type":"uint256","internalType":"uint256"}]},{"type":"error","name":"InvalidBondSteps","inputs":[]},{"type":"error","name":"InvalidEndTime","inputs":[{"name":"endTime","type":"uint256","internalType":"uint256"},{"name":"startTime","type":"uint256","internalType":"uint256"}]},{"type":"error","name":"InvalidSeasonName","inputs":[]},{"type":"error","name":"InvalidSeasonStatus","inputs":[{"name":"seasonId","type":"uint256","internalType":"uint256"},{"name":"currentStatus","type":"uint8","internalType":"uint8"},{"name":"expectedStatus","type":"uint8","internalType":"uint8"}]},{"type":"error","name":"InvalidStartTime","inputs":[{"name":"startTime","type":"uint256","internalType":"uint256"},{"name":"currentTime","type":"uint256","internalType":"uint256"}]},{"type":"error","name":"InvalidTreasuryAddress","inputs":[]},{"type":"error","name":"InvalidWinnerCount","inputs":[{"name":"count","type":"uint256","internalType":"uint256"}]},{"type":"error","name":"NoVRFWords","inputs":[{"name":"seasonId","type":"uint256","internalType":"uint256"}]},{"type":"error","name":"NoWinnersSelected","inputs":[]},{"type":"error","name":"OnlyCoordinatorCanFulfill","inputs":[{"name":"have","type":"address","internalType":"address"},{"name":"want","type":"address","internalType":"address"}]},{"type":"error","name":"OnlyOwnerOrCoordinator","inputs":[{"name":"have","type":"address","internalType":"address"},{"name":"owner","type":"address","internalType":"address"},{"name":"coordinator","type":"address","internalType":"address"}]},{"type":"error","name":"ReentrancyGuardReentrantCall","inputs":[]},{"type":"error","name":"SeasonAlreadyEnded","inputs":[{"name":"seasonId","type":"uint256","internalType":"uint256"}]},{"type":"error","name":"SeasonAlreadyStarted","inputs":[{"name":"seasonId","type":"uint256","internalType":"uint256"}]},{"type":"error","name":"SeasonNotActive","inputs":[{"name":"seasonId","type":"uint256","internalType":"uint256"}]},{"type":"error","name":"SeasonNotEnded","inputs":[{"name":"seasonId","type":"uint256","internalType":"uint256"},{"name":"currentTime","type":"uint256","internalType":"uint256"},{"name":"endTime","type":"uint256","internalType":"uint256"}]},{"type":"error","name":"SeasonNotFound","inputs":[{"name":"seasonId","type":"uint256","internalType":"uint256"}]},{"type":"error","name":"SeasonNotVRFPending","inputs":[{"name":"seasonId","type":"uint256","internalType":"uint256"}]},{"type":"error","name":"UnauthorizedCaller","inputs":[]},{"type":"error","name":"UserNotVerified","inputs":[{"name":"seasonId","type":"uint256","internalType":"uint256"},{"name":"user","type":"address","internalType":"address"}]},{"type":"error","name":"VRFRequestNotFound","inputs":[{"name":"requestId","type":"uint256","internalType":"uint256"}]},{"type":"error","name":"VRFTimeoutNotReached","inputs":[{"name":"seasonId","type":"uint256","internalType":"uint256"},{"name":"requestTime","type":"uint256","internalType":"uint256"},{"name":"timeoutAt","type":"uint256","internalType":"uint256"}]},{"type":"error","name":"ZeroAddress","inputs":[]}],"bytecode":{"object":"0x60a03461019257601f6150e338819003918201601f19168301916001600160401b038311848410176101965780849260809460405283398101031261019257610047816101aa565b90610054602082016101aa565b9160606040830151920151926001600655331561014d57600780546001600160a01b031916331790556001600160a01b031690811561013e57600980546001600160a01b03191683179055600d805463ffffffff19166207a120179055600e805461ffff60a01b191661065960a21b1790556001600160a01b0316801561012f57608052600a80546001600160a01b031916919091179055600c55600b556100fb336101be565b5061010533610234565b5061010f336102c7565b50604051614d08908161035b823960805181818161292401526138e90152f35b63e6c4247b60e01b5f5260045ffd5b63d92e233d60e01b5f5260045ffd5b60405162461bcd60e51b815260206004820152601860248201527f43616e6e6f7420736574206f776e657220746f207a65726f00000000000000006044820152606490fd5b5f80fd5b634e487b7160e01b5f52604160045260245ffd5b51906001600160a01b038216820361019257565b6001600160a01b0381165f9081525f5160206150c35f395f51905f52602052604090205460ff1661022f576001600160a01b03165f8181525f5160206150c35f395f51905f5260205260408120805460ff191660011790553391905f5160206150635f395f51905f528180a4600190565b505f90565b6001600160a01b0381165f9081525f5160206150835f395f51905f52602052604090205460ff1661022f576001600160a01b03165f8181525f5160206150835f395f51905f5260205260408120805460ff191660011790553391907f7ef5114529a47294f95f6beb0f3b094a1365fd784c97c498bb697c0f0c7b6611905f5160206150635f395f51905f529080a4600190565b6001600160a01b0381165f9081525f5160206150a35f395f51905f52602052604090205460ff1661022f576001600160a01b03165f8181525f5160206150a35f395f51905f5260205260408120805460ff191660011790553391907fbf233dd2aafeb4d50879c4aa5c81e96d92f6e6945c906a58f9f2d1c1631b4b26905f5160206150635f395f51905f529080a460019056fe6080806040526004361015610012575f80fd5b5f905f3560e01c90816301ffc9a71461299457508063041d443e1461297757806305274b021461295357806306f6fc131461290f5780630da6f7a1146128aa5780631677d4681461285457806317077a3b1461270a57806318906287146126dd57806319424e51146126c25780631a9e6d5c146126795780631c30c76b146124ef5780631e27580e146124d45780631fe543e31461244b578063200ad21b14610a0e57806320df43591461241157806324674429146123a8578063248a9ca31461237d57806326182e7b146120d5578063274435cc1461203957806327c02f5a1461200c5780632f2ff15d14611fcc57806332847b4714611fa457806333e0256614611e29578063354443a014611dee57806336568abe14611da95780633aa4159e14611d535780633b7ed73414611d2f5780633e81d1ca14611b3457806341f1e98214611b0757806344ff81ce14611a9d57806348144bc614611a745780634d8613541461196f578063593d03a01461193c5780635b9180d5146118f25780636044f7e2146118bd5780636667bf43146117ea5780636b1426a414611746578063703dbfe4146115b8578063740a901f1461154d57806376ec73c2146111ee5780637793d7dd146111bd57806379ba50971461110e5780638d12036c14610dea5780638da5cb5b14610dc15780638df48e6614610d675780638ea9811714610c9557806391d1485414610c4b57806398f0e3e914610c105780639cfea25314610bda5780639eccacf614610bb1578063a217fddf14610b95578063ac5729b414610af5578063b71d162714610acb578063b924c14014610a3c578063c049098f14610a13578063c1e3bd3e14610a0e578063cd1c41ea14610963578063d00d23e31461093a578063d072791314610882578063d1248d2714610859578063d3b30b7514610836578063d547741f146107ee578063d6769d4214610778578063dc2933821461075b578063e59eee3814610626578063ed647d2114610608578063ef4bf354146105ea578063f1412d9414610536578063f2fde38b1461043a578063f4d1c5f61461041c5763f5d709a11461032b575f80fd5b346104195760203660031901126104195760406103a191600435815260016020522061035681612eb9565b9060ff600182015491600281015490600381015460018060a01b0360048301541690600660018060a01b03600585015416930154936040519889986101808a526101808a0190612a58565b966020890152604088015261ffff8116606088015261ffff8160101c16608088015260018060a01b039060201c1660a087015260c086015260e085015260018060a01b038116610100850152818160a01c161515610120850152818160a81c16151561014085015260b01c1615156101608301520390f35b80fd5b503461041957806003193601126104195760206040516202a3008152f35b503461041957602036600319011261041957610454612a18565b6007546001600160a01b031690338290036104f8576001600160a01b0316903382146104b357600880546001600160a01b031916831790557fed8889f560326eb138920d842192f0eb3dd22b4f139c87a2c57538e05bae12788380a380f35b60405162461bcd60e51b815260206004820152601760248201527f43616e6e6f74207472616e7366657220746f2073656c660000000000000000006044820152606490fd5b60405162461bcd60e51b815260206004820152601660248201527527b7363c9031b0b63630b1363290313c9037bbb732b960511b6044820152606490fd5b50346104195760403660031901126104195760086040610554612a2e565b92806060835161056381612bd7565b828152826020820152828582015201526004358152600260205220019060018060a01b03165f52602052608060405f2060405161059f81612bd7565b815491828252600181015460208301908152606060ff600360028501549460408701958652015416930192151583526040519384525160208401525160408301525115156060820152f35b50346104195780600319360112610419576020601054604051908152f35b50346104195780600319360112610419576020600c54604051908152f35b50346104195760203660031901126104195760043561064361340a565b80151580610750575b610655906131c9565b808252600260205260ff604083205416600781101561073c57600461067a9114613388565b808252600260205260408220600481015415801590610730575b156106eb57818352600160205260408320600601805460ff60a81b1916600160a81b179055805460ff191660051790557fc48a6bc3c0c009e1f8ccd8bca8aeee55410aaf210eec6e5e0cba85a3708bfb2b8280a280f35b60405162461bcd60e51b815260206004820152601e60248201527f526166666c653a207072697a6573206e6f7420646973747269627574656400006044820152606490fd5b50600181015415610694565b634e487b7160e01b83526021600452602483fd5b50815481111561064c565b503461041957806003193601126104195760209054604051908152f35b503461041957602036600319011261041957604060e091600435815260026020522060ff8154169060018101549060028101546003820154600583015491600a6006850154940154946107ce6040518098612b37565b602087015260408601526060850152608084015260a083015260c0820152f35b50346104195760403660031901126104195761083260043561080e612a2e565b9061082d610828825f526005602052600160405f20015490565b613537565b613f5d565b5080f35b503461041957806003193601126104195760206108516133d4565b604051908152f35b5034610419578060031936011261041957600d54604051602091821c6001600160a01b03168152f35b50346104195760203660031901126104195760043561089f61340a565b8015158061092f575b6108b1906131c9565b8152600260205260ff60408220541690600782101561091b576108d660048314613388565b60405162461bcd60e51b815260206004820152601a60248201527f526166666c653a207573652066696e616c697a65536561736f6e0000000000006044820152606490fd5b634e487b7160e01b81526021600452602490fd5b5081548111156108a8565b5034610419578060031936011261041957600e546040516001600160a01b039091168152602090f35b50346104195760403660031901126104195760043590610981612a2e565b91808252600160205260ff600660408420015460a81c16156109c9578160409160089352600260205220019060018060a01b03165f52602052602060405f2054604051908152f35b60405162461bcd60e51b815260206004820152601c60248201527f526166666c653a20736561736f6e206e6f7420636f6d706c65746564000000006044820152606490fd5b612b80565b5034610419578060031936011261041957600f546040516001600160a01b039091168152602090f35b503461041957602036600319011261041957610a56612a18565b610a5e61340a565b600d5490602082901c6001600160a01b0316610abc576001600160a01b03811615610aad57640100000000600160c01b031990911660209190911b640100000000600160c01b031617600d5580f35b63e6c4247b60e01b8352600483fd5b6329f7dfeb60e21b8352600483fd5b50346104195760203660031901126104195760406020916004358152600383522054604051908152f35b5034610419576080366003190112610419576004356001600160401b038111610b9157610b26903690600401612c8d565b6024356001600160401b038111610b8d5791610b7b91610b4c6020943690600401612de0565b610b546129e7565b90610b5d6129f8565b92610b666136ee565b60405194610b748887612c44565b8552614165565b6001600655604051908152f35b614165565b8280fd5b5080fd5b5034610419578060031936011261041957602090604051908152f35b50346104195780600319360112610419576009546040516001600160a01b039091168152602090f35b503461041957602036600319011261041957303303610c0157610bfe60043561370e565b80f35b635c427cd960e01b8152600490fd5b503461041957806003193601126104195760206040517f7ef5114529a47294f95f6beb0f3b094a1365fd784c97c498bb697c0f0c7b66118152f35b5034610419576040366003190112610419576040610c67612a2e565b9160043581526005602052209060018060a01b03165f52602052602060ff60405f2054166040519015158152f35b503461041957602036600319011261041957610caf612a18565b6007546001600160a01b03163381141580610d52575b610d2a57506001600160a01b03168015610d1b576020817fd1a6a14209a385a964d036e404cb5cfb71f4000cdb03c9366292430787261be6926001600160601b0360a01b6009541617600955604051908152a180f35b63d92e233d60e01b8252600482fd5b60095463061db9c160e01b8452336004526024919091526001600160a01b0316604452606482fd5b506009546001600160a01b0316331415610cc5565b5034610419576060366003190112610419576004356001600160401b038116809103610b91576044359063ffffffff8216809203610b8d57610da761340a565b600c55602435600b5563ffffffff19600d541617600d5580f35b50346104195780600319360112610419576007546040516001600160a01b039091168152602090f35b503461041957610df936612bad565b9091610e03613459565b808452600160205260ff600660408620015460a01c1680156110d8575b610e2990612fec565b8084526002602052604084209260018060a01b0381165f526008840160205260405f2090600382019360ff8554161561109e5782549481861061106657610e708287613266565b93610e8060028901938454613266565b928186859355600243910155558315610f16575b50604080516001600160a01b03841681526020810183905295965093945f516020614ce85f395f51905f5294610f10929187917fac77b6b0b2feb4466fddc617dfa38c6ef3c26332af501f28b86a706a0b6ec2eb91a260405193849360018060a01b031697846040919493926060820195825260208201520152565b0390a380f35b60ff19815416905560018601610f2c815461337c565b90556001600160a01b03821695600901875b8154808210156110485788610f538385613062565b905460039190911b1c6001600160a01b031614610f735750600101610f3e565b9091929394959697505f1981019081116110345790610fb1610f98610fd59385613062565b905460039190911b1c6001600160a01b03169184613062565b81546001600160a01b0393841660039290921b91821b9390911b1916919091179055565b805480156110205791610f10915f516020614ce85f395f51905f529594935f1901906110018282613062565b81549060018060a01b039060031b1b19169055555b9086959450610e94565b634e487b7160e01b88526031600452602488fd5b634e487b7160e01b89526011600452602489fd5b5050505f516020614ce85f395f51905f5293949550610f1090611016565b60405162461bcd60e51b815260206004820152601060248201526f0a4c2ccccd8ca7440e8dede40daeac6d60831b6044820152606490fd5b60405162461bcd60e51b8152602060048201526012602482015271526166666c653a206e6f742061637469766560701b6044820152606490fd5b50808452600260205260ff60408520541660078110156110fa57600614610e20565b634e487b7160e01b85526021600452602485fd5b50346104195780600319360112610419576008546001600160a01b038116330361117f5760078054336001600160a01b03198083168217909355929091166008556001600160a01b03167f8be0079c531659141344cd1fd0a4f28419497f9722a3daafe3b4186f6b6457e08380a380f35b60405162461bcd60e51b815260206004820152601660248201527526bab9ba10313290383937b837b9b2b21037bbb732b960511b6044820152606490fd5b50346104195760203660031901126104195760206111dc600435613338565b6040516001600160a01b039091168152f35b50346104195760203660031901126104195760043561120b6134c8565b80158015611543575b61153157808252600160205260ff600660408420015460a01c161561151f57808252600260205260ff604083205416600781101561073c576001036114d757808252600160205260408220600501546001600160a01b0316803b15610b8d5760405163086afa1160e41b81528390818160048183875af180156114cc576114b7575b5050602060049160405192838092632168e9d360e21b82525afa90811561147a578391611485575b508183526002602052600360408420015580825260016020526006604083200160ff60a01b198154169055808252600260205260408220600260ff19825416179055807fb8c1e571c612bf9e6c3c5d23593965ef3c951a26fcd26afc16e9397bef1329518380a261132e81614013565b8160206113bf60018060a01b03600a5416600b54600c5463ffffffff600d54168787526001865261ffff6003604089200154169061137960405161137181612c0e565b898152614129565b926040519461138786612c29565b855287850152600360408501526060840152608083015260a0820152604051948580948193634d8e1c2f60e11b835260048301613209565b03925af190811561147a578391611443575b5060207f656e5c80604277a61c82dbec54c99e9c266e8e019c6c1367d5b82e773fd395c79183855260028252806005604087200155838552600282524260066040872001558385526002825260408520600360ff1982541617905580855260038252836040862055604051908152a280f35b90506020813d602011611472575b8161145e60209383612c44565b8101031261146e575160206113d1565b5f80fd5b3d9150611451565b6040513d85823e3d90fd5b90506020813d6020116114af575b816114a060209383612c44565b8101031261146e57515f6112be565b3d9150611493565b816114c191612c44565b610b8d57825f611296565b6040513d84823e3d90fd5b90818152600260205260ff604082205416600781101561150b576064926350b8b89160e11b83526004526024526001604452fd5b634e487b7160e01b82526021600452602482fd5b632feb032560e01b8252600452602490fd5b630c5687c760e21b8252600452602490fd5b5081548111611214565b503461041957602036600319011261041957611567612a18565b61156f61340a565b600480546001600160a01b039283166001600160a01b0319821681179092559091167ff33acd086c73d69e04f2e4229686ba85c89c0b969231ada8f6fbecd20f6c5e338380a380f35b5034610419576020366003190112610419576004356115d633613085565b15611737578015801561172d575b61153157808252600160205260ff600660408420015460a01c1661171b578082526001602052600160408320015442106116f057808252600160205260026040832001544210156116de57808252600260205260ff604083205416600781101561073c576116ab57808252600160208181526040808520600601805460ff60a01b1916600160a01b17905583855260029091528320805460ff191690911790557fe2046d333900871694b2fb421975b907ac5d93052201a0e259fa0664d9dbdf1d8280a280f35b90818152600260205260ff604082205416600781101561150b576064926350b8b89160e11b835260045260245280604452fd5b631bc7556760e11b8252600452602490fd5b9081606492825260016020526001604083200154906325bcf8af60e11b835260045242602452604452fd5b633488e62760e01b8252600452602490fd5b50815481116115e4565b635c427cd960e01b8252600482fd5b503461041957602036600319011261041957600435808252600260205260ff604083205416600781101561073c576005036117ad576004604083611795936117a9955260026020522001612f59565b604051918291602083526020830190612b44565b0390f35b60405162461bcd60e51b8152602060048201526015602482015274149859999b194e881b9bdd0818dbdb5c1b195d1959605a1b6044820152606490fd5b50346104195760203660031901126104195760043561180761340a565b600e546001600160a01b0316801561187857818392835260026020526003604084200154823b156118735760448492836040519586948593633570298360e01b8552600485015260248401525af180156114cc576118625750f35b8161186c91612c44565b6104195780f35b505050fd5b60405162461bcd60e51b815260206004820152601b60248201527f526166666c653a206469737472696275746f72206e6f742073657400000000006044820152606490fd5b50346104195760203660031901126104195760ff6006604060209360043581526001855220015460a01c166040519015158152f35b5034610419576020366003190112610419576005604060209260043580151580611931575b611920906131c9565b815260028452200154604051908152f35b508154811115611917565b503461041957604036600319011261041957604061196361195b612a2e565b600435613273565b82519182526020820152f35b50346104195760a0366003190112610419576004356001600160401b038111610b91576119a0903690600401612c8d565b6024356001600160401b038111610b8d576119bf903690600401612de0565b6119c76129e7565b906119d06129f8565b926084356001600160401b038111611a705736602382011215611a70578060040135906119fc82612db5565b96611a0a6040519889612c44565b8288526024602089019360051b83010191368311610b9157602401925b828410611a40576020610b7b8a8a8a8a8a610b886136ee565b602084360312610b915760208091604051611a5a81612c0e565b611a6387612a09565b8152815201930192611a27565b8580fd5b5034610419578060031936011261041957600a546040516001600160a01b039091168152602090f35b503461041957602036600319011261041957611ab7612a18565b611abf61340a565b6001600160a01b03168015611af857806001600160601b0360a01b600a541617600a556001600160601b0360a01b600954161760095580f35b63e6c4247b60e01b8252600482fd5b503461041957602036600319011261041957600a6040602092600435815260028452200154604051908152f35b5034610419576020366003190112610419577f7ef5114529a47294f95f6beb0f3b094a1365fd784c97c498bb697c0f0c7b66118152600560209081526040808320335f90815292529020546004359060ff1615611cf85780158015611cee575b61153157808252600160205260ff600660408420015460a01c161561151f57808252600160205260026040832001544210611cc257808252600260205260ff604083205416600781101561073c576001036114d757808252600160205260408220600501546001600160a01b0316803b15610b8d5760405163086afa1160e41b81528390818160048183875af180156114cc576114b7575050602060049160405192838092632168e9d360e21b82525afa90811561147a57839161148557508183526002602052600360408420015580825260016020526006604083200160ff60a01b198154169055808252600260205260408220600260ff19825416179055807fb8c1e571c612bf9e6c3c5d23593965ef3c951a26fcd26afc16e9397bef1329518380a261132e81614013565b808252600160205260408220600201546325bcf8af60e11b835260049190915242602452604452606490fd5b5081548111611b94565b63e2517d3f60e01b8252336004527f7ef5114529a47294f95f6beb0f3b094a1365fd784c97c498bb697c0f0c7b6611602452604482fd5b5034610419578060031936011261041957602063ffffffff600d5416604051908152f35b503461041957602036600319011261041957600435611d706134c8565b80151580611d9e575b611d82906131c9565b8152600160205260408120600601805460ff60a01b1916905580f35b508154811115611d79565b503461041957604036600319011261041957611dc3612a2e565b336001600160a01b03821603611ddf5761083290600435613f5d565b63334bd91960e11b8252600482fd5b503461041957806003193601126104195760206040517fc5e2433d0a3c75ef5e37c4e28ccd84092c7dcdc38a7fff2e2a116ad41013a6568152f35b503461146e57602036600319011261146e57600435611e466134c8565b611e4e6136ee565b80158015611f9a575b611f8857805f52600260205260405f2060ff8154166007811015611f7457600303611f615760068101546202a300810190818111611f4d57814210611f345750505f828152600160205260409020600501546001600160a01b0316803b1561146e575f8091600460405180948193632d03357160e01b83525af18015611f2957611f14575b50805460ff191660061790557fe1d2cc1e7c15ae3434766608243e38e53f1167f94a58aa2dace166116065c4a18280a2600160065580f35b611f219193505f90612c44565b5f915f611edc565b6040513d5f823e3d90fd5b83631376fef560e01b5f5260045260245260445260645ffd5b634e487b7160e01b5f52601160045260245ffd5b506315cedfe560e21b5f5260045260245ffd5b634e487b7160e01b5f52602160045260245ffd5b630c5687c760e21b5f5260045260245ffd5b505f548111611e57565b3461146e575f36600319011261146e576004546040516001600160a01b039091168152602090f35b3461146e57604036600319011261146e5761200a600435611feb612a2e565b90612005610828825f526005602052600160405f20015490565b613ed1565b005b3461146e57602036600319011261146e57602061202f61202a612a18565b613085565b6040519015158152f35b3461146e57602036600319011261146e576004356120556136ee565b801580156120cb575b611f8857805f52600260205260405f209060ff825416916007831015611f7457600483036120b057600701541561209f576120989061370e565b6001600655005b626deb4b60e21b5f5260045260245ffd5b506350b8b89160e11b5f52600452602452600460445260645ffd5b505f54811161205e565b3461146e576120e336612bad565b91906120ed613459565b815f52600160205261210b60ff600660405f20015460a01c16612fec565b815f52600160205260ff600660405f20015460b01c1680612369575b6122d2575b815f52600260205260405f209060018060a01b0381165f526008820160205260405f209081549461215d8187612fdf565b92600285019061216e838354612fdf565b91600382019160ff835416155f14612270576009880197885490600160401b82101561225c578561225797819660017fa579cf708fd91d80ae65ceb4a89d65267d82874519078a79355d57bc0ab6e24d948f965f516020614ce85f395f51905f529f610fb18f91926121e4938682018155613062565b016121ef8154613077565b905543600187810191909155815460ff1916179055604080516001600160a01b038c1681526020810192909252810191909152606090a25b8681556002439101555560405193849360018060a01b031697846040919493926060820195825260208201520152565b0390a3005b634e487b7160e01b5f52604160045260245ffd5b604080516001600160a01b0388168152602081018990529081018590525f516020614ce85f395f51905f529850612257955084935089907f82c0d288888ec0f9d844bf34a4d4182dbf7fbf6c4c86a0552f66ee572b69e7ae90606090a2612227565b60048054604051630d1bab4760e11b81529182018490526001600160a01b0383811660248401819052929160209183916044918391165afa908115611f29575f9161233a575b5015612324575061212c565b826307a50dcf60e01b5f5260045260245260445ffd5b61235c915060203d602011612362575b6123548183612c44565b810190613038565b85612318565b503d61234a565b506004546001600160a01b03161515612127565b3461146e57602036600319011261146e5760206108516004355f526005602052600160405f20015490565b3461146e57602036600319011261146e576123c1612a18565b6123c961340a565b600f80546001600160a01b039283166001600160a01b0319821681179092559091167fac543b986a69515bb21836de22f6210c6b869b42ea3a82bc841f939f1bddfbf95f80a3005b3461146e575f36600319011261146e5760206040517fbf233dd2aafeb4d50879c4aa5c81e96d92f6e6945c906a58f9f2d1c1631b4b268152f35b3461146e57604036600319011261146e576024356001600160401b03811161146e573660238201121561146e5780600401356001600160401b03811161146e573660248260051b8401011161146e576009546001600160a01b0316338190036124be5750602461200a9201600435613587565b63073e64fd60e21b5f523360045260245260445ffd5b3461146e575f36600319011261146e57602060405160038152f35b3461146e57602036600319011261146e5761265b6004355f61016060405161251681612bf2565b606081528260208201528260408201528260608201528260808201528260a08201528260c08201528260e08201528261010082015282610120820152826101408201520152805f52600160205260405f209060ff60066040519361257985612bf2565b61258281612eb9565b85526001810154602086015260028101546040860152600381015461ffff8116606087015261ffff8160101c16608087015260018060a01b039060201c1660a086015260018060a01b0360048201541660c086015260018060a01b0360058201541660e0860152015460018060a01b038116610100850152818160a01c161515610120850152818160a81c16151561014085015260b01c1615156101608301525f52600260205260405f2060ff81541690600181015490600360028201549101549161266660405196879660a0885260a0880190612a7c565b946020870190612b37565b6040850152606084015260808301520390f35b3461146e57602036600319011261146e5760043561269561340a565b601054816010557fc607a59719d9758af0d6f8498fd6fdddf5882209e612592a040d3b902c6439355f80a3005b3461146e575f36600319011261146e576020604051600a8152f35b3461146e57602036600319011261146e576004355f5260026020526020600260405f200154604051908152f35b3461146e57604036600319011261146e57600435612726612a2e565b5f91805f52600260205261273f600960405f2001612f59565b6001600160a01b03909216925f9291905b825184101561284857846001600160a01b0361276c8686612fcb565b5116146127ef575f8281526002602052604090206001916127e7916008016001600160a01b0361279c8888612fcb565b5116848060a01b03165f5260205260405f20906040516127bb81612bd7565b606060ff6003855495868552888101546020860152600281015460408601520154161515910152612fdf565b930192612750565b925060409391505b5f5260026020526008835f2001905f52602052611963825f20835161281b81612bd7565b606060ff600384549485855260018101546020860152600281015489860152015416151591015282612fdf565b925060409391506127f7565b3461146e57602036600319011261146e5761286d612a18565b61287561340a565b6001600160a01b0316801561289b576001600160601b0360a01b600e541617600e555f80f35b63e6c4247b60e01b5f5260045ffd5b3461146e57602036600319011261146e5760043561ffff811680820361146e576128d261340a565b61271081116128fd5750600e805461ffff60a01b191660a09290921b61ffff60a01b16919091179055005b630cbf8cb160e11b5f5260045260245ffd5b3461146e575f36600319011261146e576040517f00000000000000000000000000000000000000000000000000000000000000006001600160a01b03168152602090f35b3461146e575f36600319011261146e57602061ffff600e5460a01c16604051908152f35b3461146e575f36600319011261146e576020600b54604051908152f35b3461146e57602036600319011261146e576004359063ffffffff60e01b821680920361146e57602091637965db0b60e01b81149081156129d6575b5015158152f35b6301ffc9a760e01b149050836129cf565b6044359061ffff8216820361146e57565b6064359061ffff8216820361146e57565b359061ffff8216820361146e57565b600435906001600160a01b038216820361146e57565b602435906001600160a01b038216820361146e57565b35906001600160a01b038216820361146e57565b805180835260209291819084018484015e5f828201840152601f01601f1916010190565b9061016080612a9684516101808552610180850190612a58565b93602081015160208501526040810151604085015261ffff606082015116606085015261ffff608082015116608085015260018060a01b0360a08201511660a085015260018060a01b0360c08201511660c085015260018060a01b0360e08201511660e085015260018060a01b0361010082015116610100850152610120810151151561012085015261014081015115156101408501520151151591015290565b906007821015611f745752565b90602080835192838152019201905f5b818110612b615750505090565b82516001600160a01b0316845260209384019390920191600101612b54565b3461146e57602036600319011261146e576004355f5260026020526117a9611795600960405f2001612f59565b606090600319011261146e57600435906024356001600160a01b038116810361146e579060443590565b608081019081106001600160401b0382111761225c57604052565b61018081019081106001600160401b0382111761225c57604052565b602081019081106001600160401b0382111761225c57604052565b60c081019081106001600160401b0382111761225c57604052565b90601f801991011681019081106001600160401b0382111761225c57604052565b6001600160401b03811161225c57601f01601f191660200190565b3590811515820361146e57565b91906101808382031261146e5760405190612ca782612bf2565b819380356001600160401b03811161146e57810182601f8201121561146e57803591612cd283612c65565b93612ce06040519586612c44565b8385526020848401011161146e57610160935f602085612db09682899701838601378301015285526020810135602086015260408101356040860152612d2860608201612a09565b6060860152612d3960808201612a09565b6080860152612d4a60a08201612a44565b60a0860152612d5b60c08201612a44565b60c0860152612d6c60e08201612a44565b60e0860152612d7e6101008201612a44565b610100860152612d916101208201612c80565b610120860152612da46101408201612c80565b61014086015201612c80565b910152565b6001600160401b03811161225c5760051b60200190565b35906001600160801b038216820361146e57565b81601f8201121561146e57803590612df782612db5565b92612e056040519485612c44565b82845260208085019360061b8301019181831161146e57602001925b828410612e2f575050505090565b60408483031261146e576040519060408201908282106001600160401b0383111761225c576040926020928452612e6587612dcc565b8152612e72838801612dcc565b83820152815201930192612e21565b90600182811c92168015612eaf575b6020831014612e9b57565b634e487b7160e01b5f52602260045260245ffd5b91607f1691612e90565b9060405191825f825492612ecc84612e81565b8084529360018116908115612f375750600114612ef3575b50612ef192500383612c44565b565b90505f9291925260205f20905f915b818310612f1b575050906020612ef1928201015f612ee4565b6020919350806001915483858901015201910190918492612f02565b905060209250612ef194915060ff191682840152151560051b8201015f612ee4565b90604051918281549182825260208201905f5260205f20925f5b818110612f88575050612ef192500383612c44565b84546001600160a01b0316835260019485019487945060209093019201612f73565b805115612fb75760200190565b634e487b7160e01b5f52603260045260245ffd5b8051821015612fb75760209160051b010190565b91908201809211611f4d57565b15612ff357565b60405162461bcd60e51b815260206004820152601760248201527f526166666c653a20736561736f6e20696e6163746976650000000000000000006044820152606490fd5b9081602091031261146e5751801515810361146e5790565b805415612fb7575f5260205f20905f90565b8054821015612fb7575f5260205f2001905f90565b5f198114611f4d5760010190565b6001600160a01b0381165f9081527fd56ce40da2f8e4ce89407c5b8f94ad55d87937ba4f5ffc9301e2771bef9f0d03602052604090205460ff166131c357600f546001600160a01b0316801515806131b8575b6130e25750505f90565b6010546040516321a9204d60e11b81526001600160a01b03841660048201526024810182905291602083604481845afa928315611f29575f93613197575b508261312e575b5050905090565b604051631528609b60e21b81526001600160a01b03949094166004850152602484019190915260209150829060449082905afa908115611f29575f91613178575b50805f80613127565b613191915060203d602011612362576123548183612c44565b5f61316f565b6131b191935060203d602011612362576123548183612c44565b915f613120565b5060105415156130d8565b50600190565b156131d057565b60405162461bcd60e51b81526020600482015260116024820152702930b33336329d1037379039b2b0b9b7b760791b6044820152606490fd5b60e060a06132639360208452805160208501526020810151604085015261ffff604082015116606085015263ffffffff606082015116608085015263ffffffff6080820151168285015201519160c0808201520190612a58565b90565b91908203918211611f4d57565b5f52600260205260405f20600881019160018060a01b0381165f528260205260ff600360405f200154161561332f5760019291929160095f94018054935b8486106132c4575050505050505f905f90565b6132ce8683613062565b90546001600160a01b0360039290921b1c81165f8181526020869052604090209186161461330c57600191613304915490612fdf565b9501946132b1565b9350959450505061331f91505483612fdf565b5f19810192908311611f4d579190565b5050505f905f90565b805f526002602052600460405f20015461335157505f90565b5f526002602052613367600460405f2001613050565b905460039190911b1c6001600160a01b031690565b8015611f4d575f190190565b1561338f57565b60405162461bcd60e51b815260206004820152601860248201527f526166666c653a206e6f7420646973747269627574696e6700000000000000006044820152606490fd5b5f54805b6133e157505f90565b805f52600160205260ff600660405f20015460a01c16613263576134049061337c565b806133d8565b335f9081527f05b8ccbb9d4d8fb16ea74ce3c29a41f1b461fbdaff4714a0d9a8eb05499746bc602052604090205460ff161561344257565b63e2517d3f60e01b5f52336004525f60245260445ffd5b335f9081527f3194543997e30ee1cba2eab5e1e091ac29a86efc163cf6c9547387b11178f833602052604090205460ff161561349157565b63e2517d3f60e01b5f52336004527fc5e2433d0a3c75ef5e37c4e28ccd84092c7dcdc38a7fff2e2a116ad41013a65660245260445ffd5b335f9081527ffbc93671eda18a3103415c6de11b46be272fd03129c33970fab0bfd26d35c8a0602052604090205460ff161561350057565b63e2517d3f60e01b5f52336004527fbf233dd2aafeb4d50879c4aa5c81e96d92f6e6945c906a58f9f2d1c1631b4b2660245260445ffd5b5f81815260056020908152604080832033845290915290205460ff161561355b5750565b63e2517d3f60e01b5f523360045260245260445ffd5b81811061357c575050565b5f8155600101613571565b92835f52600360205260405f205480156136db57805f52600260205260ff60405f2054166007811015611f74576006146136d457805f52600260205260ff60405f2054166007811015611f74576003036136a057805f52600260205260405f2094600786019586545f885580613686575b505f5b8681101561364357875490600160401b82101561225c576136238260018094018b558a613062565b81549060031b908360051b8a0135821b915f19901b1916179055016135fb565b50805460ff1916600417905591945061368393509150817f41c9b09716a74f8a100ce1159febf82ab674e27ff67c16f4fed74d6fc1c628695f80a361487a565b50565b61369a90885f5260205f2090810190613571565b5f6135f8565b805f52600260205260ff60405f205416906007821015611f74576350b8b89160e11b5f52600452602452600360445260645ffd5b5092505050565b84631417ac4f60e21b5f5260045260245ffd5b6002600654146136ff576002600655565b633ee5aeb560e01b5f5260045ffd5b5f815f52600260205260405f20825f52600160205260405f206003820154600382019061ffff82541660078501906040519182602082549182815201915f5260205f20905f5b818110613dea575050509061376f8361377594930383612c44565b866149c8565b91600485018351906001600160401b03821161225c57600160401b821161225c578054828255808310613dce575b5060208501905f5260205f205f5b838110613db15750505050867f5fa006001f7473b386c7bb4db093cb973ce5c895e51c3813bdbd723097d0349e60405160208152806137f36020820188612b44565b0390a2600e546001600160a01b031615613da257600185018054158015613d99575b8015613d91575b613d0b5754905460101c61ffff1680613d02575061ffff80600e5460a01c165b1661271081116128fd57808302908382041483151715611f4d5761271090046138658184613266565b60018314613cf9575b845115613cf3576001600160a01b0361388686612faa565b51165b6001600160a01b03168015613ce45760058701546001600160a01b031693841561289b57600e546001600160a01b031690813b1561146e575f60c4928d9282966040519889978896633d1a5f4560e11b8852600488015260018060a01b037f000000000000000000000000000000000000000000000000000000000000000016602488015260448701526064860152608485015260a48401525af18015611f2957613ccf575b50600e546001600160a01b0316813b15613c8357604051633c420b8960e01b81526001600160a01b03919091166004820152602481018390529086908290604490829084905af18015613c8b57908691613cb6575b5050600e546001600160a01b031690813b15611a70578591604483926040519485938492633570298360e01b84528c600485015260248401525af18015613cab57908591613c96575b5050600e546040516318b8aafd60e21b8152600481018790526001600160a01b03909116908581602481855afa908115613c8b5790869392918491613bad575b5051151580613ba3575b613b03575b5050600e546001600160a01b03169050803b15613aff5783809160246040518094819363b5dbc2f960e01b83528a60048401525af18015613af457613adf575b50600601805460ff60a81b1916600160a81b179055805460ff19166005179055600e546040516001600160a01b039190911681527fc48a6bc3c0c009e1f8ccd8bca8aeee55410aaf210eec6e5e0cba85a3708bfb2b919083907f42ffdc40c5f007722e9a55cd5189a3970d893c660e7f064530bf5e7d3d3d061190602090a280a2565b613aea848092612c44565b610b8d575f613a5c565b6040513d86823e3d90fd5b8380fd5b829182604051613b4481613b366020820195632822c9ab60e21b87528d6024840152604060448401526064830190612b44565b03601f198101835282612c44565b51925af1613b5061484b565b5015613b5e57825f80613a1c565b60405162461bcd60e51b815260206004820152601f60248201527f526166666c653a2073657420746965722077696e6e657273206661696c6564006044820152606490fd5b5081511515613a17565b91929350503d8087833e613bc18183612c44565b810190602081830312613c83578051906001600160401b038211613c87570181601f82011215613c83578051613bf681612db5565b92613c046040519485612c44565b81845260208085019260051b84010192818411613c7f579060208a97969594939201915b838310613c3957505050505f613a0d565b9091929394959650602083830312613c7f57604051613c5781612c0e565b835161ffff81168103613c7b57815281528996959493926020908101929101613c28565b8b80fd5b8980fd5b8680fd5b8780fd5b6040513d88823e3d90fd5b81613ca091612c44565b613aff57835f6139cd565b6040513d87823e3d90fd5b81613cc091612c44565b613ccb57845f613984565b8480fd5b613cdc9196505f90612c44565b5f945f61392f565b63992667eb60e01b5f5260045ffd5b5f613889565b5050815f61386e565b61ffff9061383c565b50505050600601805460ff60a81b1916600160a81b179055805460ff1916600517905550600e546040516001600160a01b0391909116815281907f42ffdc40c5f007722e9a55cd5189a3970d893c660e7f064530bf5e7d3d3d061190602090a27fc48a6bc3c0c009e1f8ccd8bca8aeee55410aaf210eec6e5e0cba85a3708bfb2b5f80a2565b50821561381c565b50835115613815565b6312df801960e01b5f5260045ffd5b82516001600160a01b0316818301556020909201916001016137b1565b613de490825f528360205f209182019101613571565b5f6137a3565b8254845260209093019260019283019201613754565b6001600160a01b0381165f9081527f3194543997e30ee1cba2eab5e1e091ac29a86efc163cf6c9547387b11178f833602052604090205460ff16613ecc576001600160a01b03165f8181527f3194543997e30ee1cba2eab5e1e091ac29a86efc163cf6c9547387b11178f83360205260408120805460ff191660011790553391907fc5e2433d0a3c75ef5e37c4e28ccd84092c7dcdc38a7fff2e2a116ad41013a656907f2f8788117e7eff1d82e926ec794901d17c78024a50270940304540a733656f0d9080a4600190565b505f90565b5f8181526005602090815260408083206001600160a01b038616845290915290205460ff16613f57575f8181526005602090815260408083206001600160a01b0395909516808452949091528120805460ff19166001179055339291907f2f8788117e7eff1d82e926ec794901d17c78024a50270940304540a733656f0d9080a4600190565b50505f90565b5f8181526005602090815260408083206001600160a01b038616845290915290205460ff1615613f57575f8181526005602090815260408083206001600160a01b0395909516808452949091528120805460ff19169055339291907ff6391f5c32d9c69d2a47ea670b442974b53935d1edc7fd64eb21e047a839171b9080a4600190565b90613feb82612db5565b613ff86040519182612c44565b8281528092614009601f1991612db5565b0190602036910137565b805f52600260205260405f209061402c60098301612f59565b906140378251613fe1565b9160088401915f5b8251811015614082576001906001600160a01b0361405d8286612fcb565b5116828060a01b03165f528460205260405f205461407b8288612fcb565b520161403f565b509392909150604051906140a26020830193604085526060840190612b44565b601f19838203016040840152602080835192838152019201905f5b818110614113575050509260209282614102600a947f933c4129170e8c30428bb1e2cbd6b6b75a44cc93e1ea265eae7cc9c23919c07e9703601f198101835282612c44565b5190209182910155604051908152a2565b82518452602093840193909201916001016140bd565b6040519063125fa26760e31b6020830152511515602482015260248152613263604482612c44565b51906001600160a01b038216820361146e57565b91949390929461417433613085565b156147ca57600d5460201c6001600160a01b031680156147bb57835151156147ac57602084015142811115614796575060408401516020850151908181111561478157505061ffff60808501511661271081116128fd575060a08401516001600160a01b03161561477257845115614763578251614710575b61ffff606085015116156146fd5761ffff606085015116600a81116146eb575061421b5f9792959754613077565b94855f558597604051938492635e2d40eb60e01b845288600485015260a0602485015261424b60a4850189612a7c565b600319858203016044860152602080855192838152019401905f5b8181106146ba57505050836040959361ffff8294815f9516606485015216608483015203925af1908115611f29575f905f92614672575b5060018060a01b0316918260c085015260018060a01b03821660e0850152336101008501525f6101208501525f610140850152845f52600160205260405f2084518051906001600160401b03821161225c576142f98354612e81565b601f8111614637575b50602090601f83116001146145cf5760069392915f91836145c4575b50508160011b915f199060031b1c19161781555b6020868101516001830155604080880151600280850191909155606089015160038501805460808c015160a0808e01516001600160c01b031990931661ffff959095169490941760109190911b63ffff0000161790861b640100000000600160c01b031617905560c08a01516004860180546001600160a01b03199081166001600160a01b039384161790915560e08c01516005880180549092169083161790556101008b01519690950180546101208c01516101408d01516101608e01516001600160b81b0319909316999098169890981797151590921b60ff60a01b169690961794151560a81b60ff60a81b169490941793151560b01b60ff60b01b16939093179093555f88815291905220805460ff1916905561445182613e00565b5080511515806145b0575b6144cf575b5090826144aa927f6ccf5008c3cde5e448bfdbb6a25201ac5552f0207195efaa353b8ccc20ec105e9451926040602084015193015160405195869560a0875260a0870190612a58565b6020860194909452604085015260608401526001600160a01b031660808301520390a2565b6040929192519060208201906340d9553360e11b8252606483018760248501526040604485015281518091526020608485019201905f5b81811061459557505050915f929161452882859403601f198101845283612c44565b600e5491519183906001600160a01b03165af161454361484b565b501561455057905f614461565b60405162461bcd60e51b815260206004820152601a60248201527f526166666c653a207469657220636f6e666967206661696c65640000000000006044820152606490fd5b82515161ffff16845260209384019390920191600101614506565b50600e546001600160a01b0316151561445c565b015190505f8061431e565b90835f52805f20915f5b601f198516811061461f575091839160019360069695601f19811610614607575b505050811b018155614332565b01515f1960f88460031b161c191690555f80806145fa565b919260206001819286850151815501940192016145d9565b61466290845f5260205f20601f850160051c81019160208610614668575b601f0160051c0190613571565b5f614302565b9091508190614655565b9150506040813d6040116146b2575b8161468e60409383612c44565b8101031261146e576146ab60206146a483614151565b9201614151565b905f61429d565b3d9150614681565b825180516001600160801b039081168852602091820151168188015289975060409096019590920191600101614266565b639530143560e01b5f5260045260245ffd5b639530143560e01b5f525f60045260245ffd5b95925f959294915f965b865188101561474b5761ffff806147318a8a612fcb565b51511691160161ffff8111611f4d5760019097019661471a565b61ffff919396949750979194971660608501526141ed565b632ff1761160e21b5f5260045ffd5b63cfe2ea6360e01b5f5260045ffd5b63f880c23960e01b5f5260045260245260445ffd5b6364bb3b8360e11b5f526004524260245260445ffd5b63575514a960e11b5f5260045ffd5b6329f7dfeb60e21b5f5260045ffd5b635c427cd960e01b5f5260045ffd5b5f60443d10613263576040513d600319016004823e8051913d60248401116001600160401b0384111761484557828201928351916001600160401b03831161483d573d8401600319018584016020011161483d575061326392910160200190612c44565b949350505050565b92915050565b3d15614875573d9061485c82612c65565b9161486a6040519384612c44565b82523d5f602084013e565b606090565b5f90303b1561146e57604051639cfea25360e01b8152600481018290525f8160248183305af19081614995575b50614963578160033d11614953575b6308c379a014614907575b7ff9431bad44a1ee2788f4a43142150f552534b92dcdf087874c182d19b0792b5f6149016148ed61484b565b604051918291602083526020830190612a58565b0390a290565b61490f6147d9565b8061491a57506148c1565b6149017fb70ad4955334f7f9fa2b6322ff21867a384419c6870275b0a2fe8c511fdfe50391604051918291602083526020830190612a58565b50600482803e815160e01c6148b6565b90507f23b52568e031c9ec6ecacbd69250684ab7d8e76f078ad907633d383c0f54b994602060405160018152a2600190565b6149a29193505f90612c44565b5f915f6148a7565b81156149b4570690565b634e487b7160e01b5f52601260045260245ffd5b9092919260028201549384158015614cdb575b8015614ccf575b614cb257600983019182549060018214614c6a576149ff82613fe1565b945f805b848210614c1d5750505061ffff1681811115614c17575080915b614a2683613fe1565b96614a3083612db5565b95614a3e6040519788612c44565b838752601f19614a4d85612db5565b013660208901375f965f5b868110614aa9575050505050505050614a7081613fe1565b905f5b818110614a81575090925050565b6001906001600160a01b03614a968288612fcb565b5116614aa28286612fcb565b5201614a73565b614abd614ab78651836149aa565b86612fcb565b515f855f925b6014841115614ad9575b50505050600101614a58565b90614ae3916149aa565b60018101809111611f4d575f9086515b808310614bba5750508d89821080614ba8575b614b5d575050614b1590613077565b614b55614b2c614b268951866149aa565b89612fcb565b516040516020810191825283604082015260408152614b4c606082612c44565b51902092613077565b918690614ac3565b614b9e93508c925081614b9891614b916001979f8f8996614b7d91613062565b878060a01b0391549060031b1c1692612fcb565b5286612fcb565b52613077565b98905f8581614acd565b50614bb38287612fcb565b5115614b06565b90919b9e96989b614bd5959e949d9a96989b93958282612fdf565b60011c9083614be4838d612fcb565b511015614c0e575060018101809111611f4d57915b909e9b98969e9d94929a9795999c939d614af3565b92915090614bf9565b91614a1d565b614c56600191614c2d848a613062565b848060a01b0391549060031b1c16838060a01b03165f526008850160205260405f205490612fdf565b9182614c62828b612fcb565b520190614a03565b50505091925050614c9360405191614c83604084612c44565b6001835260203681850137613050565b905460039190911b1c6001600160a01b0316614cae82612faa565b5290565b5050509050604051614cc5602082612c44565b5f81525f36813790565b5061ffff8216156149e2565b506009830154156149db56fe7efd340bbdce3a2eb491d9d6cbf0c02bacdfbf9656316aa37c8bf0e856c9f8f62f8788117e7eff1d82e926ec794901d17c78024a50270940304540a733656f0dd56ce40da2f8e4ce89407c5b8f94ad55d87937ba4f5ffc9301e2771bef9f0d03fbc93671eda18a3103415c6de11b46be272fd03129c33970fab0bfd26d35c8a005b8ccbb9d4d8fb16ea74ce3c29a41f1b461fbdaff4714a0d9a8eb05499746bc","linkReferences":{}},"methodIdentifiers":{"BONDING_CURVE_ROLE()":"354443a0","DEFAULT_ADMIN_ROLE()":"a217fddf","EMERGENCY_ROLE()":"20df4359","MAX_WINNER_COUNT()":"19424e51","SEASON_CREATOR_ROLE()":"98f0e3e9","VRF_REQUEST_CONFIRMATIONS()":"1e27580e","VRF_TIMEOUT()":"f4d1c5f6","_executeFinalizationExternal(uint256)":"9cfea253","acceptOwnership()":"79ba5097","canCreateSeason(address)":"27c02f5a","cancelStuckSeason(uint256)":"33e02566","completeSeasonManually(uint256)":"e59eee38","createSeason((string,uint256,uint256,uint16,uint16,address,address,address,address,bool,bool,bool),(uint128,uint128)[],uint16,uint16)":"ac5729b4","createSeasonWithTiers((string,uint256,uint256,uint16,uint16,address,address,address,address,bool,bool,bool),(uint128,uint128)[],uint16,uint16,(uint16)[])":"4d861354","currentSeasonId()":"dc293382","defaultGrandPrizeBps()":"05274b02","finalizeSeason(uint256)":"274435cc","fundPrizeDistributor(uint256)":"6667bf43","gatingContract()":"32847b47","getCoordinatorAddress()":"48144bc6","getCurrentSeason()":"d3b30b75","getFinalPlayerPosition(uint256,address)":"cd1c41ea","getNumberRange(uint256,address)":"17077a3b","getParticipantNumberRange(uint256,address)":"593d03a0","getParticipantPosition(uint256,address)":"f1412d94","getParticipants(uint256)":"c1e3bd3e","getPlayerList(uint256)":"200ad21b","getRoleAdmin(bytes32)":"248a9ca3","getSeasonDetails(uint256)":"1c30c76b","getSeasonSnapshot(uint256)":"41f1e982","getSeasonWinner(uint256)":"7793d7dd","getTotalTickets(uint256)":"18906287","getVrfRequestForSeason(uint256)":"5b9180d5","getWinners(uint256)":"6b1426a4","grantRole(bytes32,address)":"2f2ff15d","hasRole(bytes32,address)":"91d14854","hatsProtocol()":"c049098f","isSeasonActive(uint256)":"6044f7e2","owner()":"8da5cb5b","pauseSeason(uint256)":"3aa4159e","prizeDistributor()":"d00d23e3","rawFulfillRandomWords(uint256,uint256[])":"1fe543e3","recordParticipant(uint256,address,uint256)":"26182e7b","removeParticipant(uint256,address,uint256)":"8d12036c","renounceRole(bytes32,address)":"36568abe","requestSeasonEnd(uint256)":"3e81d1ca","requestSeasonEndEarly(uint256)":"76ec73c2","revokeRole(bytes32,address)":"d547741f","s_vrfCoordinator()":"9eccacf6","seasonFactory()":"d1248d27","seasonStates(uint256)":"d6769d42","seasons(uint256)":"f5d709a1","setCoordinator(address)":"8ea98117","setDefaultGrandPrizeBps(uint16)":"0da6f7a1","setGatingContract(address)":"740a901f","setHatsProtocol(address)":"24674429","setPrizeDistributor(address)":"1677d468","setSeasonFactory(address)":"b924c140","setSponsorHat(uint256)":"1a9e6d5c","setVRFCoordinator(address)":"44ff81ce","setupPrizeDistributionManually(uint256)":"d0727913","sofToken()":"06f6fc13","sponsorHatId()":"ef4bf354","startSeason(uint256)":"703dbfe4","supportsInterface(bytes4)":"01ffc9a7","transferOwnership(address)":"f2fde38b","updateVRFConfig(uint64,bytes32,uint32)":"8df48e66","vrfCallbackGasLimit()":"3b7ed734","vrfKeyHash()":"041d443e","vrfRequestToSeason(uint256)":"b71d1627","vrfSubscriptionId()":"ed647d21"},"id":86}