{"abi":[{"type":"constructor","inputs":[{"name":"_sofToken","type":"address","internalType":"address"},{"name":"_vrfCoordinator","type":"address","internalType":"address"},{"name":"_vrfSubscriptionId","type":"uint256","internalType":"uint256"},{"name":"_vrfKeyHash","type":"bytes32","internalType":"bytes32"}],"stateMutability":"nonpayable"},{"type":"function","name":"BONDING_CURVE_ROLE","inputs":[],"outputs":[{"name":"","type":"bytes32","internalType":"bytes32"}],"stateMutability":"view"},{"type":"function","name":"DEFAULT_ADMIN_ROLE","inputs":[],"outputs":[{"name":"","type":"bytes32","internalType":"bytes32"}],"stateMutability":"view"},{"type":"function","name":"EMERGENCY_ROLE","inputs":[],"outputs":[{"name":"","type":"bytes32","internalType":"bytes32"}],"stateMutability":"view"},{"type":"function","name":"SEASON_CREATOR_ROLE","inputs":[],"outputs":[{"name":"","type":"bytes32","internalType":"bytes32"}],"stateMutability":"view"},{"type":"function","name":"VRF_REQUEST_CONFIRMATIONS","inputs":[],"outputs":[{"name":"","type":"uint16","internalType":"uint16"}],"stateMutability":"view"},{"type":"function","name":"_executeFinalizationExternal","inputs":[{"name":"seasonId","type":"uint256","internalType":"uint256"}],"outputs":[],"stateMutability":"nonpayable"},{"type":"function","name":"acceptOwnership","inputs":[],"outputs":[],"stateMutability":"nonpayable"},{"type":"function","name":"canCreateSeason","inputs":[{"name":"account","type":"address","internalType":"address"}],"outputs":[{"name":"","type":"bool","internalType":"bool"}],"stateMutability":"view"},{"type":"function","name":"completeSeasonManually","inputs":[{"name":"seasonId","type":"uint256","internalType":"uint256"}],"outputs":[],"stateMutability":"nonpayable"},{"type":"function","name":"createSeason","inputs":[{"name":"config","type":"tuple","internalType":"struct RaffleTypes.SeasonConfig","components":[{"name":"name","type":"string","internalType":"string"},{"name":"startTime","type":"uint256","internalType":"uint256"},{"name":"endTime","type":"uint256","internalType":"uint256"},{"name":"winnerCount","type":"uint16","internalType":"uint16"},{"name":"grandPrizeBps","type":"uint16","internalType":"uint16"},{"name":"treasuryAddress","type":"address","internalType":"address"},{"name":"raffleToken","type":"address","internalType":"address"},{"name":"bondingCurve","type":"address","internalType":"address"},{"name":"sponsor","type":"address","internalType":"address"},{"name":"isActive","type":"bool","internalType":"bool"},{"name":"isCompleted","type":"bool","internalType":"bool"},{"name":"gated","type":"bool","internalType":"bool"}]},{"name":"bondSteps","type":"tuple[]","internalType":"struct RaffleTypes.BondStep[]","components":[{"name":"rangeTo","type":"uint128","internalType":"uint128"},{"name":"price","type":"uint128","internalType":"uint128"}]},{"name":"buyFeeBps","type":"uint16","internalType":"uint16"},{"name":"sellFeeBps","type":"uint16","internalType":"uint16"}],"outputs":[{"name":"seasonId","type":"uint256","internalType":"uint256"}],"stateMutability":"nonpayable"},{"type":"function","name":"currentSeasonId","inputs":[],"outputs":[{"name":"","type":"uint256","internalType":"uint256"}],"stateMutability":"view"},{"type":"function","name":"defaultGrandPrizeBps","inputs":[],"outputs":[{"name":"","type":"uint16","internalType":"uint16"}],"stateMutability":"view"},{"type":"function","name":"finalizeSeason","inputs":[{"name":"seasonId","type":"uint256","internalType":"uint256"}],"outputs":[],"stateMutability":"nonpayable"},{"type":"function","name":"fundPrizeDistributor","inputs":[{"name":"seasonId","type":"uint256","internalType":"uint256"}],"outputs":[],"stateMutability":"nonpayable"},{"type":"function","name":"gatingContract","inputs":[],"outputs":[{"name":"","type":"address","internalType":"address"}],"stateMutability":"view"},{"type":"function","name":"getCoordinatorAddress","inputs":[],"outputs":[{"name":"","type":"address","internalType":"address"}],"stateMutability":"view"},{"type":"function","name":"getCurrentSeason","inputs":[],"outputs":[{"name":"","type":"uint256","internalType":"uint256"}],"stateMutability":"view"},{"type":"function","name":"getFinalPlayerPosition","inputs":[{"name":"seasonId","type":"uint256","internalType":"uint256"},{"name":"player","type":"address","internalType":"address"}],"outputs":[{"name":"","type":"uint256","internalType":"uint256"}],"stateMutability":"view"},{"type":"function","name":"getNumberRange","inputs":[{"name":"seasonId","type":"uint256","internalType":"uint256"},{"name":"player","type":"address","internalType":"address"}],"outputs":[{"name":"startRange","type":"uint256","internalType":"uint256"},{"name":"endRange","type":"uint256","internalType":"uint256"}],"stateMutability":"view"},{"type":"function","name":"getParticipantNumberRange","inputs":[{"name":"seasonId","type":"uint256","internalType":"uint256"},{"name":"participant","type":"address","internalType":"address"}],"outputs":[{"name":"start","type":"uint256","internalType":"uint256"},{"name":"end","type":"uint256","internalType":"uint256"}],"stateMutability":"view"},{"type":"function","name":"getParticipantPosition","inputs":[{"name":"seasonId","type":"uint256","internalType":"uint256"},{"name":"participant","type":"address","internalType":"address"}],"outputs":[{"name":"position","type":"tuple","internalType":"struct RaffleStorage.ParticipantPosition","components":[{"name":"ticketCount","type":"uint256","internalType":"uint256"},{"name":"entryBlock","type":"uint256","internalType":"uint256"},{"name":"lastUpdateBlock","type":"uint256","internalType":"uint256"},{"name":"isActive","type":"bool","internalType":"bool"}]}],"stateMutability":"view"},{"type":"function","name":"getParticipants","inputs":[{"name":"seasonId","type":"uint256","internalType":"uint256"}],"outputs":[{"name":"","type":"address[]","internalType":"address[]"}],"stateMutability":"view"},{"type":"function","name":"getPlayerList","inputs":[{"name":"seasonId","type":"uint256","internalType":"uint256"}],"outputs":[{"name":"","type":"address[]","internalType":"address[]"}],"stateMutability":"view"},{"type":"function","name":"getRoleAdmin","inputs":[{"name":"role","type":"bytes32","internalType":"bytes32"}],"outputs":[{"name":"","type":"bytes32","internalType":"bytes32"}],"stateMutability":"view"},{"type":"function","name":"getSeasonDetails","inputs":[{"name":"seasonId","type":"uint256","internalType":"uint256"}],"outputs":[{"name":"config","type":"tuple","internalType":"struct RaffleTypes.SeasonConfig","components":[{"name":"name","type":"string","internalType":"string"},{"name":"startTime","type":"uint256","internalType":"uint256"},{"name":"endTime","type":"uint256","internalType":"uint256"},{"name":"winnerCount","type":"uint16","internalType":"uint16"},{"name":"grandPrizeBps","type":"uint16","internalType":"uint16"},{"name":"treasuryAddress","type":"address","internalType":"address"},{"name":"raffleToken","type":"address","internalType":"address"},{"name":"bondingCurve","type":"address","internalType":"address"},{"name":"sponsor","type":"address","internalType":"address"},{"name":"isActive","type":"bool","internalType":"bool"},{"name":"isCompleted","type":"bool","internalType":"bool"},{"name":"gated","type":"bool","internalType":"bool"}]},{"name":"status","type":"uint8","internalType":"enum RaffleStorage.SeasonStatus"},{"name":"totalParticipants","type":"uint256","internalType":"uint256"},{"name":"totalTickets","type":"uint256","internalType":"uint256"},{"name":"totalPrizePool","type":"uint256","internalType":"uint256"}],"stateMutability":"view"},{"type":"function","name":"getSeasonWinner","inputs":[{"name":"seasonId","type":"uint256","internalType":"uint256"}],"outputs":[{"name":"","type":"address","internalType":"address"}],"stateMutability":"view"},{"type":"function","name":"getTotalTickets","inputs":[{"name":"seasonId","type":"uint256","internalType":"uint256"}],"outputs":[{"name":"","type":"uint256","internalType":"uint256"}],"stateMutability":"view"},{"type":"function","name":"getVrfRequestForSeason","inputs":[{"name":"seasonId","type":"uint256","internalType":"uint256"}],"outputs":[{"name":"","type":"uint256","internalType":"uint256"}],"stateMutability":"view"},{"type":"function","name":"getWinners","inputs":[{"name":"seasonId","type":"uint256","internalType":"uint256"}],"outputs":[{"name":"","type":"address[]","internalType":"address[]"}],"stateMutability":"view"},{"type":"function","name":"grantRole","inputs":[{"name":"role","type":"bytes32","internalType":"bytes32"},{"name":"account","type":"address","internalType":"address"}],"outputs":[],"stateMutability":"nonpayable"},{"type":"function","name":"hasRole","inputs":[{"name":"role","type":"bytes32","internalType":"bytes32"},{"name":"account","type":"address","internalType":"address"}],"outputs":[{"name":"","type":"bool","internalType":"bool"}],"stateMutability":"view"},{"type":"function","name":"hatsProtocol","inputs":[],"outputs":[{"name":"","type":"address","internalType":"contract IHats"}],"stateMutability":"view"},{"type":"function","name":"isSeasonActive","inputs":[{"name":"seasonId","type":"uint256","internalType":"uint256"}],"outputs":[{"name":"","type":"bool","internalType":"bool"}],"stateMutability":"view"},{"type":"function","name":"owner","inputs":[],"outputs":[{"name":"","type":"address","internalType":"address"}],"stateMutability":"view"},{"type":"function","name":"pauseSeason","inputs":[{"name":"seasonId","type":"uint256","internalType":"uint256"}],"outputs":[],"stateMutability":"nonpayable"},{"type":"function","name":"prizeDistributor","inputs":[],"outputs":[{"name":"","type":"address","internalType":"address"}],"stateMutability":"view"},{"type":"function","name":"rawFulfillRandomWords","inputs":[{"name":"requestId","type":"uint256","internalType":"uint256"},{"name":"randomWords","type":"uint256[]","internalType":"uint256[]"}],"outputs":[],"stateMutability":"nonpayable"},{"type":"function","name":"recordParticipant","inputs":[{"name":"seasonId","type":"uint256","internalType":"uint256"},{"name":"participant","type":"address","internalType":"address"},{"name":"ticketAmount","type":"uint256","internalType":"uint256"}],"outputs":[],"stateMutability":"nonpayable"},{"type":"function","name":"removeParticipant","inputs":[{"name":"seasonId","type":"uint256","internalType":"uint256"},{"name":"participant","type":"address","internalType":"address"},{"name":"ticketAmount","type":"uint256","internalType":"uint256"}],"outputs":[],"stateMutability":"nonpayable"},{"type":"function","name":"renounceRole","inputs":[{"name":"role","type":"bytes32","internalType":"bytes32"},{"name":"callerConfirmation","type":"address","internalType":"address"}],"outputs":[],"stateMutability":"nonpayable"},{"type":"function","name":"requestSeasonEnd","inputs":[{"name":"seasonId","type":"uint256","internalType":"uint256"}],"outputs":[],"stateMutability":"nonpayable"},{"type":"function","name":"requestSeasonEndEarly","inputs":[{"name":"seasonId","type":"uint256","internalType":"uint256"}],"outputs":[],"stateMutability":"nonpayable"},{"type":"function","name":"revokeRole","inputs":[{"name":"role","type":"bytes32","internalType":"bytes32"},{"name":"account","type":"address","internalType":"address"}],"outputs":[],"stateMutability":"nonpayable"},{"type":"function","name":"s_vrfCoordinator","inputs":[],"outputs":[{"name":"","type":"address","internalType":"contract IVRFCoordinatorV2Plus"}],"stateMutability":"view"},{"type":"function","name":"seasonFactory","inputs":[],"outputs":[{"name":"","type":"address","internalType":"contract ISeasonFactory"}],"stateMutability":"view"},{"type":"function","name":"seasonStates","inputs":[{"name":"","type":"uint256","internalType":"uint256"}],"outputs":[{"name":"status","type":"uint8","internalType":"enum RaffleStorage.SeasonStatus"},{"name":"totalParticipants","type":"uint256","internalType":"uint256"},{"name":"totalTickets","type":"uint256","internalType":"uint256"},{"name":"totalPrizePool","type":"uint256","internalType":"uint256"},{"name":"vrfRequestId","type":"uint256","internalType":"uint256"}],"stateMutability":"view"},{"type":"function","name":"seasons","inputs":[{"name":"","type":"uint256","internalType":"uint256"}],"outputs":[{"name":"name","type":"string","internalType":"string"},{"name":"startTime","type":"uint256","internalType":"uint256"},{"name":"endTime","type":"uint256","internalType":"uint256"},{"name":"winnerCount","type":"uint16","internalType":"uint16"},{"name":"grandPrizeBps","type":"uint16","internalType":"uint16"},{"name":"treasuryAddress","type":"address","internalType":"address"},{"name":"raffleToken","type":"address","internalType":"address"},{"name":"bondingCurve","type":"address","internalType":"address"},{"name":"sponsor","type":"address","internalType":"address"},{"name":"isActive","type":"bool","internalType":"bool"},{"name":"isCompleted","type":"bool","internalType":"bool"},{"name":"gated","type":"bool","internalType":"bool"}],"stateMutability":"view"},{"type":"function","name":"setCoordinator","inputs":[{"name":"_vrfCoordinator","type":"address","internalType":"address"}],"outputs":[],"stateMutability":"nonpayable"},{"type":"function","name":"setDefaultGrandPrizeBps","inputs":[{"name":"bps","type":"uint16","internalType":"uint16"}],"outputs":[],"stateMutability":"nonpayable"},{"type":"function","name":"setGatingContract","inputs":[{"name":"_gatingContract","type":"address","internalType":"address"}],"outputs":[],"stateMutability":"nonpayable"},{"type":"function","name":"setHatsProtocol","inputs":[{"name":"_hatsProtocol","type":"address","internalType":"address"}],"outputs":[],"stateMutability":"nonpayable"},{"type":"function","name":"setPrizeDistributor","inputs":[{"name":"distributor","type":"address","internalType":"address"}],"outputs":[],"stateMutability":"nonpayable"},{"type":"function","name":"setSeasonFactory","inputs":[{"name":"_seasonFactoryAddress","type":"address","internalType":"address"}],"outputs":[],"stateMutability":"nonpayable"},{"type":"function","name":"setSponsorHat","inputs":[{"name":"_hatId","type":"uint256","internalType":"uint256"}],"outputs":[],"stateMutability":"nonpayable"},{"type":"function","name":"setupPrizeDistributionManually","inputs":[{"name":"seasonId","type":"uint256","internalType":"uint256"}],"outputs":[],"stateMutability":"view"},{"type":"function","name":"sofToken","inputs":[],"outputs":[{"name":"","type":"address","internalType":"contract IERC20"}],"stateMutability":"view"},{"type":"function","name":"sponsorHatId","inputs":[],"outputs":[{"name":"","type":"uint256","internalType":"uint256"}],"stateMutability":"view"},{"type":"function","name":"startSeason","inputs":[{"name":"seasonId","type":"uint256","internalType":"uint256"}],"outputs":[],"stateMutability":"nonpayable"},{"type":"function","name":"supportsInterface","inputs":[{"name":"interfaceId","type":"bytes4","internalType":"bytes4"}],"outputs":[{"name":"","type":"bool","internalType":"bool"}],"stateMutability":"view"},{"type":"function","name":"transferOwnership","inputs":[{"name":"to","type":"address","internalType":"address"}],"outputs":[],"stateMutability":"nonpayable"},{"type":"function","name":"updateVRFConfig","inputs":[{"name":"subscriptionId","type":"uint64","internalType":"uint64"},{"name":"keyHash","type":"bytes32","internalType":"bytes32"},{"name":"callbackGasLimit","type":"uint32","internalType":"uint32"}],"outputs":[],"stateMutability":"nonpayable"},{"type":"function","name":"vrfCallbackGasLimit","inputs":[],"outputs":[{"name":"","type":"uint32","internalType":"uint32"}],"stateMutability":"view"},{"type":"function","name":"vrfKeyHash","inputs":[],"outputs":[{"name":"","type":"bytes32","internalType":"bytes32"}],"stateMutability":"view"},{"type":"function","name":"vrfRequestToSeason","inputs":[{"name":"","type":"uint256","internalType":"uint256"}],"outputs":[{"name":"","type":"uint256","internalType":"uint256"}],"stateMutability":"view"},{"type":"function","name":"vrfSubscriptionId","inputs":[],"outputs":[{"name":"","type":"uint256","internalType":"uint256"}],"stateMutability":"view"},{"type":"event","name":"AutoFinalizeAttempted","inputs":[{"name":"seasonId","type":"uint256","indexed":true,"internalType":"uint256"},{"name":"success","type":"bool","indexed":false,"internalType":"bool"}],"anonymous":false},{"type":"event","name":"AutoFinalizeFailed","inputs":[{"name":"seasonId","type":"uint256","indexed":true,"internalType":"uint256"},{"name":"reason","type":"string","indexed":false,"internalType":"string"}],"anonymous":false},{"type":"event","name":"AutoFinalizeFailedLowLevel","inputs":[{"name":"seasonId","type":"uint256","indexed":true,"internalType":"uint256"},{"name":"data","type":"bytes","indexed":false,"internalType":"bytes"}],"anonymous":false},{"type":"event","name":"CoordinatorSet","inputs":[{"name":"vrfCoordinator","type":"address","indexed":false,"internalType":"address"}],"anonymous":false},{"type":"event","name":"GatingContractUpdated","inputs":[{"name":"oldContract","type":"address","indexed":true,"internalType":"address"},{"name":"newContract","type":"address","indexed":true,"internalType":"address"}],"anonymous":false},{"type":"event","name":"HatsProtocolUpdated","inputs":[{"name":"oldAddress","type":"address","indexed":true,"internalType":"address"},{"name":"newAddress","type":"address","indexed":true,"internalType":"address"}],"anonymous":false},{"type":"event","name":"OwnershipTransferRequested","inputs":[{"name":"from","type":"address","indexed":true,"internalType":"address"},{"name":"to","type":"address","indexed":true,"internalType":"address"}],"anonymous":false},{"type":"event","name":"OwnershipTransferred","inputs":[{"name":"from","type":"address","indexed":true,"internalType":"address"},{"name":"to","type":"address","indexed":true,"internalType":"address"}],"anonymous":false},{"type":"event","name":"ParticipantAdded","inputs":[{"name":"seasonId","type":"uint256","indexed":true,"internalType":"uint256"},{"name":"participant","type":"address","indexed":false,"internalType":"address"},{"name":"tickets","type":"uint256","indexed":false,"internalType":"uint256"},{"name":"totalTickets","type":"uint256","indexed":false,"internalType":"uint256"}],"anonymous":false},{"type":"event","name":"ParticipantRemoved","inputs":[{"name":"seasonId","type":"uint256","indexed":true,"internalType":"uint256"},{"name":"participant","type":"address","indexed":false,"internalType":"address"},{"name":"totalTickets","type":"uint256","indexed":false,"internalType":"uint256"}],"anonymous":false},{"type":"event","name":"ParticipantUpdated","inputs":[{"name":"seasonId","type":"uint256","indexed":true,"internalType":"uint256"},{"name":"participant","type":"address","indexed":false,"internalType":"address"},{"name":"newTickets","type":"uint256","indexed":false,"internalType":"uint256"},{"name":"totalTickets","type":"uint256","indexed":false,"internalType":"uint256"}],"anonymous":false},{"type":"event","name":"PositionUpdate","inputs":[{"name":"seasonId","type":"uint256","indexed":true,"internalType":"uint256"},{"name":"player","type":"address","indexed":true,"internalType":"address"},{"name":"oldTickets","type":"uint256","indexed":false,"internalType":"uint256"},{"name":"newTickets","type":"uint256","indexed":false,"internalType":"uint256"},{"name":"totalTickets","type":"uint256","indexed":false,"internalType":"uint256"}],"anonymous":false},{"type":"event","name":"PrizeDistributionFailed","inputs":[{"name":"seasonId","type":"uint256","indexed":true,"internalType":"uint256"},{"name":"reason","type":"string","indexed":false,"internalType":"string"}],"anonymous":false},{"type":"event","name":"PrizeDistributionSetup","inputs":[{"name":"seasonId","type":"uint256","indexed":true,"internalType":"uint256"},{"name":"merkleDistributor","type":"address","indexed":false,"internalType":"address"}],"anonymous":false},{"type":"event","name":"RoleAdminChanged","inputs":[{"name":"role","type":"bytes32","indexed":true,"internalType":"bytes32"},{"name":"previousAdminRole","type":"bytes32","indexed":true,"internalType":"bytes32"},{"name":"newAdminRole","type":"bytes32","indexed":true,"internalType":"bytes32"}],"anonymous":false},{"type":"event","name":"RoleGranted","inputs":[{"name":"role","type":"bytes32","indexed":true,"internalType":"bytes32"},{"name":"account","type":"address","indexed":true,"internalType":"address"},{"name":"sender","type":"address","indexed":true,"internalType":"address"}],"anonymous":false},{"type":"event","name":"RoleRevoked","inputs":[{"name":"role","type":"bytes32","indexed":true,"internalType":"bytes32"},{"name":"account","type":"address","indexed":true,"internalType":"address"},{"name":"sender","type":"address","indexed":true,"internalType":"address"}],"anonymous":false},{"type":"event","name":"SeasonCompleted","inputs":[{"name":"seasonId","type":"uint256","indexed":true,"internalType":"uint256"}],"anonymous":false},{"type":"event","name":"SeasonCreated","inputs":[{"name":"seasonId","type":"uint256","indexed":true,"internalType":"uint256"},{"name":"name","type":"string","indexed":false,"internalType":"string"},{"name":"startTime","type":"uint256","indexed":false,"internalType":"uint256"},{"name":"endTime","type":"uint256","indexed":false,"internalType":"uint256"},{"name":"raffleToken","type":"address","indexed":false,"internalType":"address"},{"name":"bondingCurve","type":"address","indexed":false,"internalType":"address"}],"anonymous":false},{"type":"event","name":"SeasonEndRequested","inputs":[{"name":"seasonId","type":"uint256","indexed":true,"internalType":"uint256"},{"name":"vrfRequestId","type":"uint256","indexed":false,"internalType":"uint256"}],"anonymous":false},{"type":"event","name":"SeasonLocked","inputs":[{"name":"seasonId","type":"uint256","indexed":true,"internalType":"uint256"}],"anonymous":false},{"type":"event","name":"SeasonStarted","inputs":[{"name":"seasonId","type":"uint256","indexed":true,"internalType":"uint256"}],"anonymous":false},{"type":"event","name":"SponsorHatUpdated","inputs":[{"name":"oldHatId","type":"uint256","indexed":true,"internalType":"uint256"},{"name":"newHatId","type":"uint256","indexed":true,"internalType":"uint256"}],"anonymous":false},{"type":"event","name":"VRFFulfilled","inputs":[{"name":"seasonId","type":"uint256","indexed":true,"internalType":"uint256"},{"name":"requestId","type":"uint256","indexed":true,"internalType":"uint256"}],"anonymous":false},{"type":"event","name":"WinnersSelected","inputs":[{"name":"seasonId","type":"uint256","indexed":true,"internalType":"uint256"},{"name":"winners","type":"address[]","indexed":false,"internalType":"address[]"}],"anonymous":false},{"type":"error","name":"AccessControlBadConfirmation","inputs":[]},{"type":"error","name":"AccessControlUnauthorizedAccount","inputs":[{"name":"account","type":"address","internalType":"address"},{"name":"neededRole","type":"bytes32","internalType":"bytes32"}]},{"type":"error","name":"DistributorNotSet","inputs":[]},{"type":"error","name":"FactoryNotSet","inputs":[]},{"type":"error","name":"InvalidAddress","inputs":[]},{"type":"error","name":"InvalidBasisPoints","inputs":[{"name":"bps","type":"uint256","internalType":"uint256"}]},{"type":"error","name":"InvalidBondSteps","inputs":[]},{"type":"error","name":"InvalidEndTime","inputs":[{"name":"endTime","type":"uint256","internalType":"uint256"},{"name":"startTime","type":"uint256","internalType":"uint256"}]},{"type":"error","name":"InvalidSeasonName","inputs":[]},{"type":"error","name":"InvalidSeasonStatus","inputs":[{"name":"seasonId","type":"uint256","internalType":"uint256"},{"name":"currentStatus","type":"uint8","internalType":"uint8"},{"name":"expectedStatus","type":"uint8","internalType":"uint8"}]},{"type":"error","name":"InvalidStartTime","inputs":[{"name":"startTime","type":"uint256","internalType":"uint256"},{"name":"currentTime","type":"uint256","internalType":"uint256"}]},{"type":"error","name":"InvalidTreasuryAddress","inputs":[]},{"type":"error","name":"InvalidWinnerCount","inputs":[{"name":"count","type":"uint256","internalType":"uint256"}]},{"type":"error","name":"NoVRFWords","inputs":[{"name":"seasonId","type":"uint256","internalType":"uint256"}]},{"type":"error","name":"NoWinnersSelected","inputs":[]},{"type":"error","name":"OnlyCoordinatorCanFulfill","inputs":[{"name":"have","type":"address","internalType":"address"},{"name":"want","type":"address","internalType":"address"}]},{"type":"error","name":"OnlyOwnerOrCoordinator","inputs":[{"name":"have","type":"address","internalType":"address"},{"name":"owner","type":"address","internalType":"address"},{"name":"coordinator","type":"address","internalType":"address"}]},{"type":"error","name":"ReentrancyGuardReentrantCall","inputs":[]},{"type":"error","name":"SeasonAlreadyEnded","inputs":[{"name":"seasonId","type":"uint256","internalType":"uint256"}]},{"type":"error","name":"SeasonAlreadyStarted","inputs":[{"name":"seasonId","type":"uint256","internalType":"uint256"}]},{"type":"error","name":"SeasonNotActive","inputs":[{"name":"seasonId","type":"uint256","internalType":"uint256"}]},{"type":"error","name":"SeasonNotEnded","inputs":[{"name":"seasonId","type":"uint256","internalType":"uint256"},{"name":"currentTime","type":"uint256","internalType":"uint256"},{"name":"endTime","type":"uint256","internalType":"uint256"}]},{"type":"error","name":"SeasonNotFound","inputs":[{"name":"seasonId","type":"uint256","internalType":"uint256"}]},{"type":"error","name":"UnauthorizedCaller","inputs":[]},{"type":"error","name":"UserNotVerified","inputs":[{"name":"seasonId","type":"uint256","internalType":"uint256"},{"name":"user","type":"address","internalType":"address"}]},{"type":"error","name":"VRFRequestNotFound","inputs":[{"name":"requestId","type":"uint256","internalType":"uint256"}]},{"type":"error","name":"ZeroAddress","inputs":[]}],"bytecode":{"object":"0x60a03461019257601f61480d38819003918201601f19168301916001600160401b038311848410176101965780849260809460405283398101031261019257610047816101aa565b90610054602082016101aa565b9160606040830151920151926001600655331561014d57600780546001600160a01b031916331790556001600160a01b031690811561013e57600980546001600160a01b03191683179055600d805463ffffffff19166207a120179055600e805461ffff60a01b191661065960a21b1790556001600160a01b0316801561012f57608052600a80546001600160a01b031916919091179055600c55600b556100fb336101be565b5061010533610234565b5061010f336102c7565b50604051614432908161035b8239608051818181612e080152613aa20152f35b63e6c4247b60e01b5f5260045ffd5b63d92e233d60e01b5f5260045ffd5b60405162461bcd60e51b815260206004820152601860248201527f43616e6e6f7420736574206f776e657220746f207a65726f00000000000000006044820152606490fd5b5f80fd5b634e487b7160e01b5f52604160045260245ffd5b51906001600160a01b038216820361019257565b6001600160a01b0381165f9081525f5160206147ed5f395f51905f52602052604090205460ff1661022f576001600160a01b03165f8181525f5160206147ed5f395f51905f5260205260408120805460ff191660011790553391905f51602061478d5f395f51905f528180a4600190565b505f90565b6001600160a01b0381165f9081525f5160206147ad5f395f51905f52602052604090205460ff1661022f576001600160a01b03165f8181525f5160206147ad5f395f51905f5260205260408120805460ff191660011790553391907f7ef5114529a47294f95f6beb0f3b094a1365fd784c97c498bb697c0f0c7b6611905f51602061478d5f395f51905f529080a4600190565b6001600160a01b0381165f9081525f5160206147cd5f395f51905f52602052604090205460ff1661022f576001600160a01b03165f8181525f5160206147cd5f395f51905f5260205260408120805460ff191660011790553391907fbf233dd2aafeb4d50879c4aa5c81e96d92f6e6945c906a58f9f2d1c1631b4b26905f51602061478d5f395f51905f529080a460019056fe6080806040526004361015610012575f80fd5b5f905f3560e01c90816301ffc9a714612e7857508063041d443e14612e5b57806305274b0214612e3757806306f6fc1314612df35780630da6f7a114612d8e5780631677d46814612d3857806317077a3b14612bee5780631890628714612bc15780631a9e6d5c14612b785780631c30c76b146129ee5780631e27580e146129d35780631fe543e31461281f578063200ad21b1461093657806320df4359146127e5578063246744291461277c578063248a9ca31461275157806326182e7b146124a9578063274435cc1461240d57806327c02f5a146123e05780632f2ff15d146123a257806332847b471461237a578063354443a01461234057806336568abe146122fa5780633aa4159e146122a45780633b7ed734146122815780633e81d1ca14611fca57806348144bc614611fa1578063593d03a014611f6e5780635b9180d514611f245780636044f7e214611eef5780636667bf4314611e1c5780636b1426a414611d80578063703dbfe414611bf2578063740a901f14611b8757806376ec73c21461183e5780637793d7dd1461180d57806379ba50971461175e5780638d12036c146114785780638da5cb5b1461144f5780638df48e66146113f55780638ea981171461132357806391d14854146112d957806398f0e3e91461129e5780639cfea253146112685780639eccacf61461123f578063a217fddf14611223578063ac5729b414610a1d578063b71d1627146109f3578063b924c14014610964578063c049098f1461093b578063c1e3bd3e14610936578063cd1c41ea1461088b578063d00d23e314610862578063d0727913146107aa578063d1248d2714610781578063d3b30b751461075e578063d547741f14610716578063d6769d42146106b5578063dc29338214610698578063e59eee38146105c6578063ed647d21146105a8578063ef4bf3541461058a578063f1412d94146104d6578063f2fde38b146103da5763f5d709a1146102e9575f80fd5b346103d75760203660031901126103d757604061035f916004358152600160205220610314816131b8565b9060ff600182015491600281015490600381015460018060a01b0360048301541690600660018060a01b03600585015416930154936040519889986101808a526101808a0190612f1a565b966020890152604088015261ffff8116606088015261ffff8160101c16608088015260018060a01b039060201c1660a087015260c086015260e085015260018060a01b038116610100850152818160a01c161515610120850152818160a81c16151561014085015260b01c1615156101608301520390f35b80fd5b50346103d75760203660031901126103d7576103f4612eda565b6007546001600160a01b03169033829003610498576001600160a01b03169033821461045357600880546001600160a01b031916831790557fed8889f560326eb138920d842192f0eb3dd22b4f139c87a2c57538e05bae12788380a380f35b60405162461bcd60e51b815260206004820152601760248201527f43616e6e6f74207472616e7366657220746f2073656c660000000000000000006044820152606490fd5b60405162461bcd60e51b815260206004820152601660248201527527b7363c9031b0b63630b1363290313c9037bbb732b960511b6044820152606490fd5b50346103d75760403660031901126103d757600760406104f4612ef0565b9280606083516105038161309f565b828152826020820152828582015201526004358152600260205220019060018060a01b03165f52602052608060405f2060405161053f8161309f565b815491828252600181015460208301908152606060ff600360028501549460408701958652015416930192151583526040519384525160208401525160408301525115156060820152f35b50346103d757806003193601126103d7576020601054604051908152f35b50346103d757806003193601126103d7576020600c54604051908152f35b50346103d75760203660031901126103d7576004356105e361374c565b8015158061068d575b6105f5906134dc565b808252600260205260ff604083205416600681101561067957600461061a91146136ca565b808252600160209081526040808420600601805460ff60a81b1916600160a81b17905582845260029091528220805460ff191660051790557fc48a6bc3c0c009e1f8ccd8bca8aeee55410aaf210eec6e5e0cba85a3708bfb2b8280a280f35b634e487b7160e01b83526021600452602483fd5b5081548111156105ec565b50346103d757806003193601126103d75760209054604051908152f35b50346103d75760203660031901126103d757604060a091600435815260026020522060ff81541690600181015490600281015460056003830154920154926107006040518096612ff9565b6020850152604084015260608301526080820152f35b50346103d75760403660031901126103d75761075a600435610736612ef0565b90610755610750825f526005602052600160405f20015490565b613879565b613ec1565b5080f35b50346103d757806003193601126103d7576020610779613716565b604051908152f35b50346103d757806003193601126103d757600d54604051602091821c6001600160a01b03168152f35b50346103d75760203660031901126103d7576004356107c761374c565b80151580610857575b6107d9906134dc565b8152600260205260ff604082205416906006821015610843576107fe600483146136ca565b60405162461bcd60e51b815260206004820152601a60248201527f526166666c653a207573652066696e616c697a65536561736f6e0000000000006044820152606490fd5b634e487b7160e01b81526021600452602490fd5b5081548111156107d0565b50346103d757806003193601126103d757600e546040516001600160a01b039091168152602090f35b50346103d75760403660031901126103d757600435906108a9612ef0565b91808252600160205260ff600660408420015460a81c16156108f1578160409160079352600260205220019060018060a01b03165f52602052602060405f2054604051908152f35b60405162461bcd60e51b815260206004820152601c60248201527f526166666c653a20736561736f6e206e6f7420636f6d706c65746564000000006044820152606490fd5b613048565b50346103d757806003193601126103d757600f546040516001600160a01b039091168152602090f35b50346103d75760203660031901126103d75761097e612eda565b61098661374c565b600d5490602082901c6001600160a01b03166109e4576001600160a01b038116156109d557640100000000600160c01b031990911660209190911b640100000000600160c01b031617600d5580f35b63e6c4247b60e01b8352600483fd5b6329f7dfeb60e21b8352600483fd5b50346103d75760203660031901126103d75760406020916004358152600383522054604051908152f35b50346103d75760803660031901126103d7576004356001600160401b03811161121f57610180600319823603011261121f5760405190610a5c826130ba565b80600401356001600160401b0381116110c357810190366023830112156110c357600482013590610a8c8261312d565b610a99604051918261310c565b8281528536602486860101116103d757602084610164956024610b699801838601378301015284526024810135602085015260448101356040850152610ae160648201612ecb565b6060850152610af260848201612ecb565b6080850152610b0360a48201612f06565b60a0850152610b1460c48201612f06565b60c0850152610b2560e48201612f06565b60e0850152610b376101048201612f06565b610100850152610b4a6101248201613148565b610120850152610b5d6101448201613148565b61014085015201613148565b6101608201526024356001600160401b03811161121b573660238201121561121b57806004013591610b9a83613155565b91610ba8604051938461310c565b83835260208301906024829560061b8201019036821161121757602401915b8183106111b2575050506044359261ffff841684036111ae576064359061ffff821682036111aa57610bf76138b3565b610c0033613398565b1561119b57600d5460201c6001600160a01b031691821561118c578351511561117d57602084015142811115611167575060408401516020850151908181111561115257505061ffff6060850151161561113e5761ffff608085015116612710811161112c575060a08401516001600160a01b03161561111d5784511561110e579493909186610c90815461338a565b96878255604051968794635e2d40eb60e01b865289600487015260a060248701526020610cc060a488018a612f3e565b878103600319016044890152915180835291019690845b8181106110da5750505060409561ffff86949381869416606485015216608483015203925af180156110cf5784928591611084575b506001600160a01b0383811660c0840152811660e0830152336101008301526101208201859052610140820185905283855260016020526040852082518051906001600160401b0382116110705791602097918796959493610d6e8354613180565b601f8111611030575b508990601f8311600114610f9e57928285936006937f6ccf5008c3cde5e448bfdbb6a25201ac5552f0207195efaa353b8ccc20ec105e9a9896610f619a9892610f93575b50508160011b915f199060031b1c19161781555b8a8501516001820155604085015160028201556003810161ffff60608701511681549063ffff0000608089015160101b169163ffffffff19161717815560a0860151815490640100000000600160c01b0390640100000000600160c01b03908f1b161690640100000000600160c01b03191617905560018060a01b0360c086015116600482019060018060a01b03166001600160601b0360a01b82541617905560018060a01b0360e086015116600582019060018060a01b03166001600160601b0360a01b8254161790550160018060a01b0360018060a01b0361010086015116166001600160601b0360a01b825416178155610120840151151581549060ff60a01b9060a01b169060ff60a01b1916178155610140840151151581549060ff60a81b9060a81b169060ff60a81b1916178155610160840151151581549060ff60b01b9060b01b169060ff60b01b19161790558681526002895260408120905060ff198154169055610f4081613d64565b5081519260408984015193015160405195869560a0875260a0870190612f1a565b858b019490945260408501526001600160a01b0390811660608501521660808301520390a26001600655604051908152f35b015190505f80610dbb565b9083855280852091855b601f19851681106110165750836006937f6ccf5008c3cde5e448bfdbb6a25201ac5552f0207195efaa353b8ccc20ec105e9a989693600193610f619b9997601f19811610610ffe575b505050811b018155610dcf565b01515f1960f88460031b161c191690555f8080610ff1565b8183015184558b9a50600190930192918c01918c01610fa8565b82811115610d77578385528a852061106291601f850160051c908d8610611068575b601f82910160051c0391016136af565b5f610d77565b879150611052565b634e487b7160e01b88526041600452602488fd5b9250506040823d6040116110c7575b816110a06040938361310c565b810103126110c3576110bd60206110b68461369b565b930161369b565b5f610d0c565b8380fd5b3d9150611093565b6040513d86823e3d90fd5b825180516001600160801b039081168b5260209182015116818b01526040909901988b98508d965090920191600101610cd7565b632ff1761160e21b8752600487fd5b63cfe2ea6360e01b8752600487fd5b630cbf8cb160e11b8852600452602487fd5b639530143560e01b87526004879052602487fd5b63f880c23960e01b8952600452602452604487fd5b6364bb3b8360e11b885260045242602452604487fd5b63575514a960e11b8752600487fd5b6329f7dfeb60e21b8752600487fd5b635c427cd960e01b8652600486fd5b8580fd5b8480fd5b60408336031261121757604051604081018181106001600160401b03821117611203579160209160409384526111e78661316c565b81526111f483870161316c565b83820152815201920191610bc7565b634e487b7160e01b89526041600452602489fd5b8680fd5b8280fd5b5080fd5b50346103d757806003193601126103d757602090604051908152f35b50346103d757806003193601126103d7576009546040516001600160a01b039091168152602090f35b50346103d75760203660031901126103d75730330361128f5761128c6004356138d3565b80f35b635c427cd960e01b8152600490fd5b50346103d757806003193601126103d75760206040517f7ef5114529a47294f95f6beb0f3b094a1365fd784c97c498bb697c0f0c7b66118152f35b50346103d75760403660031901126103d75760406112f5612ef0565b9160043581526005602052209060018060a01b03165f52602052602060ff60405f2054166040519015158152f35b50346103d75760203660031901126103d75761133d612eda565b6007546001600160a01b031633811415806113e0575b6113b857506001600160a01b031680156113a9576020817fd1a6a14209a385a964d036e404cb5cfb71f4000cdb03c9366292430787261be6926001600160601b0360a01b6009541617600955604051908152a180f35b63d92e233d60e01b8252600482fd5b60095463061db9c160e01b8452336004526024919091526001600160a01b0316604452606482fd5b506009546001600160a01b0316331415611353565b50346103d75760603660031901126103d7576004356001600160401b03811680910361121f576044359063ffffffff821680920361121b5761143561374c565b600c55602435600b5563ffffffff19600d541617600d5580f35b50346103d757806003193601126103d7576007546040516001600160a01b039091168152602090f35b50346103d75761148736613075565b909161149161379b565b80845260016020526114af60ff600660408720015460a01c166132ff565b8084526002602052604084209260018060a01b0381165f526007840160205260405f2090600382019360ff85541615611724578254948186106116ec576114f68287613579565b9361150660028901938454613579565b92818685935560024391015555831561159c575b50604080516001600160a01b03841681526020810183905295965093945f5160206144125f395f51905f5294611596929187917fac77b6b0b2feb4466fddc617dfa38c6ef3c26332af501f28b86a706a0b6ec2eb91a260405193849360018060a01b031697846040919493926060820195825260208201520152565b0390a380f35b60ff198154169055600186016115b2815461368f565b90556001600160a01b03821695600801875b8154808210156116ce57886115d98385613375565b905460039190911b1c6001600160a01b0316146115f957506001016115c4565b9091929394959697505f1981019081116116ba579061163761161e61165b9385613375565b905460039190911b1c6001600160a01b03169184613375565b81546001600160a01b0393841660039290921b91821b9390911b1916919091179055565b805480156116a65791611596915f5160206144125f395f51905f529594935f1901906116878282613375565b81549060018060a01b039060031b1b19169055555b908695945061151a565b634e487b7160e01b88526031600452602488fd5b634e487b7160e01b89526011600452602489fd5b5050505f5160206144125f395f51905f52939495506115969061169c565b60405162461bcd60e51b815260206004820152601060248201526f0a4c2ccccd8ca7440e8dede40daeac6d60831b6044820152606490fd5b60405162461bcd60e51b8152602060048201526012602482015271526166666c653a206e6f742061637469766560701b6044820152606490fd5b50346103d757806003193601126103d7576008546001600160a01b03811633036117cf5760078054336001600160a01b03198083168217909355929091166008556001600160a01b03167f8be0079c531659141344cd1fd0a4f28419497f9722a3daafe3b4186f6b6457e08380a380f35b60405162461bcd60e51b815260206004820152601660248201527526bab9ba10313290383937b837b9b2b21037bbb732b960511b6044820152606490fd5b50346103d75760203660031901126103d757602061182c60043561364b565b6040516001600160a01b039091168152f35b50346103d75760203660031901126103d75760043561185b61380a565b80158015611b7d575b611b6b57808252600160205260ff600660408420015460a01c1615611b5957808252600260205260ff604083205416600681101561067957600103611b1157808252600160205260408220600501546001600160a01b0316803b1561121b5760405163086afa1160e41b81528390818160048183875af18015611b0657611af1575b5050602060049160405192838092632168e9d360e21b82525afa908115611ab4578391611abf575b508183526002602052600360408420015580825260016020526006604083200160ff60a01b198154169055808252600260205260408220600260ff19825416179055816020611a09604051847fb8c1e571c612bf9e6c3c5d23593965ef3c951a26fcd26afc16e9397bef1329518580a260018060a01b03600a541690600b5490600c549063ffffffff600d5416888852600187526119c361ffff600360408b20015416926119bb816130d6565b898152613f45565b92604051946119d1866130f1565b855287850152600360408501526060840152608083015260a0820152604051948580948193634d8e1c2f60e11b83526004830161351c565b03925af1908115611ab4578391611a7d575b5060207f656e5c80604277a61c82dbec54c99e9c266e8e019c6c1367d5b82e773fd395c791838552600282528060056040872001558385526002825260408520600360ff1982541617905580855260038252836040862055604051908152a280f35b90506020813d602011611aac575b81611a986020938361310c565b81010312611aa857516020611a1b565b5f80fd5b3d9150611a8b565b6040513d85823e3d90fd5b90506020813d602011611ae9575b81611ada6020938361310c565b81010312611aa857515f61190e565b3d9150611acd565b81611afb9161310c565b61121b57825f6118e6565b6040513d84823e3d90fd5b90818152600260205260ff6040822054166006811015611b45576064926350b8b89160e11b83526004526024526001604452fd5b634e487b7160e01b82526021600452602482fd5b632feb032560e01b8252600452602490fd5b630c5687c760e21b8252600452602490fd5b5081548111611864565b50346103d75760203660031901126103d757611ba1612eda565b611ba961374c565b600480546001600160a01b039283166001600160a01b0319821681179092559091167ff33acd086c73d69e04f2e4229686ba85c89c0b969231ada8f6fbecd20f6c5e338380a380f35b50346103d75760203660031901126103d757600435611c1033613398565b15611d715780158015611d67575b611b6b57808252600160205260ff600660408420015460a01c16611d5557808252600160205260016040832001544210611d2a5780825260016020526002604083200154421015611d1857808252600260205260ff604083205416600681101561067957611ce557808252600160208181526040808520600601805460ff60a01b1916600160a01b17905583855260029091528320805460ff191690911790557fe2046d333900871694b2fb421975b907ac5d93052201a0e259fa0664d9dbdf1d8280a280f35b90818152600260205260ff6040822054166006811015611b45576064926350b8b89160e11b835260045260245280604452fd5b631bc7556760e11b8252600452602490fd5b9081606492825260016020526001604083200154906325bcf8af60e11b835260045242602452604452fd5b633488e62760e01b8252600452602490fd5b5081548111611c1e565b635c427cd960e01b8252600482fd5b50346103d75760203660031901126103d757600435808252600260205260ff604083205416600681101561067957600503611ddf576004604083611dcf93611ddb955260026020522001613258565b60405191829182613006565b0390f35b60405162461bcd60e51b8152602060048201526015602482015274149859999b194e881b9bdd0818dbdb5c1b195d1959605a1b6044820152606490fd5b50346103d75760203660031901126103d757600435611e3961374c565b600e546001600160a01b03168015611eaa57818392835260026020526003604084200154823b15611ea55760448492836040519586948593633570298360e01b8552600485015260248401525af18015611b0657611e945750f35b81611e9e9161310c565b6103d75780f35b505050fd5b60405162461bcd60e51b815260206004820152601b60248201527f526166666c653a206469737472696275746f72206e6f742073657400000000006044820152606490fd5b50346103d75760203660031901126103d75760ff6006604060209360043581526001855220015460a01c166040519015158152f35b50346103d75760203660031901126103d7576005604060209260043580151580611f63575b611f52906134dc565b815260028452200154604051908152f35b508154811115611f49565b50346103d75760403660031901126103d7576040611f95611f8d612ef0565b600435613586565b82519182526020820152f35b50346103d757806003193601126103d757600a546040516001600160a01b039091168152602090f35b5034611aa8576020366003190112611aa857335f9081527fd56ce40da2f8e4ce89407c5b8f94ad55d87937ba4f5ffc9301e2771bef9f0d0360205260409020546004359060ff161561224a5780158015612240575b61222e57805f52600160205260ff600660405f20015460a01c161561221c57805f526001602052600260405f20015442106121f257805f52600260205260ff60405f20541660068110156121de576001036121aa575f818152600160205260409020600501546001600160a01b0316803b15611aa85760405163086afa1160e41b81525f8160048183865af1801561219f57612189575b50602060049160405192838092632168e9d360e21b82525afa908115611ab4578391611abf57508183526002602052600360408420015580825260016020526006604083200160ff60a01b198154169055808252600260205260408220600260ff19825416179055816020611a09604051847fb8c1e571c612bf9e6c3c5d23593965ef3c951a26fcd26afc16e9397bef1329518580a260018060a01b03600a541690600b5490600c549063ffffffff600d5416888852600187526119c361ffff600360408b20015416926119bb816130d6565b6121969193505f9061310c565b5f9160206120b6565b6040513d5f823e3d90fd5b805f52600260205260ff60405f2054169060068210156121de576350b8b89160e11b5f52600452602452600160445260645ffd5b634e487b7160e01b5f52602160045260245ffd5b805f526001602052600260405f200154906325bcf8af60e11b5f526004524260245260445260645ffd5b632feb032560e01b5f5260045260245ffd5b630c5687c760e21b5f5260045260245ffd5b505f54811161201f565b63e2517d3f60e01b5f52336004527f7ef5114529a47294f95f6beb0f3b094a1365fd784c97c498bb697c0f0c7b661160245260445ffd5b34611aa8575f366003190112611aa857602063ffffffff600d5416604051908152f35b34611aa8576020366003190112611aa8576004356122c061380a565b801515806122ef575b6122d2906134dc565b5f908152600160205260409020600601805460ff60a01b19169055005b505f548111156122c9565b34611aa8576040366003190112611aa857612313612ef0565b336001600160a01b038216036123315761232f90600435613ec1565b005b63334bd91960e11b5f5260045ffd5b34611aa8575f366003190112611aa85760206040517fc5e2433d0a3c75ef5e37c4e28ccd84092c7dcdc38a7fff2e2a116ad41013a6568152f35b34611aa8575f366003190112611aa8576004546040516001600160a01b039091168152602090f35b34611aa8576040366003190112611aa85761232f6004356123c1612ef0565b906123db610750825f526005602052600160405f20015490565b613e35565b34611aa8576020366003190112611aa85760206124036123fe612eda565b613398565b6040519015158152f35b34611aa8576020366003190112611aa8576004356124296138b3565b8015801561249f575b61222e57805f52600260205260405f209060ff8254169160068310156121de57600483036124845760060154156124735761246c906138d3565b6001600655005b626deb4b60e21b5f5260045260245ffd5b506350b8b89160e11b5f52600452602452600460445260645ffd5b505f548111612432565b34611aa8576124b736613075565b91906124c161379b565b815f5260016020526124df60ff600660405f20015460a01c166132ff565b815f52600160205260ff600660405f20015460b01c168061273d575b6126a6575b815f52600260205260405f209060018060a01b0381165f526007820160205260405f209081549461253181876132de565b9260028501906125428383546132de565b91600382019160ff835416155f14612644576008880197885490600160401b821015612630578561262b97819660017fa579cf708fd91d80ae65ceb4a89d65267d82874519078a79355d57bc0ab6e24d948f965f5160206144125f395f51905f529f6116378f91926125b8938682018155613375565b016125c3815461338a565b905543600187810191909155815460ff1916179055604080516001600160a01b038c1681526020810192909252810191909152606090a25b8681556002439101555560405193849360018060a01b031697846040919493926060820195825260208201520152565b0390a3005b634e487b7160e01b5f52604160045260245ffd5b604080516001600160a01b0388168152602081018990529081018590525f5160206144125f395f51905f52985061262b955084935089907f82c0d288888ec0f9d844bf34a4d4182dbf7fbf6c4c86a0552f66ee572b69e7ae90606090a26125fb565b60048054604051630d1bab4760e11b81529182018490526001600160a01b0383811660248401819052929160209183916044918391165afa90811561219f575f9161270e575b50156126f85750612500565b826307a50dcf60e01b5f5260045260245260445ffd5b612730915060203d602011612736575b612728818361310c565b81019061334b565b856126ec565b503d61271e565b506004546001600160a01b031615156124fb565b34611aa8576020366003190112611aa85760206107796004355f526005602052600160405f20015490565b34611aa8576020366003190112611aa857612795612eda565b61279d61374c565b600f80546001600160a01b039283166001600160a01b0319821681179092559091167fac543b986a69515bb21836de22f6210c6b869b42ea3a82bc841f939f1bddfbf95f80a3005b34611aa8575f366003190112611aa85760206040517fbf233dd2aafeb4d50879c4aa5c81e96d92f6e6945c906a58f9f2d1c1631b4b268152f35b34611aa8576040366003190112611aa8576004356024356001600160401b038111611aa85736602382011215611aa8578060040135906001600160401b038211611aa8573660248360051b83010111611aa8576009546001600160a01b0316338190036129bd5750825f52600360205260405f205480156129aa57805f52600260205260ff60405f20541660068110156121de5760030361297657805f52600260205260405f2093600685019485545f875580612960575b505f5b8581101561292557865490600160401b821015612630576129028260018094018a5589613375565b81549060031b9060248460051b8a010135821b915f19901b1916179055016128da565b50805460ff1916600417905561232f9250817f41c9b09716a74f8a100ce1159febf82ab674e27ff67c16f4fed74d6fc1c628695f80a3613fdf565b61297090875f5260205f206136af565b866128d7565b805f52600260205260ff60405f2054169060068210156121de576350b8b89160e11b5f52600452602452600360445260645ffd5b83631417ac4f60e21b5f5260045260245ffd5b63073e64fd60e21b5f523360045260245260445ffd5b34611aa8575f366003190112611aa857602060405160038152f35b34611aa8576020366003190112611aa857612b5a6004355f610160604051612a15816130ba565b606081528260208201528260408201528260608201528260808201528260a08201528260c08201528260e08201528261010082015282610120820152826101408201520152805f52600160205260405f209060ff600660405193612a78856130ba565b612a81816131b8565b85526001810154602086015260028101546040860152600381015461ffff8116606087015261ffff8160101c16608087015260018060a01b039060201c1660a086015260018060a01b0360048201541660c086015260018060a01b0360058201541660e0860152015460018060a01b038116610100850152818160a01c161515610120850152818160a81c16151561014085015260b01c1615156101608301525f52600260205260405f2060ff815416906001810154906003600282015491015491612b6560405196879660a0885260a0880190612f3e565b946020870190612ff9565b6040850152606084015260808301520390f35b34611aa8576020366003190112611aa857600435612b9461374c565b601054816010557fc607a59719d9758af0d6f8498fd6fdddf5882209e612592a040d3b902c6439355f80a3005b34611aa8576020366003190112611aa8576004355f5260026020526020600260405f200154604051908152f35b34611aa8576040366003190112611aa857600435612c0a612ef0565b5f91805f526002602052612c23600860405f2001613258565b6001600160a01b03909216925f9291905b8251841015612d2c57846001600160a01b03612c5086866132ca565b511614612cd3575f828152600260205260409020600191612ccb916007016001600160a01b03612c8088886132ca565b5116848060a01b03165f5260205260405f2090604051612c9f8161309f565b606060ff60038554958685528881015460208601526002810154604086015201541615159101526132de565b930192612c34565b925060409391505b5f5260026020526007835f2001905f52602052611f95825f208351612cff8161309f565b606060ff6003845494858552600181015460208601526002810154898601520154161515910152826132de565b92506040939150612cdb565b34611aa8576020366003190112611aa857612d51612eda565b612d5961374c565b6001600160a01b03168015612d7f576001600160601b0360a01b600e541617600e555f80f35b63e6c4247b60e01b5f5260045ffd5b34611aa8576020366003190112611aa85760043561ffff8116808203611aa857612db661374c565b6127108111612de15750600e805461ffff60a01b191660a09290921b61ffff60a01b16919091179055005b630cbf8cb160e11b5f5260045260245ffd5b34611aa8575f366003190112611aa8576040517f00000000000000000000000000000000000000000000000000000000000000006001600160a01b03168152602090f35b34611aa8575f366003190112611aa857602061ffff600e5460a01c16604051908152f35b34611aa8575f366003190112611aa8576020600b54604051908152f35b34611aa8576020366003190112611aa8576004359063ffffffff60e01b8216809203611aa857602091637965db0b60e01b8114908115612eba575b5015158152f35b6301ffc9a760e01b14905083612eb3565b359061ffff82168203611aa857565b600435906001600160a01b0382168203611aa857565b602435906001600160a01b0382168203611aa857565b35906001600160a01b0382168203611aa857565b805180835260209291819084018484015e5f828201840152601f01601f1916010190565b9061016080612f5884516101808552610180850190612f1a565b93602081015160208501526040810151604085015261ffff606082015116606085015261ffff608082015116608085015260018060a01b0360a08201511660a085015260018060a01b0360c08201511660c085015260018060a01b0360e08201511660e085015260018060a01b0361010082015116610100850152610120810151151561012085015261014081015115156101408501520151151591015290565b9060068210156121de5752565b60206040818301928281528451809452019201905f5b8181106130295750505090565b82516001600160a01b031684526020938401939092019160010161301c565b34611aa8576020366003190112611aa8576004355f526002602052611ddb611dcf600860405f2001613258565b6060906003190112611aa857600435906024356001600160a01b0381168103611aa8579060443590565b608081019081106001600160401b0382111761263057604052565b61018081019081106001600160401b0382111761263057604052565b602081019081106001600160401b0382111761263057604052565b60c081019081106001600160401b0382111761263057604052565b90601f801991011681019081106001600160401b0382111761263057604052565b6001600160401b03811161263057601f01601f191660200190565b35908115158203611aa857565b6001600160401b0381116126305760051b60200190565b35906001600160801b0382168203611aa857565b90600182811c921680156131ae575b602083101461319a57565b634e487b7160e01b5f52602260045260245ffd5b91607f169161318f565b9060405191825f8254926131cb84613180565b808452936001811690811561323657506001146131f2575b506131f09250038361310c565b565b90505f9291925260205f20905f915b81831061321a5750509060206131f0928201015f6131e3565b6020919350806001915483858901015201910190918492613201565b9050602092506131f094915060ff191682840152151560051b8201015f6131e3565b90604051918281549182825260208201905f5260205f20925f5b8181106132875750506131f09250038361310c565b84546001600160a01b0316835260019485019487945060209093019201613272565b8051156132b65760200190565b634e487b7160e01b5f52603260045260245ffd5b80518210156132b65760209160051b010190565b919082018092116132eb57565b634e487b7160e01b5f52601160045260245ffd5b1561330657565b60405162461bcd60e51b815260206004820152601760248201527f526166666c653a20736561736f6e20696e6163746976650000000000000000006044820152606490fd5b90816020910312611aa857518015158103611aa85790565b8054156132b6575f5260205f20905f90565b80548210156132b6575f5260205f2001905f90565b5f1981146132eb5760010190565b6001600160a01b0381165f9081527fd56ce40da2f8e4ce89407c5b8f94ad55d87937ba4f5ffc9301e2771bef9f0d03602052604090205460ff166134d657600f546001600160a01b0316801515806134cb575b6133f55750505f90565b6010546040516321a9204d60e11b81526001600160a01b03841660048201526024810182905291602083604481845afa92831561219f575f936134aa575b5082613441575b5050905090565b604051631528609b60e21b81526001600160a01b03949094166004850152602484019190915260209150829060449082905afa90811561219f575f9161348b575b50805f8061343a565b6134a4915060203d60201161273657612728818361310c565b5f613482565b6134c491935060203d60201161273657612728818361310c565b915f613433565b5060105415156133eb565b50600190565b156134e357565b60405162461bcd60e51b81526020600482015260116024820152702930b33336329d1037379039b2b0b9b7b760791b6044820152606490fd5b60e060a06135769360208452805160208501526020810151604085015261ffff604082015116606085015263ffffffff606082015116608085015263ffffffff6080820151168285015201519160c0808201520190612f1a565b90565b919082039182116132eb57565b5f52600260205260405f20600781019160018060a01b0381165f528260205260ff600360405f20015416156136425760019291929160085f94018054935b8486106135d7575050505050505f905f90565b6135e18683613375565b90546001600160a01b0360039290921b1c81165f8181526020869052604090209186161461361f576001916136179154906132de565b9501946135c4565b93509594505050613632915054836132de565b5f198101929083116132eb579190565b5050505f905f90565b805f526002602052600460405f20015461366457505f90565b5f52600260205261367a600460405f2001613363565b905460039190911b1c6001600160a01b031690565b80156132eb575f190190565b51906001600160a01b0382168203611aa857565b5f5b8281106136bd57505050565b5f828201556001016136b1565b156136d157565b60405162461bcd60e51b815260206004820152601860248201527f526166666c653a206e6f7420646973747269627574696e6700000000000000006044820152606490fd5b5f54805b61372357505f90565b805f52600160205260ff600660405f20015460a01c16613576576137469061368f565b8061371a565b335f9081527f05b8ccbb9d4d8fb16ea74ce3c29a41f1b461fbdaff4714a0d9a8eb05499746bc602052604090205460ff161561378457565b63e2517d3f60e01b5f52336004525f60245260445ffd5b335f9081527f3194543997e30ee1cba2eab5e1e091ac29a86efc163cf6c9547387b11178f833602052604090205460ff16156137d357565b63e2517d3f60e01b5f52336004527fc5e2433d0a3c75ef5e37c4e28ccd84092c7dcdc38a7fff2e2a116ad41013a65660245260445ffd5b335f9081527ffbc93671eda18a3103415c6de11b46be272fd03129c33970fab0bfd26d35c8a0602052604090205460ff161561384257565b63e2517d3f60e01b5f52336004527fbf233dd2aafeb4d50879c4aa5c81e96d92f6e6945c906a58f9f2d1c1631b4b2660245260445ffd5b5f81815260056020908152604080832033845290915290205460ff161561389d5750565b63e2517d3f60e01b5f523360045260245260445ffd5b6002600654146138c4576002600655565b633ee5aeb560e01b5f5260045ffd5b5f815f52600260205260405f20825f52600160205260405f2060038201546003820161ffff81541660068501906040519182602082549182815201915f5260205f20905f5b818110613d4e5750505090613933836139399493038361310c565b866141aa565b8051600486016001600160401b03821161263057600160401b8211612630578054828255808310613d32575b5060208301905f5260205f205f5b838110613d155750505050867f5fa006001f7473b386c7bb4db093cb973ce5c895e51c3813bdbd723097d0349e604051806139ae8582613006565b0390a2600e546001600160a01b031615613d065760018501918254158015613cfd575b8015613cf5575b613c6f575460101c61ffff1680613c66575061ffff80600e5460a01c165b166127108111612de1578084029084820414841517156132eb57612710900490613a208285613579565b815190919015613c5f576001600160a01b0390613a3c906132a9565b51165b6001600160a01b0316928315613c50575460058601546001600160a01b031693908415612d7f57600e546001600160a01b031690813b15611aa8575f60c4928c9282966040519889978896633d1a5f4560e11b8852600488015260018060a01b037f000000000000000000000000000000000000000000000000000000000000000016602488015260448701526064860152608485015260a48401525af1801561219f57613c3b575b50600e546001600160a01b0316813b156111aa57604051633c420b8960e01b81526001600160a01b03919091166004820152602481018390529085908290604490829084905af18015613c3057908591613c1b575b5050600e546001600160a01b031690813b156111ae578491604483926040519485938492633570298360e01b84528b600485015260248401525af180156110cf57613c06575b50600601805460ff60a81b1916600160a81b179055805460ff19166005179055600e546040516001600160a01b039190911681527fc48a6bc3c0c009e1f8ccd8bca8aeee55410aaf210eec6e5e0cba85a3708bfb2b919083907f42ffdc40c5f007722e9a55cd5189a3970d893c660e7f064530bf5e7d3d3d061190602090a280a2565b613c1184809261310c565b61121b575f613b83565b81613c259161310c565b6110c357835f613b3d565b6040513d87823e3d90fd5b613c489195505f9061310c565b5f935f613ae8565b63992667eb60e01b5f5260045ffd5b505f613a3f565b61ffff906139f6565b50505050600601805460ff60a81b1916600160a81b179055805460ff1916600517905550600e546040516001600160a01b0391909116815281907f42ffdc40c5f007722e9a55cd5189a3970d893c660e7f064530bf5e7d3d3d061190602090a27fc48a6bc3c0c009e1f8ccd8bca8aeee55410aaf210eec6e5e0cba85a3708bfb2b5f80a2565b5083156139d8565b508151156139d1565b6312df801960e01b5f5260045ffd5b82516001600160a01b031681830155602090920191600101613973565b613d4890825f52838060205f20019103906136af565b5f613965565b8254845260209093019260019283019201613918565b6001600160a01b0381165f9081527f3194543997e30ee1cba2eab5e1e091ac29a86efc163cf6c9547387b11178f833602052604090205460ff16613e30576001600160a01b03165f8181527f3194543997e30ee1cba2eab5e1e091ac29a86efc163cf6c9547387b11178f83360205260408120805460ff191660011790553391907fc5e2433d0a3c75ef5e37c4e28ccd84092c7dcdc38a7fff2e2a116ad41013a656907f2f8788117e7eff1d82e926ec794901d17c78024a50270940304540a733656f0d9080a4600190565b505f90565b5f8181526005602090815260408083206001600160a01b038616845290915290205460ff16613ebb575f8181526005602090815260408083206001600160a01b0395909516808452949091528120805460ff19166001179055339291907f2f8788117e7eff1d82e926ec794901d17c78024a50270940304540a733656f0d9080a4600190565b50505f90565b5f8181526005602090815260408083206001600160a01b038616845290915290205460ff1615613ebb575f8181526005602090815260408083206001600160a01b0395909516808452949091528120805460ff19169055339291907ff6391f5c32d9c69d2a47ea670b442974b53935d1edc7fd64eb21e047a839171b9080a4600190565b6040519063125fa26760e31b602083015251151560248201526024815261357660448261310c565b5f60443d10613576576040513d600319016004823e8051913d60248401116001600160401b03841117613fd957828201928351916001600160401b038311613fd1573d84016003190185840160200111613fd157506135769291016020019061310c565b949350505050565b92915050565b5f90303b15611aa857604051639cfea25360e01b8152600481018290525f8160248183305af19081614145575b50614113578160033d11614103575b6308c379a0146140b7575b3d1561408c577ff9431bad44a1ee2788f4a43142150f552534b92dcdf087874c182d19b0792b5f6140863d61405a8161312d565b90614068604051928361310c565b81523d85602083013e5b604051918291602083526020830190612f1a565b0390a290565b7ff9431bad44a1ee2788f4a43142150f552534b92dcdf087874c182d19b0792b5f6140866060614072565b6140bf613f6d565b806140ca5750614026565b6140867fb70ad4955334f7f9fa2b6322ff21867a384419c6870275b0a2fe8c511fdfe50391604051918291602083526020830190612f1a565b50600482803e815160e01c61401b565b90507f23b52568e031c9ec6ecacbd69250684ab7d8e76f078ad907633d383c0f54b994602060405160018152a2600190565b6141529193505f9061310c565b5f915f61400c565b9061416482613155565b614171604051918261310c565b8281528092614182601f1991613155565b0190602036910137565b8115614196570690565b634e487b7160e01b5f52601260045260245ffd5b9260028401549283158015614383575b8015614377575b61435a57600885019283549360018514614312575061ffff16936141e48561415a565b916141ee85613155565b946141fc604051968761310c565b80865261420b601f1991613155565b013660208701375f935f5b87811080614309575b156142be576142428461423c61423686518561418c565b866132ca565b5161418c565b600181018091116132eb57614257908a61438f565b6001600160a01b0316801515806142ac575b61427e575b50506142799061338a565b614216565b96600161429e6142a493614279959a614297858c6132ca565b528b6132ca565b5261338a565b95905f61426e565b506142b7828a6132ca565b5115614269565b5095505050935090506142d08161415a565b905f5b8181106142e1575090925050565b6001906001600160a01b036142f682886132ca565b511661430282866132ca565b52016142d3565b5087861061421f565b9450505092505061433b6040519161432b60408461310c565b6001835260203681850137613363565b905460039190911b1c6001600160a01b0316614356826132a9565b5290565b509250505060405161436d60208261310c565b5f81525f36813790565b5061ffff8316156141c1565b506008850154156141ba565b915f9060015b60088501805484101561440457836143ac91613375565b905460039190911b1c6001600160a01b03165f8181526007870160205260409020546143d890836132de565b91851015806143fb575b6143f25750600190920191614395565b94505091509190565b508185106143e2565b5050925050505f19905f9056fe7efd340bbdce3a2eb491d9d6cbf0c02bacdfbf9656316aa37c8bf0e856c9f8f62f8788117e7eff1d82e926ec794901d17c78024a50270940304540a733656f0dd56ce40da2f8e4ce89407c5b8f94ad55d87937ba4f5ffc9301e2771bef9f0d03fbc93671eda18a3103415c6de11b46be272fd03129c33970fab0bfd26d35c8a005b8ccbb9d4d8fb16ea74ce3c29a41f1b461fbdaff4714a0d9a8eb05499746bc","linkReferences":{}},"methodIdentifiers":{"BONDING_CURVE_ROLE()":"354443a0","DEFAULT_ADMIN_ROLE()":"a217fddf","EMERGENCY_ROLE()":"20df4359","SEASON_CREATOR_ROLE()":"98f0e3e9","VRF_REQUEST_CONFIRMATIONS()":"1e27580e","_executeFinalizationExternal(uint256)":"9cfea253","acceptOwnership()":"79ba5097","canCreateSeason(address)":"27c02f5a","completeSeasonManually(uint256)":"e59eee38","createSeason((string,uint256,uint256,uint16,uint16,address,address,address,address,bool,bool,bool),(uint128,uint128)[],uint16,uint16)":"ac5729b4","currentSeasonId()":"dc293382","defaultGrandPrizeBps()":"05274b02","finalizeSeason(uint256)":"274435cc","fundPrizeDistributor(uint256)":"6667bf43","gatingContract()":"32847b47","getCoordinatorAddress()":"48144bc6","getCurrentSeason()":"d3b30b75","getFinalPlayerPosition(uint256,address)":"cd1c41ea","getNumberRange(uint256,address)":"17077a3b","getParticipantNumberRange(uint256,address)":"593d03a0","getParticipantPosition(uint256,address)":"f1412d94","getParticipants(uint256)":"c1e3bd3e","getPlayerList(uint256)":"200ad21b","getRoleAdmin(bytes32)":"248a9ca3","getSeasonDetails(uint256)":"1c30c76b","getSeasonWinner(uint256)":"7793d7dd","getTotalTickets(uint256)":"18906287","getVrfRequestForSeason(uint256)":"5b9180d5","getWinners(uint256)":"6b1426a4","grantRole(bytes32,address)":"2f2ff15d","hasRole(bytes32,address)":"91d14854","hatsProtocol()":"c049098f","isSeasonActive(uint256)":"6044f7e2","owner()":"8da5cb5b","pauseSeason(uint256)":"3aa4159e","prizeDistributor()":"d00d23e3","rawFulfillRandomWords(uint256,uint256[])":"1fe543e3","recordParticipant(uint256,address,uint256)":"26182e7b","removeParticipant(uint256,address,uint256)":"8d12036c","renounceRole(bytes32,address)":"36568abe","requestSeasonEnd(uint256)":"3e81d1ca","requestSeasonEndEarly(uint256)":"76ec73c2","revokeRole(bytes32,address)":"d547741f","s_vrfCoordinator()":"9eccacf6","seasonFactory()":"d1248d27","seasonStates(uint256)":"d6769d42","seasons(uint256)":"f5d709a1","setCoordinator(address)":"8ea98117","setDefaultGrandPrizeBps(uint16)":"0da6f7a1","setGatingContract(address)":"740a901f","setHatsProtocol(address)":"24674429","setPrizeDistributor(address)":"1677d468","setSeasonFactory(address)":"b924c140","setSponsorHat(uint256)":"1a9e6d5c","setupPrizeDistributionManually(uint256)":"d0727913","sofToken()":"06f6fc13","sponsorHatId()":"ef4bf354","startSeason(uint256)":"703dbfe4","supportsInterface(bytes4)":"01ffc9a7","transferOwnership(address)":"f2fde38b","updateVRFConfig(uint64,bytes32,uint32)":"8df48e66","vrfCallbackGasLimit()":"3b7ed734","vrfKeyHash()":"041d443e","vrfRequestToSeason(uint256)":"b71d1627","vrfSubscriptionId()":"ed647d21"},"id":90}