{"abi":[{"type":"constructor","inputs":[{"name":"initialAdmin","type":"address","internalType":"address"}],"stateMutability":"nonpayable"},{"type":"function","name":"DEFAULT_ADMIN_ROLE","inputs":[],"outputs":[{"name":"","type":"bytes32","internalType":"bytes32"}],"stateMutability":"view"},{"type":"function","name":"RAFFLE_ROLE","inputs":[],"outputs":[{"name":"","type":"bytes32","internalType":"bytes32"}],"stateMutability":"view"},{"type":"function","name":"claimConsolation","inputs":[{"name":"seasonId","type":"uint256","internalType":"uint256"}],"outputs":[],"stateMutability":"nonpayable"},{"type":"function","name":"claimGrand","inputs":[{"name":"seasonId","type":"uint256","internalType":"uint256"}],"outputs":[],"stateMutability":"nonpayable"},{"type":"function","name":"claimSponsoredERC20","inputs":[{"name":"seasonId","type":"uint256","internalType":"uint256"}],"outputs":[],"stateMutability":"nonpayable"},{"type":"function","name":"claimSponsoredERC721","inputs":[{"name":"seasonId","type":"uint256","internalType":"uint256"}],"outputs":[],"stateMutability":"nonpayable"},{"type":"function","name":"configureSeason","inputs":[{"name":"seasonId","type":"uint256","internalType":"uint256"},{"name":"token","type":"address","internalType":"address"},{"name":"grandWinner","type":"address","internalType":"address"},{"name":"grandAmount","type":"uint256","internalType":"uint256"},{"name":"consolationAmount","type":"uint256","internalType":"uint256"},{"name":"totalParticipants","type":"uint256","internalType":"uint256"}],"outputs":[],"stateMutability":"nonpayable"},{"type":"function","name":"configureTiers","inputs":[{"name":"seasonId","type":"uint256","internalType":"uint256"},{"name":"tiers","type":"tuple[]","internalType":"struct IRafflePrizeDistributor.TierConfig[]","components":[{"name":"winnerCount","type":"uint16","internalType":"uint16"}]}],"outputs":[],"stateMutability":"nonpayable"},{"type":"function","name":"fundSeason","inputs":[{"name":"seasonId","type":"uint256","internalType":"uint256"},{"name":"amount","type":"uint256","internalType":"uint256"}],"outputs":[],"stateMutability":"nonpayable"},{"type":"function","name":"getERC20TotalByToken","inputs":[{"name":"seasonId","type":"uint256","internalType":"uint256"},{"name":"token","type":"address","internalType":"address"}],"outputs":[{"name":"","type":"uint256","internalType":"uint256"}],"stateMutability":"view"},{"type":"function","name":"getRoleAdmin","inputs":[{"name":"role","type":"bytes32","internalType":"bytes32"}],"outputs":[{"name":"","type":"bytes32","internalType":"bytes32"}],"stateMutability":"view"},{"type":"function","name":"getSeason","inputs":[{"name":"seasonId","type":"uint256","internalType":"uint256"}],"outputs":[{"name":"","type":"tuple","internalType":"struct IRafflePrizeDistributor.SeasonPayouts","components":[{"name":"token","type":"address","internalType":"address"},{"name":"grandWinner","type":"address","internalType":"address"},{"name":"grandAmount","type":"uint256","internalType":"uint256"},{"name":"consolationAmount","type":"uint256","internalType":"uint256"},{"name":"totalParticipants","type":"uint256","internalType":"uint256"},{"name":"funded","type":"bool","internalType":"bool"},{"name":"grandClaimed","type":"bool","internalType":"bool"}]}],"stateMutability":"view"},{"type":"function","name":"getSponsoredERC20","inputs":[{"name":"seasonId","type":"uint256","internalType":"uint256"}],"outputs":[{"name":"","type":"tuple[]","internalType":"struct RafflePrizeDistributor.SponsoredERC20[]","components":[{"name":"token","type":"address","internalType":"address"},{"name":"amount","type":"uint256","internalType":"uint256"},{"name":"sponsor","type":"address","internalType":"address"},{"name":"targetTier","type":"uint256","internalType":"uint256"}]}],"stateMutability":"view"},{"type":"function","name":"getSponsoredERC721","inputs":[{"name":"seasonId","type":"uint256","internalType":"uint256"}],"outputs":[{"name":"","type":"tuple[]","internalType":"struct RafflePrizeDistributor.SponsoredERC721[]","components":[{"name":"token","type":"address","internalType":"address"},{"name":"tokenId","type":"uint256","internalType":"uint256"},{"name":"sponsor","type":"address","internalType":"address"},{"name":"targetTier","type":"uint256","internalType":"uint256"}]}],"stateMutability":"view"},{"type":"function","name":"getTierConfigs","inputs":[{"name":"seasonId","type":"uint256","internalType":"uint256"}],"outputs":[{"name":"","type":"tuple[]","internalType":"struct IRafflePrizeDistributor.TierConfig[]","components":[{"name":"winnerCount","type":"uint16","internalType":"uint16"}]}],"stateMutability":"view"},{"type":"function","name":"getTierWinners","inputs":[{"name":"seasonId","type":"uint256","internalType":"uint256"},{"name":"tierIndex","type":"uint256","internalType":"uint256"}],"outputs":[{"name":"","type":"address[]","internalType":"address[]"}],"stateMutability":"view"},{"type":"function","name":"getWinnerTier","inputs":[{"name":"seasonId","type":"uint256","internalType":"uint256"},{"name":"winner","type":"address","internalType":"address"}],"outputs":[{"name":"isTierWinner","type":"bool","internalType":"bool"},{"name":"tierIndex","type":"uint256","internalType":"uint256"}],"stateMutability":"view"},{"type":"function","name":"grantAdmin","inputs":[{"name":"account","type":"address","internalType":"address"}],"outputs":[],"stateMutability":"nonpayable"},{"type":"function","name":"grantRole","inputs":[{"name":"role","type":"bytes32","internalType":"bytes32"},{"name":"account","type":"address","internalType":"address"}],"outputs":[],"stateMutability":"nonpayable"},{"type":"function","name":"hasRole","inputs":[{"name":"role","type":"bytes32","internalType":"bytes32"},{"name":"account","type":"address","internalType":"address"}],"outputs":[{"name":"","type":"bool","internalType":"bool"}],"stateMutability":"view"},{"type":"function","name":"isConsolationClaimed","inputs":[{"name":"seasonId","type":"uint256","internalType":"uint256"},{"name":"account","type":"address","internalType":"address"}],"outputs":[{"name":"","type":"bool","internalType":"bool"}],"stateMutability":"view"},{"type":"function","name":"isSponsoredERC20Claimed","inputs":[{"name":"seasonId","type":"uint256","internalType":"uint256"},{"name":"prizeIndex","type":"uint256","internalType":"uint256"},{"name":"winner","type":"address","internalType":"address"}],"outputs":[{"name":"","type":"bool","internalType":"bool"}],"stateMutability":"view"},{"type":"function","name":"isSponsoredERC721Claimed","inputs":[{"name":"seasonId","type":"uint256","internalType":"uint256"},{"name":"prizeIndex","type":"uint256","internalType":"uint256"}],"outputs":[{"name":"","type":"bool","internalType":"bool"}],"stateMutability":"view"},{"type":"function","name":"lockSponsorships","inputs":[{"name":"seasonId","type":"uint256","internalType":"uint256"}],"outputs":[],"stateMutability":"nonpayable"},{"type":"function","name":"onERC721Received","inputs":[{"name":"","type":"address","internalType":"address"},{"name":"","type":"address","internalType":"address"},{"name":"","type":"uint256","internalType":"uint256"},{"name":"","type":"bytes","internalType":"bytes"}],"outputs":[{"name":"","type":"bytes4","internalType":"bytes4"}],"stateMutability":"nonpayable"},{"type":"function","name":"renounceRole","inputs":[{"name":"role","type":"bytes32","internalType":"bytes32"},{"name":"callerConfirmation","type":"address","internalType":"address"}],"outputs":[],"stateMutability":"nonpayable"},{"type":"function","name":"revokeAdmin","inputs":[{"name":"account","type":"address","internalType":"address"}],"outputs":[],"stateMutability":"nonpayable"},{"type":"function","name":"revokeRole","inputs":[{"name":"role","type":"bytes32","internalType":"bytes32"},{"name":"account","type":"address","internalType":"address"}],"outputs":[],"stateMutability":"nonpayable"},{"type":"function","name":"setTierWinners","inputs":[{"name":"seasonId","type":"uint256","internalType":"uint256"},{"name":"allWinners","type":"address[]","internalType":"address[]"}],"outputs":[],"stateMutability":"nonpayable"},{"type":"function","name":"sponsorERC20","inputs":[{"name":"seasonId","type":"uint256","internalType":"uint256"},{"name":"token","type":"address","internalType":"address"},{"name":"amount","type":"uint256","internalType":"uint256"},{"name":"targetTier","type":"uint256","internalType":"uint256"}],"outputs":[],"stateMutability":"nonpayable"},{"type":"function","name":"sponsorERC721","inputs":[{"name":"seasonId","type":"uint256","internalType":"uint256"},{"name":"token","type":"address","internalType":"address"},{"name":"tokenId","type":"uint256","internalType":"uint256"},{"name":"targetTier","type":"uint256","internalType":"uint256"}],"outputs":[],"stateMutability":"nonpayable"},{"type":"function","name":"supportsInterface","inputs":[{"name":"interfaceId","type":"bytes4","internalType":"bytes4"}],"outputs":[{"name":"","type":"bool","internalType":"bool"}],"stateMutability":"view"},{"type":"event","name":"AdminGranted","inputs":[{"name":"account","type":"address","indexed":true,"internalType":"address"}],"anonymous":false},{"type":"event","name":"AdminRevoked","inputs":[{"name":"account","type":"address","indexed":true,"internalType":"address"}],"anonymous":false},{"type":"event","name":"ConsolationClaimed","inputs":[{"name":"seasonId","type":"uint256","indexed":true,"internalType":"uint256"},{"name":"account","type":"address","indexed":true,"internalType":"address"},{"name":"amount","type":"uint256","indexed":false,"internalType":"uint256"}],"anonymous":false},{"type":"event","name":"ERC20Sponsored","inputs":[{"name":"seasonId","type":"uint256","indexed":true,"internalType":"uint256"},{"name":"sponsor","type":"address","indexed":true,"internalType":"address"},{"name":"token","type":"address","indexed":true,"internalType":"address"},{"name":"amount","type":"uint256","indexed":false,"internalType":"uint256"}],"anonymous":false},{"type":"event","name":"ERC721Sponsored","inputs":[{"name":"seasonId","type":"uint256","indexed":true,"internalType":"uint256"},{"name":"sponsor","type":"address","indexed":true,"internalType":"address"},{"name":"token","type":"address","indexed":true,"internalType":"address"},{"name":"tokenId","type":"uint256","indexed":false,"internalType":"uint256"}],"anonymous":false},{"type":"event","name":"GrandClaimed","inputs":[{"name":"seasonId","type":"uint256","indexed":true,"internalType":"uint256"},{"name":"winner","type":"address","indexed":true,"internalType":"address"},{"name":"amount","type":"uint256","indexed":false,"internalType":"uint256"}],"anonymous":false},{"type":"event","name":"RoleAdminChanged","inputs":[{"name":"role","type":"bytes32","indexed":true,"internalType":"bytes32"},{"name":"previousAdminRole","type":"bytes32","indexed":true,"internalType":"bytes32"},{"name":"newAdminRole","type":"bytes32","indexed":true,"internalType":"bytes32"}],"anonymous":false},{"type":"event","name":"RoleGranted","inputs":[{"name":"role","type":"bytes32","indexed":true,"internalType":"bytes32"},{"name":"account","type":"address","indexed":true,"internalType":"address"},{"name":"sender","type":"address","indexed":true,"internalType":"address"}],"anonymous":false},{"type":"event","name":"RoleRevoked","inputs":[{"name":"role","type":"bytes32","indexed":true,"internalType":"bytes32"},{"name":"account","type":"address","indexed":true,"internalType":"address"},{"name":"sender","type":"address","indexed":true,"internalType":"address"}],"anonymous":false},{"type":"event","name":"SeasonConfigured","inputs":[{"name":"seasonId","type":"uint256","indexed":true,"internalType":"uint256"},{"name":"token","type":"address","indexed":true,"internalType":"address"},{"name":"grandWinner","type":"address","indexed":true,"internalType":"address"},{"name":"grandAmount","type":"uint256","indexed":false,"internalType":"uint256"},{"name":"consolationAmount","type":"uint256","indexed":false,"internalType":"uint256"},{"name":"totalParticipants","type":"uint256","indexed":false,"internalType":"uint256"}],"anonymous":false},{"type":"event","name":"SeasonFunded","inputs":[{"name":"seasonId","type":"uint256","indexed":true,"internalType":"uint256"},{"name":"amount","type":"uint256","indexed":false,"internalType":"uint256"}],"anonymous":false},{"type":"event","name":"SponsoredERC20Claimed","inputs":[{"name":"seasonId","type":"uint256","indexed":true,"internalType":"uint256"},{"name":"winner","type":"address","indexed":true,"internalType":"address"},{"name":"token","type":"address","indexed":true,"internalType":"address"},{"name":"amount","type":"uint256","indexed":false,"internalType":"uint256"}],"anonymous":false},{"type":"event","name":"SponsoredERC721Claimed","inputs":[{"name":"seasonId","type":"uint256","indexed":true,"internalType":"uint256"},{"name":"winner","type":"address","indexed":true,"internalType":"address"},{"name":"token","type":"address","indexed":true,"internalType":"address"},{"name":"tokenId","type":"uint256","indexed":false,"internalType":"uint256"}],"anonymous":false},{"type":"event","name":"SponsorshipsLocked","inputs":[{"name":"seasonId","type":"uint256","indexed":true,"internalType":"uint256"}],"anonymous":false},{"type":"event","name":"TierWinnersSet","inputs":[{"name":"seasonId","type":"uint256","indexed":true,"internalType":"uint256"},{"name":"tierCount","type":"uint256","indexed":false,"internalType":"uint256"}],"anonymous":false},{"type":"event","name":"TiersConfigured","inputs":[{"name":"seasonId","type":"uint256","indexed":true,"internalType":"uint256"},{"name":"tierCount","type":"uint256","indexed":false,"internalType":"uint256"},{"name":"totalWinners","type":"uint256","indexed":false,"internalType":"uint256"}],"anonymous":false},{"type":"error","name":"AccessControlBadConfirmation","inputs":[]},{"type":"error","name":"AccessControlUnauthorizedAccount","inputs":[{"name":"account","type":"address","internalType":"address"},{"name":"neededRole","type":"bytes32","internalType":"bytes32"}]},{"type":"error","name":"ReentrancyGuardReentrantCall","inputs":[]},{"type":"error","name":"SafeERC20FailedOperation","inputs":[{"name":"token","type":"address","internalType":"address"}]}],"bytecode":{"object":"0x60803461007b57601f612b1c38819003918201601f19168301916001600160401b0383118484101761007f5780849260209460405283398101031261007b57516001600160a01b03811680820361007b5760018055610072575061006233610093565b506040516129df908161011d8239f35b61006290610093565b5f80fd5b634e487b7160e01b5f52604160045260245ffd5b6001600160a01b0381165f9081525f516020612afc5f395f51905f52602052604090205460ff16610117576001600160a01b03165f8181525f516020612afc5f395f51905f5260205260408120805460ff191660011790553391907f2f8788117e7eff1d82e926ec794901d17c78024a50270940304540a733656f0d8180a4600190565b505f9056fe6080806040526004361015610012575f80fd5b5f905f3560e01c90816301ffc9a7146119bf57508063084a8609146119025780630aab602d146118ad5780630e8bb18a14611873578063150b7a02146117d5578063248a9ca3146117a35780632d345670146117495780632f2ff15d1461170c57806335702983146114f357806335bb3e161461149957806336568abe146114535780634db64ee71461142f57806362e2abf414611358578063637c2d801461126b5780637a34be8a146110745780637e040f0114610f8757806381b2aa6614610db157806391d1485414610d695780639eab76ff14610d355780639f05dede14610afa5780639f53c92014610ab1578063a08b26ac146108a6578063a217fddf1461088c578063a43d86541461078c578063a97553c7146105d0578063b2be4720146105a6578063b5dbc2f9146104f6578063d1396fea1461037b578063d547741f14610334578063d837d91c14610231578063e09dcebb146101ec5763ed93fba31461017e575f80fd5b346101e95760403660031901126101e957604090600435908261019f611a54565b91838152600a60205281812060018060a01b0384165f5260205260ff825f2054169381526009602052209060018060a01b03165f52602052815f2054825191151582526020820152f35b80fd5b50346101e95760403660031901126101e9576040610208611a54565b9160043581526006602052209060018060a01b03165f52602052602060405f2054604051908152f35b50346101e95760203660031901126101e95760043561024e612904565b80825260026020526040822060058101805461026c60ff8216611b56565b60ff8160081c166102ef576101009061029260018060a01b036001860154163314611bee565b61ff00191617905580546002909101805490916102ba919033906001600160a01b0316612924565b54906040519182527faec7c76f411b9b5a8d9d189ac175918597fb1f2d39c0697816416de93a3bc52f60203393a36001805580f35b60405162461bcd60e51b815260206004820152601a60248201527f4469737472696275746f723a206772616e6420636c61696d65640000000000006044820152606490fd5b50346101e95760403660031901126101e957610377600435610354611a54565b9061037261036d825f525f602052600160405f20015490565b6126b9565b612778565b5080f35b50346104e15761038a36611b1b565b929091610395612904565b6103a08215156120e8565b6001600160a01b0316926103b5841515612171565b815f5260026020526103d460ff600560405f20015460101c16156121bd565b815f52600760205260405f2054806104e5575b50833b156104e157604051632142170760e11b8152336004820152306024820152604481018490525f8160648183895af180156104d6576104c1575b508185526005602052604085206040519161043d83611a86565b8583528460208401523360408401526060830152805490600160401b8210156104ad578161047491600161047a9594018155611d04565b90612254565b6040519182527f6cc4995cad74cf74cac8d3fc851a58ec7ba033141088d31666a0e712d7c02abb60203393a46001805580f35b634e487b7160e01b87526041600452602487fd5b6104ce9195505f90611aa2565b5f935f610423565b6040513d5f823e3d90fd5b5f80fd5b6104f0908210612208565b5f6103e7565b346104e15760203660031901126104e15760043561051261264a565b805f526002602052600560405f2001805460ff8160101c166105615762ff00001916620100001790557f5ba0a7d861502507c1e529fa980ce7ee367491f556d29a4ad979099af312a3d65f80a2005b60405162461bcd60e51b815260206004820152601b60248201527f4469737472696275746f723a20616c7265616479206c6f636b656400000000006044820152606490fd5b346104e15760203660031901126104e1576105bf612904565b6105ca6004356122a2565b60018055005b346104e1576105de36611b1b565b9290916105e9612904565b6105f48215156120e8565b6001600160a01b031692610609841515612171565b821561074757815f52600260205261062e60ff600560405f20015460101c16156121bd565b815f52600760205260405f205480610736575b506040516323b872dd60e01b60208201523360248201523060448201526064808201859052815261067d90610677608482611aa2565b85612966565b815f52600460205260405f20906040519061069782611a86565b8582528460208301523360408301526060820152815491600160401b83101561072257826104749160016106cd95018155611d04565b805f52600660205260405f20835f5260205260405f206106ee838254611b49565b90556040519182527fe973739b2ccd3e65e48b2803a2c84931987b53f8e36fdcfcd3a028248dd1c37360203393a460018055005b634e487b7160e01b5f52604160045260245ffd5b610741908210612208565b84610641565b60405162461bcd60e51b815260206004820152601860248201527f4469737472696275746f723a207a65726f20616d6f756e7400000000000000006044820152606490fd5b346104e15760203660031901126104e1575f60c06040516107ac81611a6a565b8281528260208201528260408201528260608201528260808201528260a082015201526004355f52600260205260e060405f2060018060a01b038154169060018060a01b03600182015416600282015491600381015460056004830154920154936040519361081a85611a6a565b8685526020850190815260408501918252606085019283526080850193845260ff60c060a087019682891615158852019660081c161515865260405196875260018060a01b03905116602087015251604086015251606085015251608084015251151560a083015251151560c0820152f35b346104e1575f3660031901126104e15760206040515f8152f35b346104e1576108b436611ac4565b916108bd61264a565b805f52600760205260405f2091825415610a6d5791925f9290835b8554851015610a3e57835f52600860205260405f20855f5260205260405f208054905f815581610a20575b505061ffff6109128688611d1d565b505416955f5b87811080610a0e575b156109f65761093a6109338285611b49565b8587612134565b356001600160a01b038116908190036104e157865f52600860205260405f20885f5260205260405f208054600160401b8110156107225761098091600182018155611d1d565b81549060031b9083821b9160018060a01b03901b1916179055865f52600960205260405f20815f526020528760405f2055865f52600a60205260405f20905f5260205260405f20600160ff198254161790555f1981146109e257600101610918565b634e487b7160e01b5f52601160045260245ffd5b509495610a0590600192611b49565b950193946108d8565b5083610a1a8285611b49565b10610921565b5f5260205f20908101905b81811015610903575f8155600101610a2b565b837f4e9a733b7fc177559634d12c8caea8b2e58e08183e019e222facaba14d0b26f460208854604051908152a2005b606460405162461bcd60e51b815260206004820152602060248201527f4469737472696275746f723a206e6f20746965727320636f6e666967757265646044820152fd5b346104e15760403660031901126104e157610aca611a54565b6004355f52600360205260405f209060018060a01b03165f52602052602060ff60405f2054166040519015158152f35b346104e15760203660031901126104e157600435610b16612904565b805f52600260205260405f2090610b3360ff600584015416611b56565b60018201546001600160a01b03163314610cdb575f81815260036020908152604080832033845290915290205460ff16610c965760048201546001811115610c46575f1981019081116109e257610b8e906003840154612153565b918215610c01575f828152600360209081526040808320338085529252909120805460ff191660011790559054610bcf9184916001600160a01b0316612924565b6040519182527f0b9e1a4dac9f8b3fb1f79c5ecd6c4b4310a780e8c7f7933bfef848257f984ab560203393a360018055005b60405162461bcd60e51b815260206004820152601860248201527f4469737472696275746f723a20616d6f756e74207a65726f00000000000000006044820152606490fd5b60405162461bcd60e51b815260206004820152602260248201527f4469737472696275746f723a206e6f206f74686572207061727469636970616e604482015261747360f01b6064820152608490fd5b60405162461bcd60e51b815260206004820152601c60248201527f4469737472696275746f723a20616c726561647920636c61696d6564000000006044820152606490fd5b60405162461bcd60e51b815260206004820152602c60248201527f4469737472696275746f723a2077696e6e65722063616e6e6f7420636c61696d60448201526b1031b7b739b7b630ba34b7b760a11b6064820152608490fd5b346104e157610d4336611a12565b905f52600c60205260405f20905f52602052602060ff60405f2054166040519015158152f35b346104e15760403660031901126104e157610d82611a54565b6004355f525f60205260405f209060018060a01b03165f52602052602060ff60405f2054166040519015158152f35b346104e157610dbf36611ac4565b610dca92919261264a565b610dd58215156120e8565b8015610f4a57815f52600760205260405f208054905f815581610f2c575b50505f925f5b828110610e3357837fd3163272f0bb4252b13eb4d8fc2ca259c7f11d09694ac0a304d1b00688554f2f6040858882519182526020820152a2005b909361ffff610e4b610e46848689612134565b612144565b1615610edd57835f52600760205260405f20610e68838588612134565b908054600160401b81101561072257610e8691600182018155611d1d565b929092610eca5760019261ffff610e9f610ec294612144565b1661ffff1982541617905561ffff610ebb610e4686888b612134565b1690611b49565b949101610df9565b634e487b7160e01b5f525f60045260245ffd5b60405162461bcd60e51b815260206004820152602160248201527f4469737472696275746f723a207a65726f2077696e6e65727320696e207469656044820152603960f91b6064820152608490fd5b5f5260205f20908101905b81811015610df3575f8155600101610f37565b60405162461bcd60e51b81526020600482015260156024820152744469737472696275746f723a206e6f20746965727360581b6044820152606490fd5b346104e15760203660031901126104e1576004355f52600560205260405f20805490610fb282611c3a565b91610fc06040519384611aa2565b8083526020830180925f5260205f205f915b838310611056578486604051918291602083019060208452518091526040830191905f5b818110611004575050500390f35b91935091602060808261104860019488516060809160018060a01b0381511684526020810151602085015260018060a01b0360408201511660408501520151910152565b019401910191849392610ff6565b6004602060019261106685611c52565b815201920192019190610fd2565b346104e15760c03660031901126104e157600435611090611a54565b90611099611a28565b906064359260843560a435916110ad61264a565b6001600160a01b0316938415611226576001600160a01b03169485156111e15780156111a5578215611160577feb5d91942ca81e2b336cd8bacc9097a1f571098daa2758750248bd1ff2f0aa9692606092855f52600260205281600460405f20896bffffffffffffffffffffffff60a01b825416178155600181018b6bffffffffffffffffffffffff60a01b825416179055856002820155836003820155015560405192835260208301526040820152a4005b60405162461bcd60e51b815260206004820152601b60248201527f4469737472696275746f723a207061727469636970616e7473203000000000006044820152606490fd5b60405162461bcd60e51b815260206004820152601460248201527304469737472696275746f723a206772616e6420360641b6044820152606490fd5b60405162461bcd60e51b815260206004820152601860248201527f4469737472696275746f723a2077696e6e6572207a65726f00000000000000006044820152606490fd5b60405162461bcd60e51b815260206004820152601760248201527f4469737472696275746f723a20746f6b656e207a65726f0000000000000000006044820152606490fd5b346104e15760203660031901126104e1576004355f52600460205260405f2080549061129682611c3a565b916112a46040519384611aa2565b8083526020830180925f5260205f205f915b83831061133a578486604051918291602083019060208452518091526040830191905f5b8181106112e8575050500390f35b91935091602060808261132c60019488516060809160018060a01b0381511684526020810151602085015260018060a01b0360408201511660408501520151910152565b0194019101918493926112da565b6004602060019261134a85611c52565b8152019201920191906112b6565b346104e15760203660031901126104e1576004355f52600760205260405f2080549061138382611c3a565b916113916040519384611aa2565b808352602083019081925f5260205f20915f905b8282106113f5578486604051918291602083019060208452518091526040830191905f5b8181106113d7575050500390f35b82515161ffff168452859450602093840193909201916001016113c9565b6040516020810181811067ffffffffffffffff82111761072257604052845461ffff168152815260019384019391909101906020016113a5565b346104e15760203660031901126104e157611448612904565b6105ca600435611d32565b346104e15760403660031901126104e15761146c611a54565b336001600160a01b0382160361148a5761148890600435612778565b005b63334bd91960e11b5f5260045ffd5b346104e15760203660031901126104e1576114b2611a3e565b6114ba61260e565b6114c3816127fe565b506001600160a01b03167f1c4e23de8d72c94b22992bd4d7b6786b215ba876af214ff63e6a0ca38fc97af45f80a2005b346104e15761150136611a12565b61150961264a565b815f52600260205260405f20600581019182549160ff83166116c75780546001600160a01b031690811561168257806003600261154b93015491015490611b49565b9081830361163d576020602491604051928380926370a0823160e01b82523060048301525afa9081156104d6575f9161160b575b50106115bc577f9677041c49215ca8a68f240e6c2077d6193bb2452346b2c44774f56f3786262992600160209360ff1916179055604051908152a2005b60405162461bcd60e51b815260206004820152602160248201527f4469737472696275746f723a20696e73756666696369656e742062616c616e636044820152606560f81b6064820152608490fd5b90506020813d602011611635575b8161162660209383611aa2565b810103126104e157518661157f565b3d9150611619565b60405162461bcd60e51b815260206004820152601c60248201527f4469737472696275746f723a20616d6f756e74206d69736d61746368000000006044820152606490fd5b60405162461bcd60e51b815260206004820152601b60248201527f4469737472696275746f723a206e6f7420636f6e6669677572656400000000006044820152606490fd5b60405162461bcd60e51b815260206004820152601b60248201527f4469737472696275746f723a20616c72656164792066756e64656400000000006044820152606490fd5b346104e15760403660031901126104e15761148860043561172b611a54565b9061174461036d825f525f602052600160405f20015490565b612882565b346104e15760203660031901126104e157611762611a3e565b61176a61260e565b611773816126f1565b506001600160a01b03167f631ff1c4e1a02c54b480a34b810e03bcee61fe38efcb243930a7f820914923e25f80a2005b346104e15760203660031901126104e15760206117cd6004355f525f602052600160405f20015490565b604051908152f35b346104e15760803660031901126104e1576117ee611a3e565b506117f7611a54565b5060643567ffffffffffffffff81116104e157366023820112156104e15780600401359067ffffffffffffffff82116107225760405191611842601f8201601f191660200184611aa2565b80835236602482840101116104e1575f928160246020940184830137010152604051630a85bd0160e11b8152602090f35b346104e1575f3660031901126104e15760206040517fd404bdeb4016171d635a886ea9b5afdd390eb2c028a3d4a11ad0c6f85728a1538152f35b346104e15760603660031901126104e1576118c6611a28565b6004355f52600b60205260405f206024355f5260205260405f209060018060a01b03165f52602052602060ff60405f2054166040519015158152f35b346104e15761191036611a12565b905f52600860205260405f20905f5260205260405f20604051806020835491828152019081935f5260205f20905f5b8181106119a05750505081611955910382611aa2565b604051918291602083019060208452518091526040830191905f5b81811061197e575050500390f35b82516001600160a01b0316845285945060209384019390920191600101611970565b82546001600160a01b031684526020909301926001928301920161193f565b346104e15760203660031901126104e1576004359063ffffffff60e01b82168092036104e157602091637965db0b60e01b8114908115611a01575b5015158152f35b6301ffc9a760e01b149050836119fa565b60409060031901126104e1576004359060243590565b604435906001600160a01b03821682036104e157565b600435906001600160a01b03821682036104e157565b602435906001600160a01b03821682036104e157565b60e0810190811067ffffffffffffffff82111761072257604052565b6080810190811067ffffffffffffffff82111761072257604052565b90601f8019910116810190811067ffffffffffffffff82111761072257604052565b60406003198201126104e1576004359160243567ffffffffffffffff81116104e15760040182601f820112156104e15780359267ffffffffffffffff84116104e1576020808301928560051b0101116104e1579190565b60809060031901126104e157600435906024356001600160a01b03811681036104e157906044359060643590565b919082018092116109e257565b15611b5d57565b60405162461bcd60e51b815260206004820152601760248201527f4469737472696275746f723a206e6f742066756e6465640000000000000000006044820152606490fd5b15611ba957565b60405162461bcd60e51b815260206004820152601760248201527f4469737472696275746f723a206e6f74206c6f636b65640000000000000000006044820152606490fd5b15611bf557565b60405162461bcd60e51b815260206004820152601760248201527f4469737472696275746f723a206e6f742077696e6e65720000000000000000006044820152606490fd5b67ffffffffffffffff81116107225760051b60200190565b90604051611c5f81611a86565b82546001600160a01b0390811682526001840154602083015260028401541660408201526003909201546060830152565b8051821015611ca45760209160051b010190565b634e487b7160e01b5f52603260045260245ffd5b15611cbf57565b60405162461bcd60e51b815260206004820152601e60248201527f4469737472696275746f723a206e6f74206120746965722077696e6e657200006044820152606490fd5b8054821015611ca4575f5260205f209060021b01905f90565b8054821015611ca4575f5260205f2001905f90565b90815f52600260205260405f20611d5d60ff6005830154611d54828216611b56565b60101c16611ba2565b825f52600760205260405f205415611f2c57505f828152600a60209081526040808320338452909152902054611d959060ff16611cb8565b5f82815260096020908152604080832033845282528083205485845260059092528220915b8254811015611f2557816003611dd08386611d04565b50015403611f1d57845f52600c60205260405f20815f5260205260ff60405f205416611f1d57845f52600860205260405f20825f5260205260405f20805415611ca4575f90815260209020546001600160a01b03163303611f1d57845f52600c60205260405f20815f5260205260405f20600160ff19825416179055611e568184611d04565b50546001600160a01b0316906001611e6e8286611d04565b50015491803b156104e157604051632142170760e11b815230600482015233602482015260448101939093525f908390606490829084905af19182156104d657600192611f0d575b50611ec18185611d04565b50828060a01b0390541682611ed68387611d04565b500154604051908152877f71f6b88008b5d36ea98db2f7648e9ccf3aed437e9289c1cac3d322eebccae0a860203393a45b01611dba565b5f611f1791611aa2565b5f611eb6565b600190611f07565b5050509050565b60010154611f44906001600160a01b03163314611bee565b815f52600560205260405f208054611f5b81611c3a565b91611f696040519384611aa2565b81835260208301905f5260205f205f915b8383106120ca57505050505f5b8151811015612060576001600160a01b03611fa28284611c90565b515116906020611fb28285611c90565b51015191803b156104e157604051632142170760e11b815230600482015233602482015260448101939093525f908390606490829084905af19182156104d657600192612050575b50818060a01b0361200b8285611c90565b515116602061201a8386611c90565b510151604051908152867f71f6b88008b5d36ea98db2f7648e9ccf3aed437e9289c1cac3d322eebccae0a860203393a401611f87565b5f61205a91611aa2565b5f611ffa565b5050905f52600560205260405f208054905f81558161207d575050565b6001600160fe1b03821682036109e2575f5260205f209060021b8101905b8181106120a6575050565b806120c460049260035f918281558260018201558260028201550155565b0161209b565b600460206001926120da85611c52565b815201920192019190611f7a565b156120ef57565b60405162461bcd60e51b815260206004820152601b60248201527f4469737472696275746f723a20696e76616c696420736561736f6e00000000006044820152606490fd5b9190811015611ca45760051b0190565b3561ffff811681036104e15790565b811561215d570490565b634e487b7160e01b5f52601260045260245ffd5b1561217857565b60405162461bcd60e51b815260206004820152601960248201527f4469737472696275746f723a207a65726f2061646472657373000000000000006044820152606490fd5b156121c457565b606460405162461bcd60e51b815260206004820152602060248201527f4469737472696275746f723a2073706f6e736f727368697073206c6f636b65646044820152fd5b1561220f57565b60405162461bcd60e51b815260206004820152601960248201527f4469737472696275746f723a20696e76616c69642074696572000000000000006044820152606490fd5b9190610eca57805182546001600160a01b039182166001600160a01b031991821617845560208301516001850155604083015160028501805491909316911617905560600151600390910155565b805f52600260205260405f206122c360ff6005830154611d54828216611b56565b815f52600760205260405f20541561249c57505f818152600a602090815260408083203384529091529020546122fb9060ff16611cb8565b805f52600960205260405f2060018060a01b0333165f5260205260405f205490805f52600860205260405f20825f5260205260405f2054928315612457575f828152600460205260408120919333915b835481101561244e578082600361236460019488611d04565b5001540361244957855f52600b60205260405f20815f5260205260405f20845f5260205260ff60405f205416612449576123ab88836123a38489611d04565b500154612153565b801561244357865f52600b60205260405f20825f5260205260405f20855f5260205260405f208360ff198254161790556123fa816123e98489611d04565b503390868060a01b03905416612924565b6124048287611d04565b50838060a01b0390541690604051908152877fe1019d54c076b260f98cf5fa0391d073b2a0828be7a3c5bb3966fe194e78758b60203393a45b0161234b565b5061243d565b61243d565b50505050509050565b60405162461bcd60e51b815260206004820152601f60248201527f4469737472696275746f723a206e6f2077696e6e65727320696e2074696572006044820152606490fd5b600101546124b4906001600160a01b03163314611bee565b805f52600460205260405f2080546124cb81611c3a565b916124d96040519384611aa2565b81835260208301905f5260205f205f915b8383106125f057505050505f5b8151811015612587576001906125326001600160a01b036125188386611c90565b51511660206125278487611c90565b510151903390612924565b818060a01b036125428285611c90565b51511660206125518386611c90565b510151604051908152857fe1019d54c076b260f98cf5fa0391d073b2a0828be7a3c5bb3966fe194e78758b60203393a4016124f7565b50505f52600460205260405f208054905f8155816125a3575050565b6001600160fe1b03821682036109e2575f5260205f209060021b8101905b8181106125cc575050565b806125ea60049260035f918281558260018201558260028201550155565b016125c1565b6004602060019261260085611c52565b8152019201920191906124ea565b335f9081525f5160206129bf5f395f51905f52602052604090205460ff161561263357565b63e2517d3f60e01b5f52336004525f60245260445ffd5b335f9081527f19941a73b854fb10f52052a5f1540890f386634eb0df75ef46885612eac59da1602052604090205460ff161561268257565b63e2517d3f60e01b5f52336004527fd404bdeb4016171d635a886ea9b5afdd390eb2c028a3d4a11ad0c6f85728a15360245260445ffd5b5f8181526020818152604080832033845290915290205460ff16156126db5750565b63e2517d3f60e01b5f523360045260245260445ffd5b6001600160a01b0381165f9081525f5160206129bf5f395f51905f52602052604090205460ff1615612773576001600160a01b03165f8181525f5160206129bf5f395f51905f5260205260408120805460ff191690553391907ff6391f5c32d9c69d2a47ea670b442974b53935d1edc7fd64eb21e047a839171b8180a4600190565b505f90565b5f818152602081815260408083206001600160a01b038616845290915290205460ff16156127f8575f818152602081815260408083206001600160a01b0395909516808452949091528120805460ff19169055339291907ff6391f5c32d9c69d2a47ea670b442974b53935d1edc7fd64eb21e047a839171b9080a4600190565b50505f90565b6001600160a01b0381165f9081525f5160206129bf5f395f51905f52602052604090205460ff16612773576001600160a01b03165f8181525f5160206129bf5f395f51905f5260205260408120805460ff191660011790553391907f2f8788117e7eff1d82e926ec794901d17c78024a50270940304540a733656f0d8180a4600190565b5f818152602081815260408083206001600160a01b038616845290915290205460ff166127f8575f818152602081815260408083206001600160a01b0395909516808452949091528120805460ff19166001179055339291907f2f8788117e7eff1d82e926ec794901d17c78024a50270940304540a733656f0d9080a4600190565b600260015414612915576002600155565b633ee5aeb560e01b5f5260045ffd5b60405163a9059cbb60e01b60208201526001600160a01b0390921660248301526044808301939093529181526129649161295f606483611aa2565b612966565b565b905f602091828151910182855af1156104d6575f513d6129b557506001600160a01b0381163b155b6129955750565b635274afe760e01b5f9081526001600160a01b0391909116600452602490fd5b6001141561298e56fead3228b676f7d3cd4284a5443f17f1962b36e491b30a40b2405849e597ba5fb5ad3228b676f7d3cd4284a5443f17f1962b36e491b30a40b2405849e597ba5fb5","linkReferences":{}},"methodIdentifiers":{"DEFAULT_ADMIN_ROLE()":"a217fddf","RAFFLE_ROLE()":"0e8bb18a","claimConsolation(uint256)":"9f05dede","claimGrand(uint256)":"d837d91c","claimSponsoredERC20(uint256)":"b2be4720","claimSponsoredERC721(uint256)":"4db64ee7","configureSeason(uint256,address,address,uint256,uint256,uint256)":"7a34be8a","configureTiers(uint256,(uint16)[])":"81b2aa66","fundSeason(uint256,uint256)":"35702983","getERC20TotalByToken(uint256,address)":"e09dcebb","getRoleAdmin(bytes32)":"248a9ca3","getSeason(uint256)":"a43d8654","getSponsoredERC20(uint256)":"637c2d80","getSponsoredERC721(uint256)":"7e040f01","getTierConfigs(uint256)":"62e2abf4","getTierWinners(uint256,uint256)":"084a8609","getWinnerTier(uint256,address)":"ed93fba3","grantAdmin(address)":"35bb3e16","grantRole(bytes32,address)":"2f2ff15d","hasRole(bytes32,address)":"91d14854","isConsolationClaimed(uint256,address)":"9f53c920","isSponsoredERC20Claimed(uint256,uint256,address)":"0aab602d","isSponsoredERC721Claimed(uint256,uint256)":"9eab76ff","lockSponsorships(uint256)":"b5dbc2f9","onERC721Received(address,address,uint256,bytes)":"150b7a02","renounceRole(bytes32,address)":"36568abe","revokeAdmin(address)":"2d345670","revokeRole(bytes32,address)":"d547741f","setTierWinners(uint256,address[])":"a08b26ac","sponsorERC20(uint256,address,uint256,uint256)":"a97553c7","sponsorERC721(uint256,address,uint256,uint256)":"d1396fea","supportsInterface(bytes4)":"01ffc9a7"},"id":87}