{"abi":[{"type":"constructor","inputs":[{"name":"_sofToken","type":"address","internalType":"address"},{"name":"_vrfCoordinator","type":"address","internalType":"address"},{"name":"_vrfSubscriptionId","type":"uint64","internalType":"uint64"},{"name":"_vrfKeyHash","type":"bytes32","internalType":"bytes32"}],"stateMutability":"nonpayable"},{"type":"function","name":"BONDING_CURVE_ROLE","inputs":[],"outputs":[{"name":"","type":"bytes32","internalType":"bytes32"}],"stateMutability":"view"},{"type":"function","name":"DEFAULT_ADMIN_ROLE","inputs":[],"outputs":[{"name":"","type":"bytes32","internalType":"bytes32"}],"stateMutability":"view"},{"type":"function","name":"EMERGENCY_ROLE","inputs":[],"outputs":[{"name":"","type":"bytes32","internalType":"bytes32"}],"stateMutability":"view"},{"type":"function","name":"SEASON_CREATOR_ROLE","inputs":[],"outputs":[{"name":"","type":"bytes32","internalType":"bytes32"}],"stateMutability":"view"},{"type":"function","name":"VRF_REQUEST_CONFIRMATIONS","inputs":[],"outputs":[{"name":"","type":"uint16","internalType":"uint16"}],"stateMutability":"view"},{"type":"function","name":"createSeason","inputs":[{"name":"config","type":"tuple","internalType":"struct Raffle.SeasonConfig","components":[{"name":"name","type":"string","internalType":"string"},{"name":"startTime","type":"uint256","internalType":"uint256"},{"name":"endTime","type":"uint256","internalType":"uint256"},{"name":"maxParticipants","type":"uint32","internalType":"uint32"},{"name":"winnerCount","type":"uint16","internalType":"uint16"},{"name":"prizePercentage","type":"uint16","internalType":"uint16"},{"name":"consolationPercentage","type":"uint16","internalType":"uint16"},{"name":"isActive","type":"bool","internalType":"bool"},{"name":"isCompleted","type":"bool","internalType":"bool"},{"name":"raffleToken","type":"address","internalType":"address"},{"name":"bondingCurve","type":"address","internalType":"address"}]},{"name":"bondSteps","type":"tuple[]","internalType":"struct SOFBondingCurve.BondStep[]","components":[{"name":"rangeTo","type":"uint128","internalType":"uint128"},{"name":"price","type":"uint128","internalType":"uint128"}]},{"name":"buyFeeBps","type":"uint16","internalType":"uint16"},{"name":"sellFeeBps","type":"uint16","internalType":"uint16"}],"outputs":[{"name":"seasonId","type":"uint256","internalType":"uint256"}],"stateMutability":"nonpayable"},{"type":"function","name":"currentSeasonId","inputs":[],"outputs":[{"name":"","type":"uint256","internalType":"uint256"}],"stateMutability":"view"},{"type":"function","name":"getParticipantNumberRange","inputs":[{"name":"seasonId","type":"uint256","internalType":"uint256"},{"name":"participant","type":"address","internalType":"address"}],"outputs":[{"name":"start","type":"uint256","internalType":"uint256"},{"name":"end","type":"uint256","internalType":"uint256"}],"stateMutability":"view"},{"type":"function","name":"getParticipantPosition","inputs":[{"name":"seasonId","type":"uint256","internalType":"uint256"},{"name":"participant","type":"address","internalType":"address"}],"outputs":[{"name":"position","type":"tuple","internalType":"struct Raffle.ParticipantPosition","components":[{"name":"ticketCount","type":"uint256","internalType":"uint256"},{"name":"entryBlock","type":"uint256","internalType":"uint256"},{"name":"lastUpdateBlock","type":"uint256","internalType":"uint256"},{"name":"isActive","type":"bool","internalType":"bool"}]}],"stateMutability":"view"},{"type":"function","name":"getParticipants","inputs":[{"name":"seasonId","type":"uint256","internalType":"uint256"}],"outputs":[{"name":"","type":"address[]","internalType":"address[]"}],"stateMutability":"view"},{"type":"function","name":"getRoleAdmin","inputs":[{"name":"role","type":"bytes32","internalType":"bytes32"}],"outputs":[{"name":"","type":"bytes32","internalType":"bytes32"}],"stateMutability":"view"},{"type":"function","name":"getSeasonDetails","inputs":[{"name":"seasonId","type":"uint256","internalType":"uint256"}],"outputs":[{"name":"config","type":"tuple","internalType":"struct Raffle.SeasonConfig","components":[{"name":"name","type":"string","internalType":"string"},{"name":"startTime","type":"uint256","internalType":"uint256"},{"name":"endTime","type":"uint256","internalType":"uint256"},{"name":"maxParticipants","type":"uint32","internalType":"uint32"},{"name":"winnerCount","type":"uint16","internalType":"uint16"},{"name":"prizePercentage","type":"uint16","internalType":"uint16"},{"name":"consolationPercentage","type":"uint16","internalType":"uint16"},{"name":"isActive","type":"bool","internalType":"bool"},{"name":"isCompleted","type":"bool","internalType":"bool"},{"name":"raffleToken","type":"address","internalType":"address"},{"name":"bondingCurve","type":"address","internalType":"address"}]},{"name":"status","type":"uint8","internalType":"enum Raffle.SeasonStatus"},{"name":"totalParticipants","type":"uint256","internalType":"uint256"},{"name":"totalTickets","type":"uint256","internalType":"uint256"},{"name":"totalPrizePool","type":"uint256","internalType":"uint256"}],"stateMutability":"view"},{"type":"function","name":"getWinners","inputs":[{"name":"seasonId","type":"uint256","internalType":"uint256"}],"outputs":[{"name":"","type":"address[]","internalType":"address[]"}],"stateMutability":"view"},{"type":"function","name":"grantRole","inputs":[{"name":"role","type":"bytes32","internalType":"bytes32"},{"name":"account","type":"address","internalType":"address"}],"outputs":[],"stateMutability":"nonpayable"},{"type":"function","name":"hasRole","inputs":[{"name":"role","type":"bytes32","internalType":"bytes32"},{"name":"account","type":"address","internalType":"address"}],"outputs":[{"name":"","type":"bool","internalType":"bool"}],"stateMutability":"view"},{"type":"function","name":"pauseSeason","inputs":[{"name":"seasonId","type":"uint256","internalType":"uint256"}],"outputs":[],"stateMutability":"nonpayable"},{"type":"function","name":"rawFulfillRandomWords","inputs":[{"name":"requestId","type":"uint256","internalType":"uint256"},{"name":"randomWords","type":"uint256[]","internalType":"uint256[]"}],"outputs":[],"stateMutability":"nonpayable"},{"type":"function","name":"recordParticipant","inputs":[{"name":"seasonId","type":"uint256","internalType":"uint256"},{"name":"participant","type":"address","internalType":"address"},{"name":"ticketAmount","type":"uint256","internalType":"uint256"}],"outputs":[],"stateMutability":"nonpayable"},{"type":"function","name":"removeParticipant","inputs":[{"name":"seasonId","type":"uint256","internalType":"uint256"},{"name":"participant","type":"address","internalType":"address"},{"name":"ticketAmount","type":"uint256","internalType":"uint256"}],"outputs":[],"stateMutability":"nonpayable"},{"type":"function","name":"renounceRole","inputs":[{"name":"role","type":"bytes32","internalType":"bytes32"},{"name":"callerConfirmation","type":"address","internalType":"address"}],"outputs":[],"stateMutability":"nonpayable"},{"type":"function","name":"requestSeasonEnd","inputs":[{"name":"seasonId","type":"uint256","internalType":"uint256"}],"outputs":[],"stateMutability":"nonpayable"},{"type":"function","name":"revokeRole","inputs":[{"name":"role","type":"bytes32","internalType":"bytes32"},{"name":"account","type":"address","internalType":"address"}],"outputs":[],"stateMutability":"nonpayable"},{"type":"function","name":"seasonStates","inputs":[{"name":"","type":"uint256","internalType":"uint256"}],"outputs":[{"name":"status","type":"uint8","internalType":"enum Raffle.SeasonStatus"},{"name":"totalParticipants","type":"uint256","internalType":"uint256"},{"name":"totalTickets","type":"uint256","internalType":"uint256"},{"name":"totalPrizePool","type":"uint256","internalType":"uint256"},{"name":"vrfRequestId","type":"uint256","internalType":"uint256"}],"stateMutability":"view"},{"type":"function","name":"seasons","inputs":[{"name":"","type":"uint256","internalType":"uint256"}],"outputs":[{"name":"name","type":"string","internalType":"string"},{"name":"startTime","type":"uint256","internalType":"uint256"},{"name":"endTime","type":"uint256","internalType":"uint256"},{"name":"maxParticipants","type":"uint32","internalType":"uint32"},{"name":"winnerCount","type":"uint16","internalType":"uint16"},{"name":"prizePercentage","type":"uint16","internalType":"uint16"},{"name":"consolationPercentage","type":"uint16","internalType":"uint16"},{"name":"isActive","type":"bool","internalType":"bool"},{"name":"isCompleted","type":"bool","internalType":"bool"},{"name":"raffleToken","type":"address","internalType":"address"},{"name":"bondingCurve","type":"address","internalType":"address"}],"stateMutability":"view"},{"type":"function","name":"sofToken","inputs":[],"outputs":[{"name":"","type":"address","internalType":"contract IERC20"}],"stateMutability":"view"},{"type":"function","name":"startSeason","inputs":[{"name":"seasonId","type":"uint256","internalType":"uint256"}],"outputs":[],"stateMutability":"nonpayable"},{"type":"function","name":"supportsInterface","inputs":[{"name":"interfaceId","type":"bytes4","internalType":"bytes4"}],"outputs":[{"name":"","type":"bool","internalType":"bool"}],"stateMutability":"view"},{"type":"function","name":"updateVRFConfig","inputs":[{"name":"subscriptionId","type":"uint64","internalType":"uint64"},{"name":"keyHash","type":"bytes32","internalType":"bytes32"},{"name":"callbackGasLimit","type":"uint32","internalType":"uint32"}],"outputs":[],"stateMutability":"nonpayable"},{"type":"function","name":"vrfCallbackGasLimit","inputs":[],"outputs":[{"name":"","type":"uint32","internalType":"uint32"}],"stateMutability":"view"},{"type":"function","name":"vrfKeyHash","inputs":[],"outputs":[{"name":"","type":"bytes32","internalType":"bytes32"}],"stateMutability":"view"},{"type":"function","name":"vrfRequestToSeason","inputs":[{"name":"","type":"uint256","internalType":"uint256"}],"outputs":[{"name":"","type":"uint256","internalType":"uint256"}],"stateMutability":"view"},{"type":"function","name":"vrfSubscriptionId","inputs":[],"outputs":[{"name":"","type":"uint64","internalType":"uint64"}],"stateMutability":"view"},{"type":"event","name":"ParticipantAdded","inputs":[{"name":"seasonId","type":"uint256","indexed":true,"internalType":"uint256"},{"name":"participant","type":"address","indexed":false,"internalType":"address"},{"name":"tickets","type":"uint256","indexed":false,"internalType":"uint256"},{"name":"totalTickets","type":"uint256","indexed":false,"internalType":"uint256"}],"anonymous":false},{"type":"event","name":"ParticipantRemoved","inputs":[{"name":"seasonId","type":"uint256","indexed":true,"internalType":"uint256"},{"name":"participant","type":"address","indexed":false,"internalType":"address"},{"name":"totalTickets","type":"uint256","indexed":false,"internalType":"uint256"}],"anonymous":false},{"type":"event","name":"ParticipantUpdated","inputs":[{"name":"seasonId","type":"uint256","indexed":true,"internalType":"uint256"},{"name":"participant","type":"address","indexed":false,"internalType":"address"},{"name":"newTickets","type":"uint256","indexed":false,"internalType":"uint256"},{"name":"totalTickets","type":"uint256","indexed":false,"internalType":"uint256"}],"anonymous":false},{"type":"event","name":"PrizeDistributionSetup","inputs":[{"name":"seasonId","type":"uint256","indexed":true,"internalType":"uint256"},{"name":"merkleDistributor","type":"address","indexed":false,"internalType":"address"}],"anonymous":false},{"type":"event","name":"RoleAdminChanged","inputs":[{"name":"role","type":"bytes32","indexed":true,"internalType":"bytes32"},{"name":"previousAdminRole","type":"bytes32","indexed":true,"internalType":"bytes32"},{"name":"newAdminRole","type":"bytes32","indexed":true,"internalType":"bytes32"}],"anonymous":false},{"type":"event","name":"RoleGranted","inputs":[{"name":"role","type":"bytes32","indexed":true,"internalType":"bytes32"},{"name":"account","type":"address","indexed":true,"internalType":"address"},{"name":"sender","type":"address","indexed":true,"internalType":"address"}],"anonymous":false},{"type":"event","name":"RoleRevoked","inputs":[{"name":"role","type":"bytes32","indexed":true,"internalType":"bytes32"},{"name":"account","type":"address","indexed":true,"internalType":"address"},{"name":"sender","type":"address","indexed":true,"internalType":"address"}],"anonymous":false},{"type":"event","name":"SeasonCreated","inputs":[{"name":"seasonId","type":"uint256","indexed":true,"internalType":"uint256"},{"name":"name","type":"string","indexed":false,"internalType":"string"},{"name":"startTime","type":"uint256","indexed":false,"internalType":"uint256"},{"name":"endTime","type":"uint256","indexed":false,"internalType":"uint256"},{"name":"raffleToken","type":"address","indexed":false,"internalType":"address"},{"name":"bondingCurve","type":"address","indexed":false,"internalType":"address"}],"anonymous":false},{"type":"event","name":"SeasonEndRequested","inputs":[{"name":"seasonId","type":"uint256","indexed":true,"internalType":"uint256"},{"name":"vrfRequestId","type":"uint256","indexed":false,"internalType":"uint256"}],"anonymous":false},{"type":"event","name":"SeasonLocked","inputs":[{"name":"seasonId","type":"uint256","indexed":true,"internalType":"uint256"}],"anonymous":false},{"type":"event","name":"SeasonStarted","inputs":[{"name":"seasonId","type":"uint256","indexed":true,"internalType":"uint256"}],"anonymous":false},{"type":"event","name":"WinnersSelected","inputs":[{"name":"seasonId","type":"uint256","indexed":true,"internalType":"uint256"},{"name":"winners","type":"address[]","indexed":false,"internalType":"address[]"}],"anonymous":false},{"type":"error","name":"AccessControlBadConfirmation","inputs":[]},{"type":"error","name":"AccessControlUnauthorizedAccount","inputs":[{"name":"account","type":"address","internalType":"address"},{"name":"neededRole","type":"bytes32","internalType":"bytes32"}]},{"type":"error","name":"OnlyCoordinatorCanFulfill","inputs":[{"name":"have","type":"address","internalType":"address"},{"name":"want","type":"address","internalType":"address"}]},{"type":"error","name":"ReentrancyGuardReentrantCall","inputs":[]}],"bytecode":{"object":"0x60c03461015557601f61680138819003918201601f19168301916001600160401b0383118484101761015a578084926080946040528339810103126101555761004781610170565b9061005460208201610170565b604082015190916001600160401b03821691829003610155576060015160018055608083905260045490936001600160a01b031692831561011d5760a093909352600280546001600160a01b0319166001600160a01b0394909416939093179092556001600160601b031991909116176a0186a00000000000000000176004556003556100e033610184565b506100ea33610200565b506100f4336102bc565b5060405161644c9081610355823960805181611cc4015260a051818181610df001526121b50152f35b60405162461bcd60e51b815260206004820152601060248201526f526166666c653a20534f46207a65726f60801b6044820152606490fd5b600080fd5b634e487b7160e01b600052604160045260246000fd5b51906001600160a01b038216820361015557565b6001600160a01b03811660009081526000805160206167e1833981519152602052604090205460ff166101fa576001600160a01b031660008181526000805160206167e183398151915260205260408120805460ff191660011790553391906000805160206167a18339815191528180a4600190565b50600090565b6001600160a01b03811660009081527f515f2a68612a4c5a69de2b20a2892e1000ce6b8933998751f6f397a259e865df602052604090205460ff166101fa576001600160a01b031660008181527f515f2a68612a4c5a69de2b20a2892e1000ce6b8933998751f6f397a259e865df60205260408120805460ff191660011790553391907f7ef5114529a47294f95f6beb0f3b094a1365fd784c97c498bb697c0f0c7b6611906000805160206167a18339815191529080a4600190565b6001600160a01b03811660009081526000805160206167c1833981519152602052604090205460ff166101fa576001600160a01b031660008181526000805160206167c183398151915260205260408120805460ff191660011790553391907fbf233dd2aafeb4d50879c4aa5c81e96d92f6e6945c906a58f9f2d1c1631b4b26906000805160206167a18339815191529080a460019056fe608080604052600436101561001357600080fd5b600090813560e01c90816301ffc9a71461220257508063041d443e146121e457806306f6fc131461219f5780631c30c76b14611fa85780631e27580e14611f8c5780631fe543e314611c5157806320df435914611c28578063248a9ca314611c0157806326182e7b14611a795780632f2ff15d14611a47578063354443a014611a1e57806336568abe146119d95780633aa4159e146119385780633b7ed734146119115780633e81d1ca1461166b5780634fc343bb14610a7c578063593d03a014610a495780636b1426a4146109bd578063703dbfe4146107fd5780638d12036c146105935780638df48e66146104f357806391d14854146104a857806398f0e3e91461046d578063a217fddf14610451578063b71d162714610427578063c1e3bd3e146103ea578063d547741f146103af578063d6769d421461034e578063dc29338214610330578063ed647d2114610309578063f1412d94146102545763f5d709a11461018157600080fd5b346102515760203660031901126102515760406101e39160043581526006602052206101ac8161244f565b90600181015490600281015490600381015490600460018060a01b039101541691604051958695610160875261016087019061227a565b936020860152604085015263ffffffff8116606085015261ffff8160201c16608085015261ffff8160301c1660a085015261ffff8160401c1660c085015260ff8160501c16151560e085015260ff8160581c16151561010085015260601c6101208401526101408301520390f35b80fd5b5034610251576040366003190112610251576040608091600682610276612347565b928060608351610285816122f4565b8281528260208201528285820152015260043581526007602052200160009160018060a01b03168252602052206040516102be816122f4565b815491828252600181015460208301908152606060ff600360028501549460408701958652015416930192151583526040519384525160208401525160408301525115156060820152f35b503461025157806003193601126102515760206001600160401b0360045416604051908152f35b50346102515780600319360112610251576020600554604051908152f35b503461025157602036600319011261025157604060a091600435815260076020522060ff8154169060018101549060028101546005600383015492015492610399604051809661229f565b6020850152604084015260608301526080820152f35b5034610251576040366003190112610251576103e66004356103cf612347565b906103e16103dc826124f3565b6128bf565b612a23565b5080f35b503461025157602036600319011261025157610417600760406104239360043581528260205220016127ab565b604051918291826123d2565b0390f35b50346102515760203660031901126102515760406020916004358152600883522054604051908152f35b5034610251578060031936011261025157602090604051908152f35b503461025157806003193601126102515760206040517f7ef5114529a47294f95f6beb0f3b094a1365fd784c97c498bb697c0f0c7b66118152f35b50346102515760403660031901126102515760406104c4612347565b91600435815280602052209060018060a01b0316600052602052602060ff604060002054166040519015158152f35b5034610251576060366003190112610251576004356001600160401b03811680910361058f576044359063ffffffff8216820361058b5782805260208381526040808520336000908152925290205460ff1615610573576004549160243560035563ffffffff60401b9060401b169160018060601b031916171760045580f35b63e2517d3f60e01b8352336004526024839052604483fd5b8280fd5b5080fd5b5034610251576105a236612371565b6105aa6127ff565b82845260066020526105c860ff600360408720015460501c16612507565b8284526007602052604084206040600060018060a01b0385168152600683016020522060038101906105fd60ff8354166125ed565b80548481106107c55784610610916126ce565b8155436002820155610627600284019485546126ce565b8455541561065a575b50509060008051602061640c8339815191529154906106546040519283928361269c565b0390a280f35b60ff95939194929519815416905560018401805480156107b157600019019055600793909301936001600160a01b0384169390835b86548082101561079457866106a4838a612570565b905460039190911b1c6001600160a01b0316146106c4575060010161068f565b90919293949550600019810190811161078057906107016106e86107259389612570565b905460039190911b1c6001600160a01b03169188612570565b9080546001600160a01b0360039390931b83811b199091169290931690921b179055565b845494851561076c5760008051602061640c833981519152939495600019019061074f8282612570565b81549060018060a01b039060031b1b19169055555b909138610630565b634e487b7160e01b85526031600452602485fd5b634e487b7160e01b86526011600452602486fd5b50509091935060008051602061640c833981519152929450610764565b634e487b7160e01b85526011600452602485fd5b60405162461bcd60e51b815260206004820152601060248201526f0a4c2ccccd8ca7440e8dede40daeac6d60831b6044820152606490fd5b50346102515760203660031901126102515760043561081a61284d565b801515806109b1575b61082c906125ad565b808252600660205260ff600360408420015460501c1661097b57808252600660205260016040832001544210610940578082526006602052600260408320015442101561090957808252600760205260ff60408320541660068110156108f557610896901561262e565b808252600660209081526040808420600301805460ff60501b1916600160501b17905582845260079091528220805460ff191660011790557fe2046d333900871694b2fb421975b907ac5d93052201a0e259fa0664d9dbdf1d8280a280f35b634e487b7160e01b83526021600452602483fd5b60405162461bcd60e51b815260206004820152600f60248201526e149859999b194e88195e1c1a5c9959608a1b6044820152606490fd5b60405162461bcd60e51b8152602060048201526013602482015272149859999b194e881b9bdd081cdd185c9d1959606a1b6044820152606490fd5b60405162461bcd60e51b815260206004820152600e60248201526d526166666c653a2061637469766560901b6044820152606490fd5b50600554811115610823565b503461025157602036600319011261025157600435808252600760205260ff60408320541660068110156108f557600503610a0c576004604083610417936104239552600760205220016127ab565b60405162461bcd60e51b8152602060048201526015602482015274149859999b194e881b9bdd0818dbdb5c1b195d1959605a1b6044820152606490fd5b5034610251576040366003190112610251576040610a70610a68612347565b6004356126db565b82519182526020820152f35b5034610251576080366003190112610251576004356001600160401b03811161058f57610160600319823603011261058f5760405190610abb826122c2565b80600401356001600160401b038111611667578101366023820112156116675783600482013591610aeb8361239b565b92610af9604051948561230f565b808452366024838301011161058b5780602460209301838601378301015282526024810135602083015260448101356040830152606481013563ffffffff8116810361166757610bbc91610144916060850152610b58608482016123b6565b6080850152610b6960a482016123b6565b60a0850152610b7a60c482016123b6565b60c0850152610b8b60e482016123c5565b60e0850152610b9d61010482016123c5565b610100850152610bb0610124820161235d565b6101208501520161235d565b6101408201526001600160401b036024351161058f5736602360243501121561058f576001600160401b03602435600401351161058f5736602480356004013560061b813501011161058f576044359061ffff8216820361058b576064359061ffff8216820361166757610c2e61284d565b6002600154146116585760026001556020810151421015611619576040810151602082015110156115e25761ffff608082015116156115a95761ffff60a08201511661ffff60c0830151160161ffff81116107b15761ffff61271091161161156f57602435600401351561153857610ca760055461259e565b92836005558151610cf1602c60405180936b029b2b1b7b73227b93232b9160a51b6020830152610ce08151809260208686019101612257565b81010301601f19810183528261230f565b610cfa85612ac5565b610d246024604051809363534f462d60e01b6020830152610ce08151809260208686019101612257565b83519060208501519160408601519160405194856115d38101106001600160401b036115d3880111176115245791610d8f610daa92610d79889796956115d3614df98a3960c06115d38a01818152019061227a565b906115d38801820360206115d38a01015261227a565b6115d38601604081018c90528082036060909101529061227a565b9160806115d38501015260a06115d384010152039086f092831561151957604051611fd6808201908282106001600160401b03831117611505576020918391612e2383397f00000000000000000000000000000000000000000000000000000000000000006001600160a01b0316815203019087f09182156114fa57604051636c43084f60e01b815287906020816004816001600160a01b0389165afa9081156113ab5782916114c5575b506001600160a01b0385163b1561058f5781610e879160405180938192632f2ff15d60e01b835230906004840161266f565b0381836001600160a01b038a165af180156113ab576114b0575b50506001600160a01b0383163b156114ac579086916040519163a95a0b0560e01b83526084830160018060a01b03881660048501526080602485015260243560040135905260a48301916024803501855b60243560040135811061146457505061ffff90811660448501521660648301528290829081900381836001600160a01b0388165af180156113ab5761144f575b50506001600160a01b0381163b156113a757604051630ae8e94160e21b81528590818180610f6489306004840161269c565b0381836001600160a01b0388165af180156113ab5761143a575b5060405163d539139360e01b81526020816004816001600160a01b0389165afa9081156113ab578291611405575b506001600160a01b0385163b1561058f57604051632f2ff15d60e01b815290829082908190610fe9906001600160a01b038816906004840161266f565b0381836001600160a01b038a165af180156113ab576113f0575b5060405163282c51f360e01b81526020816004816001600160a01b0389165afa9081156113ab5782916113b6575b506001600160a01b0385163b1561058f57604051632f2ff15d60e01b81529082908290819061106e906001600160a01b038816906004840161266f565b0381836001600160a01b038a165af180156113ab57611392575b50506001600160a01b03838116610120840152811661014083015260e08201859052610100820185905283855260066020526040852082518051906001600160401b03821161137e57916020979187969594936110e58354612415565b601f8111611345575b508990601f83116001146112b257928285936004937f6ccf5008c3cde5e448bfdbb6a25201ac5552f0207195efaa353b8ccc20ec105e9a98966112769a98926112a7575b50508160011b916000199060031b1c19161781555b8a8501516001820155604085015160028201556003810163ffffffff606087015116815461ffff8e1b60808901518f1b1661ffff60301b60a08a015160301b169161ffff60401b60c08b015160401b169361ffff60401b19916001600160401b0319161716171717815560e0860151151581549060ff60501b9060501b169060ff60501b1916178155610100860151151581549060ff60581b9060581b169060ff60581b191617815561012086015181549060018060601b03199060601b169060018060601b03161790550160018060a01b036101408501511660018060a01b03198254161790558681526007895260408120905060ff19815416905561125560018060a01b0382166128fa565b5081519260408984015193015160405195869560a0875260a087019061227a565b858b019490945260408501526001600160a01b0390811660608501521660808301520390a260018055604051908152f35b015190503880611132565b9083855280852091855b601f198516811061132b5750836004937f6ccf5008c3cde5e448bfdbb6a25201ac5552f0207195efaa353b8ccc20ec105e9a9896936001936112769b9997601f19811610611312575b505050811b018155611147565b015160001960f88460031b161c19169055388080611305565b8183015184558b9a50600190930192918c01918c016112bc565b61136e908486528b8620601f850160051c8101918d8610611374575b601f0160051c01906126b7565b386110ee565b9091508190611361565b634e487b7160e01b88526041600452602488fd5b8161139c9161230f565b6113a7578438611088565b8480fd5b6040513d84823e3d90fd5b9150506020813d6020116113e8575b816113d26020938361230f565b810103126113e35785905138611031565b600080fd5b3d91506113c5565b816113fa9161230f565b6113a7578438611003565b9150506020813d602011611432575b816114216020938361230f565b810103126113e35785905138610fac565b3d9150611414565b816114449161230f565b6113a7578438610f7e565b816114599161230f565b6113a7578438610f32565b91929360019195965060408091838060801b0361148089612688565b168152838060801b0361149560208a01612688565b1660208201520195019101908a9594939291610ef2565b8680fd5b816114ba9161230f565b6114ac578638610ea1565b9150506020813d6020116114f2575b816114e16020938361230f565b810103126113e35787905138610e55565b3d91506114d4565b6040513d88823e3d90fd5b634e487b7160e01b89526041600452602489fd5b6040513d87823e3d90fd5b634e487b7160e01b8b52604160045260248bfd5b60405162461bcd60e51b815260206004820152600f60248201526e0526166666c653a207374657073203608c1b6044820152606490fd5b60405162461bcd60e51b8152602060048201526012602482015271526166666c653a20706374203e203130302560701b6044820152606490fd5b60405162461bcd60e51b81526020600482015260116024820152700526166666c653a2077696e6e657273203607c1b6044820152606490fd5b60405162461bcd60e51b815260206004820152600f60248201526e149859999b194e8818985908195b99608a1b6044820152606490fd5b60405162461bcd60e51b8152602060048201526017602482015276526166666c653a20737461727420696e2066757475726560481b6044820152606490fd5b633ee5aeb560e01b8452600484fd5b8380fd5b5034610251576020366003190112610251576004359061168961284d565b81151580611905575b61169b906125ad565b81815260066020526116b960ff600360408420015460501c166125ed565b8181526006602052600260408220015442106118cc57818152600760205260ff60408220541660068110156118b85760016116f4911461262e565b818152600660205260408120600401546001600160a01b0316803b1561058f5781809160046040518094819363086afa1160e41b83525af180156113ab576118a8575b509080825260066020526003604083200160ff60501b198154169055808252600760205260408220600260ff19825416179055604051817fb8c1e571c612bf9e6c3c5d23593965ef3c951a26fcd26afc16e9397bef1329518480a260208160a4818660018060a01b036002541660035463ffffffff6004548a85526006895261ffff60036040872001548a1c16926305d3b1d360e41b875260048701526001600160401b03811660248701526003604487015260401c16606485015260848401525af190811561189d57839161186a575b5060207f656e5c80604277a61c82dbec54c99e9c266e8e019c6c1367d5b82e773fd395c791838552600782528060056040872001558385526007825260408520600360ff1982541617905580855260088252836040862055604051908152a280f35b90506020813d602011611895575b816118856020938361230f565b810103126113e357516020611808565b3d9150611878565b6040513d85823e3d90fd5b816118b29161230f565b38611737565b634e487b7160e01b82526021600452602482fd5b60405162461bcd60e51b8152602060048201526011602482015270149859999b194e881b9bdd08195b991959607a1b6044820152606490fd5b50600554821115611692565b5034610251578060031936011261025157602063ffffffff60045460401c16604051908152f35b5034610251576020366003190112610251576000805160206163ec8339815191528152602081815260408083203384529091528120546004359060ff16156119b457801515806119a8575b61198c906125ad565b8152600660205260408120600301805460ff60501b1916905580f35b50600554811115611983565b63e2517d3f60e01b8252336004526000805160206163ec833981519152602452604482fd5b5034610251576040366003190112610251576119f3612347565b336001600160a01b03821603611a0f576103e690600435612a23565b63334bd91960e11b8252600482fd5b5034610251578060031936011261025157602060405160008051602061642c8339815191528152f35b5034610251576040366003190112610251576103e6600435611a67612347565b90611a746103dc826124f3565b612998565b503461025157611a8836612371565b9190611a926127ff565b8184526006602052611ab060ff600360408720015460501c16612507565b8184526007602052604084209160018060a01b03821685526006830160205260408520916003830160ff81541615600014611bb25760078501805490600160401b8210156115055783611bad979593611b3860029896610701868d9660017fa579cf708fd91d80ae65ceb4a89d65267d82874519078a79355d57bc0ab6e24d99018155612570565b60018701611b46815461259e565b9055436001870155600160ff19825416179055611b8e611b69838989015461254d565b60405193849384604091949392606082019560018060a01b0316825260208201520152565b0390a25b611b9d85825461254d565b815582439101550191825461254d565b905580f35b5091611bad93917f82c0d288888ec0f9d844bf34a4d4182dbf7fbf6c4c86a0552f66ee572b69e7ae600294611be888855461254d565b90611bf9611b698a8989015461254d565b0390a2611b92565b5034610251576020366003190112610251576020611c206004356124f3565b604051908152f35b503461025157806003193601126102515760206040516000805160206163ec8339815191528152f35b5034610251576040366003190112610251576024356001600160401b03811161058f573660238201121561058f57806004013590611c8e82612330565b91611c9c604051938461230f565b8083526024602084019160051b830101913683116113a757602401905b828210611f7c5750507f00000000000000000000000000000000000000000000000000000000000000006001600160a01b0316905033819003611f665750600435825260086020526040822054908115611f2f57818352600760205260ff6040842054166006811015611f1b5790611d3560036004931461262e565b8284526006602090815260408086208401549051632168e9d360e21b815293849182906001600160a01b03165afa8015611f10578490611edc575b611d8b92508385526007602052600360408620015582612bd3565b8183526007602052600460408420018151906001600160401b038211611ec857600160401b8211611ec8578054828255808310611ead575b50908291602085940190865260208620865b838110611e8d575050508285525060076020526040808520805460ff19166004179055517f5fa006001f7473b386c7bb4db093cb973ce5c895e51c3813bdbd723097d0349e918190611e2790826123d2565b0390a2808252600660209081526040808420600301805460ff60581b1916600160581b17905582845260078252808420805460ff19166005179055518381527f42ffdc40c5f007722e9a55cd5189a3970d893c660e7f064530bf5e7d3d3d06119190a280f35b82516001600160a01b031681830155869550602090920191600101611dd5565b81865260208620611ec29181019084016126b7565b38611dc3565b634e487b7160e01b85526041600452602485fd5b506020823d602011611f08575b81611ef66020938361230f565b8101031261166757611d8b9151611d70565b3d9150611ee9565b6040513d86823e3d90fd5b634e487b7160e01b84526021600452602484fd5b60405162461bcd60e51b815260206004820152600f60248201526e526166666c653a206261642072657160881b6044820152606490fd5b63073e64fd60e21b835233600452602452604482fd5b8135815260209182019101611cb9565b5034610251578060031936011261025157602060405160038152f35b5034610251576020366003190112610251576004359080604051611fcb816122c2565b606081528160208201528160408201528160608201528160808201528160a08201528160c08201528160e08201528161010082015281610120820152610140015281815260066020526040812090604051612025816122c2565b61202e8361244f565b81526001830154916020820192835260028401549360408301948552600381015490606084019663ffffffff8316885260808501928060201c61ffff16845260a08601928160301c61ffff16845260c08701958260401c61ffff16875260e08801908360501c60ff16151582526101008901928460581c60ff16151584526101208a019460601c8552600160a01b60019003906004015416946101408a01958652815260076020526040902096875460ff169560018901549760028a015499600301549a6040519e8f9e8f9260a084525160a08401610160905261020084016121169161227a565b9e5160c08401525160e08301525163ffffffff16610100909101525161ffff9081166101208e0152905181166101408d01529051166101608b01525115156101808a01525115156101a0890152516001600160a01b039081166101c08901529051166101e087015261218c90602087019061229f565b6040850152606084015260808301520390f35b50346102515780600319360112610251576040517f00000000000000000000000000000000000000000000000000000000000000006001600160a01b03168152602090f35b50346102515780600319360112610251576020600354604051908152f35b90503461058f57602036600319011261058f5760043563ffffffff60e01b811680910361058b5760209250637965db0b60e01b8114908115612246575b5015158152f35b6301ffc9a760e01b1490503861223f565b60005b83811061226a5750506000910152565b818101518382015260200161225a565b9060209161229381518092818552858086019101612257565b601f01601f1916010190565b9060068210156122ac5752565b634e487b7160e01b600052602160045260246000fd5b61016081019081106001600160401b038211176122de57604052565b634e487b7160e01b600052604160045260246000fd5b608081019081106001600160401b038211176122de57604052565b90601f801991011681019081106001600160401b038211176122de57604052565b6001600160401b0381116122de5760051b60200190565b602435906001600160a01b03821682036113e357565b35906001600160a01b03821682036113e357565b60609060031901126113e357600435906024356001600160a01b03811681036113e3579060443590565b6001600160401b0381116122de57601f01601f191660200190565b359061ffff821682036113e357565b359081151582036113e357565b602060408183019282815284518094520192019060005b8181106123f65750505090565b82516001600160a01b03168452602093840193909201916001016123e9565b90600182811c92168015612445575b602083101461242f57565b634e487b7160e01b600052602260045260246000fd5b91607f1691612424565b906040519182600082549261246384612415565b80845293600181169081156124d1575060011461248a575b506124889250038361230f565b565b90506000929192526020600020906000915b8183106124b5575050906020612488928201013861247b565b602091935080600191548385890101520191019091849261249c565b90506020925061248894915060ff191682840152151560051b8201013861247b565b600052600060205260016040600020015490565b1561250e57565b60405162461bcd60e51b8152602060048201526017602482015276526166666c653a20736561736f6e20696e61637469766560481b6044820152606490fd5b9190820180921161255a57565b634e487b7160e01b600052601160045260246000fd5b80548210156125885760005260206000200190600090565b634e487b7160e01b600052603260045260246000fd5b600019811461255a5760010190565b156125b457565b60405162461bcd60e51b81526020600482015260116024820152702930b33336329d1037379039b2b0b9b7b760791b6044820152606490fd5b156125f457565b60405162461bcd60e51b8152602060048201526012602482015271526166666c653a206e6f742061637469766560701b6044820152606490fd5b1561263557565b60405162461bcd60e51b8152602060048201526012602482015271526166666c653a206261642073746174757360701b6044820152606490fd5b9081526001600160a01b03909116602082015260400190565b35906001600160801b03821682036113e357565b6001600160a01b039091168152602081019190915260400190565b8181106126c2575050565b600081556001016126b7565b9190820391821161255a57565b60005260076020526040600020600681019160018060a01b0381166000528260205260ff60036040600020015416156127a0576001929192916007600094018054935b84861061273357505050505050600090600090565b61273d8683612570565b90546001600160a01b0360039290921b1c811660008181526020869052604090209186161461277c5760019161277491549061254d565b95019461271e565b9350959450505061278f9150548361254d565b60001981019290831161255a579190565b505050600090600090565b906040519182815491828252602082019060005260206000209260005b8181106127dd5750506124889250038361230f565b84546001600160a01b03168352600194850194879450602090930192016127c8565b3360009081526000805160206163cc833981519152602052604090205460ff161561282657565b63e2517d3f60e01b6000523360045260008051602061642c83398151915260245260446000fd5b3360009081527f515f2a68612a4c5a69de2b20a2892e1000ce6b8933998751f6f397a259e865df602052604090205460ff161561288657565b63e2517d3f60e01b600052336004527f7ef5114529a47294f95f6beb0f3b094a1365fd784c97c498bb697c0f0c7b661160245260446000fd5b60008181526020818152604080832033845290915290205460ff16156128e25750565b63e2517d3f60e01b6000523360045260245260446000fd5b6001600160a01b03811660009081526000805160206163cc833981519152602052604090205460ff16612992576001600160a01b031660008181526000805160206163cc83398151915260205260408120805460ff1916600117905533919060008051602061642c833981519152907f2f8788117e7eff1d82e926ec794901d17c78024a50270940304540a733656f0d9080a4600190565b50600090565b6000818152602081815260408083206001600160a01b038616845290915290205460ff16612a1c576000818152602081815260408083206001600160a01b0395909516808452949091528120805460ff19166001179055339291907f2f8788117e7eff1d82e926ec794901d17c78024a50270940304540a733656f0d9080a4600190565b5050600090565b6000818152602081815260408083206001600160a01b038616845290915290205460ff1615612a1c576000818152602081815260408083206001600160a01b0395909516808452949091528120805460ff19169055339291907ff6391f5c32d9c69d2a47ea670b442974b53935d1edc7fd64eb21e047a839171b9080a4600190565b8115612aaf570690565b634e487b7160e01b600052601260045260246000fd5b8015612b6d57600081805b612b595750612ade8161239b565b90612aec604051928361230f565b808252601f19612afb8261239b565b013660208401375b80928015612b5257600019820191821161255a578193600a8206603001928360301161255a578451111561258857600a9260f81b6001600160f81b03191660001a908401601f01530491612b03565b5050905090565b90612b65600a9161259e565b910480612ad0565b50604051612b7c60408261230f565b60018152600360fc1b602082015290565b90612b9782612330565b612ba4604051918261230f565b8281528092612bb5601f1991612330565b0190602036910137565b80518210156125885760209160051b010190565b919082600052600760205260406000209183600052600660205261ffff60036040600020015460201c1692600281015480158015612d7d575b8015612d75575b612d55576007612c2286612b8d565b92015493612c2f85612330565b94612c3d604051968761230f565b808652612c4c601f1991612330565b01366020870137600093845b87811080612d4c575b15612d0057612c8484612c7e612c78865185612aa5565b86612bbf565b51612aa5565b6001810180911161255a57612c99908a612d89565b6001600160a01b031680151580612cee575b612cc0575b5050612cbb9061259e565b612c58565b966001612ce0612ce693612cbb959a612cd9858c612bbf565b528b612bbf565b5261259e565b959038612cb0565b50612cf9828a612bbf565b5115612cab565b509550505093509050612d1281612b8d565b9060005b818110612d24575090925050565b6001906001600160a01b03612d398288612bbf565b5116612d458286612bbf565b5201612d16565b50878610612c61565b505092505050604051612d6960208261230f565b60008152600036813790565b508415612c13565b50600782015415612c0c565b6000526007602052604060002060019160009060078301600681549401945b848410612dbe5750505050505060001990600090565b612dc88483612570565b905460039190911b1c6001600160a01b0316600081815260208890526040902054612df3908361254d565b9184101580612e19575b612e0d5750600190930192612da8565b96955050505090509190565b50818410612dfd56fe60a0346100d957601f611fd638819003918201601f19168301916001600160401b038311848410176100de578084926020946040528339810103126100d957516001600160a01b038116908190036100d95760018055801561009f57608052610067336100f4565b5061007133610170565b50604051611d6d9081610209823960805181818161027101528181610db50152818161110001526113d60152f35b60405162461bcd60e51b8152602060048201526012602482015271534f463a20746f6b656e206973207a65726f60701b6044820152606490fd5b600080fd5b634e487b7160e01b600052604160045260246000fd5b6001600160a01b0381166000908152600080516020611fb6833981519152602052604090205460ff1661016a576001600160a01b03166000818152600080516020611fb683398151915260205260408120805460ff19166001179055339190600080516020611f768339815191528180a4600190565b50600090565b6001600160a01b0381166000908152600080516020611f96833981519152602052604090205460ff1661016a576001600160a01b03166000818152600080516020611f9683398151915260205260408120805460ff191660011790553391907fbf233dd2aafeb4d50879c4aa5c81e96d92f6e6945c906a58f9f2d1c1631b4b2690600080516020611f768339815191529080a460019056fe608080604052600436101561001357600080fd5b600090813560e01c90816301ffc9a7146114055750806306f6fc13146113c05780631d3824ea1461139157806320df435914611356578063248a9ca3146113375780632ba3a504146112a05780632e5e2b3b146112815780632f2ff15d1461124f57806333c1420a1461122657806336568abe146111e15780633c420b89146110885780633c4e09271461106a5780633f4ba83a1461100257806358b9a99614610fdb5780635c975abb14610fb857806364b4fc8e14610f8b5780636c43084f14610f505780637975ce2814610cf45780638357128a14610c915780638456cb5914610c3657806385a3a74c14610c1857806386afa11014610b9e5780638a497c4c14610b5657806391d1485414610b0b578063a217fddf14610aef578063a95a0b051461055d578063d547741f14610522578063d8946f7a146103e75763ed9772b61461016057600080fd5b3461033e5761016e366114a1565b90610177611c44565b61017f611c66565b6008549161019260ff8460281c16611856565b6101a260ff8460201c1615611894565b6101ad8215156118d0565b60055482116103b0576127106101d361ffff6101c8856115f1565b9560101c16856115d1565b046101ea6101e182866114e8565b9283101561190e565b83600654106103795760025485949060081c6001600160a01b0316803b156103755785604051809263079cc67960e41b825281838161022d8b33600484016119c8565b03925af190811561036a578691610351575b50507f6db63bebf1e6540277744df32846ebdb98385b1a73f2d5de49b28348add63f50916102ac6102c69261029586337f0000000000000000000000000000000000000000000000000000000000000000611c08565b6102a1876005546114e8565b6005556006546114e8565b6006556102b7611c83565b6040519182913395878461145a565b0390a26003546001600160a01b031690816102e4575b826001805580f35b60045490823b1561034c576103149284928360405180968195829463234480db60e21b8452339060048501611983565b03925af1801561034157610329575b806102dc565b816103339161194c565b61033e578038610323565b80fd5b6040513d84823e3d90fd5b505050fd5b8161035b9161194c565b61036657843861023f565b8480fd5b6040513d88823e3d90fd5b8580fd5b60405162461bcd60e51b815260206004820152600f60248201526e43757276653a20726573657276657360881b6044820152606490fd5b60405162461bcd60e51b815260206004820152600f60248201526e43757276653a203e20737570706c7960881b6044820152606490fd5b503461033e578060031936011261033e576009546001600160401b03811161050e5760405161041c60208360051b018261194c565b8181526009835260208101917f6e1540171b6c0c960b71a7020d9f60077f6af931a8bbf590da0223dacf75c7af9084845b8282106104b057868587604051928392602084019060208552518091526040840192915b81811061047f575050500390f35b825180516001600160801b039081168652602091820151168186015286955060409094019390920191600101610471565b604051604081018181106001600160401b038211176104fa5760405284546001600160801b038116825260801c60208083019190915290825260019485019492909201910161044d565b634e487b7160e01b89526041600452602489fd5b634e487b7160e01b82526041600452602482fd5b503461033e57604036600319011261033e5761055960043561054261148b565b9061055461054f8261156a565b611ac7565b611b86565b5080f35b503461033e57608036600319011261033e57610577611470565b90602435916001600160401b038311610aeb5736602384011215610aeb578260040135906001600160401b038211610ae7576024840193602436918460061b010111610ae75760443561ffff8116809103610ae3576064359061ffff821695868303610375576105e56119e3565b60ff60085460281c16610aa9576106066001600160a01b038516151561157e565b8415610a72576103e88211610a37576103e887116109fb5760028054610100600160a81b031916600886901b610100600160a81b03161790556009805490879055806109b9575b50855b8581106107305750506040519560e087018781106001600160401b0382111761071c577fb70e08e127ce072caa4229e23320f2fe12ddd5d35dbf754f89963c54ea98359a969760019260c09260405289825289602083015289604083015284606083015260808201528860a0820152015285600555856006558560075563ffff00006008549260101b169163ffffffff1916171760085560ff60201b1960085416600855600160281b60ff60281b196008541617600855610716604051928392836119c8565b0390a180f35b634e487b7160e01b87526041600452602487fd5b6001600160801b0361074b6107468389866119a4565b6119b4565b1615610983576001600160801b0361076f6020610769848a876119a4565b016119b4565b161561094d57806108bc575b6001600160801b0380610792610746848a876119a4565b161161087f576001600160801b03806107b16020610769858b886119a4565b1611610842576107c28187846119a4565b600954600160401b8110156104fa578060016107e192016009556114b7565b91909161082e5760019291906001600160801b036107fe826119b4565b169081858060801b03198454161783556108216020868060801b031992016119b4565b60801b1617905501610650565b634e487b7160e01b89526004899052602489fd5b60405162461bcd60e51b815260206004820152601560248201527443757276653a207072696365206f766572666c6f7760581b6044820152606490fd5b60405162461bcd60e51b815260206004820152601560248201527443757276653a2072616e6765206f766572666c6f7760581b6044820152606490fd5b6108ca6107468288856119a4565b6000198201828111610939576001600160801b03906108ee90610746908a876119a4565b166001600160801b039091161161077b5760405162461bcd60e51b815260206004820152601260248201527121bab93b329d1039ba32b8399037b93232b960711b6044820152606490fd5b634e487b7160e01b89526011600452602489fd5b60405162461bcd60e51b815260206004820152600e60248201526d043757276653a20707269636520360941b6044820152606490fd5b60405162461bcd60e51b815260206004820152600e60248201526d043757276653a2072616e676520360941b6044820152606490fd5b600987527f6e1540171b6c0c960b71a7020d9f60077f6af931a8bbf590da0223dacf75c7af908101905b8181106109f0575061064d565b8781556001016109e3565b60405162461bcd60e51b815260206004820152601460248201527343757276653a2073656c6c466565203e2031302560601b6044820152606490fd5b60405162461bcd60e51b815260206004820152601360248201527243757276653a20627579466565203e2031302560681b6044820152606490fd5b60405162461bcd60e51b815260206004820152600f60248201526e43757276653a206e6f20737465707360881b6044820152606490fd5b60405162461bcd60e51b815260206004820152601260248201527110dd5c9d994e881a5b9a5d1a585b1a5e995960721b6044820152606490fd5b8380fd5b8280fd5b5080fd5b503461033e578060031936011261033e57602090604051908152f35b503461033e57604036600319011261033e576040610b2761148b565b91600435815280602052209060018060a01b0316600052602052602060ff604060002054166040519015158152f35b503461033e57602036600319011261033e576004359060095482101561033e576040610b81836114b7565b505481516001600160801b038216815260809190911c6020820152f35b503461033e578060031936011261033e57610bb76119e3565b600854610bc960ff8260281c16611856565b610bd960ff8260201c1615611894565b60ff60201b1916600160201b176008556040514281527fe032e6fbb95ea27d9b5dd8a16c4bf046f561b842e6bc8e260f47b77d1b0ef69b90602090a180f35b503461033e578060031936011261033e576020600654604051908152f35b503461033e578060031936011261033e57610c4f611a55565b610c57611c66565b600160ff1960025416176002557f62e78cea01bee320cd4e420270b5ea74000d11b0c9f74754ebdbfc544b05a2586020604051338152a180f35b503461033e578060031936011261033e5760e060055460ff600654600754600854916040519485526020850152604084015261ffff8116606084015261ffff8160101c166080840152818160201c16151560a084015260281c16151560c0820152f35b503461033e57610d03366114a1565b9190610d0d611c44565b610d15611c66565b60085492610d2860ff8560281c16611856565b610d3860ff8560201c1615611894565b610d438215156118d0565b600554198211610f1157612710610d6761ffff610d5f8561170e565b9616866115d1565b0493610d7f610d7686836115e4565b9283111561190e565b610dd96040516323b872dd60e01b602082015233602482015230604482015283606482015260648152610db360848261194c565b7f0000000000000000000000000000000000000000000000000000000000000000611d06565b60025460081c6001600160a01b0316803b15610366578460405180926340c10f1960e01b8252818381610e108a33600484016119c8565b03925af18015610f0657610ec8575b50610e7b8495610e617f0d1a0d5e3d583a0e92588799dd06e50fd78c07daf05f0cc06d7b848b1ca445f193610e56876005546115e4565b6005556006546115e4565b600655610e6c611c83565b6040519182918633968461145a565b0390a26003546001600160a01b03169081610e9857826001805580f35b60045490823b1561034c57610314928492836040518096819582946326182e7b60e01b8452339060048501611983565b610e619585610efc7f0d1a0d5e3d583a0e92588799dd06e50fd78c07daf05f0cc06d7b848b1ca445f19497610e7b9461194c565b9592509550610e1f565b6040513d87823e3d90fd5b60405162461bcd60e51b815260206004820152601760248201527643757276653a20616d6f756e7420746f6f206c6172676560481b6044820152606490fd5b503461033e578060031936011261033e5760206040517f03b4459c543e7fe245e8e148c6cab46a28e66bba7ee09988335c0dc88457fac28152f35b503461033e578060031936011261033e5760025460405160089190911c6001600160a01b03168152602090f35b503461033e578060031936011261033e57602060ff600254166040519015158152f35b503461033e57602036600319011261033e576020610ffa60043561170e565b604051908152f35b503461033e578060031936011261033e5761101b611a55565b60025460ff81161561105b5760ff19166002557f5db9ee0a495bf2e6ff9c91a7834c1ba4fdd244a5e8aa4e537bd38aeae4b073aa6020604051338152a180f35b638dfc202b60e01b8252600482fd5b503461033e578060031936011261033e576020600454604051908152f35b503461033e57604036600319011261033e576110a2611470565b6024356110ad6119e3565b60ff60085460201c16156111ac576006548111611173576001600160a01b03821691821561113d57816111247f51042b7a4c111754f54cf7d34232d1ca77140d9549d258df9bff4de65f6a53e4936020937f0000000000000000000000000000000000000000000000000000000000000000611c08565b611130816006546114e8565b600655604051908152a280f35b60405162461bcd60e51b815260206004820152600e60248201526d43757276653a207a65726f20746f60901b6044820152606490fd5b60405162461bcd60e51b815260206004820152601160248201527043757276653a203e20726573657276657360781b6044820152606490fd5b60405162461bcd60e51b815260206004820152600d60248201526c43757276653a20756e6c6f636b60981b6044820152606490fd5b503461033e57604036600319011261033e576111fb61148b565b336001600160a01b038216036112175761055990600435611b86565b63334bd91960e11b8252600482fd5b503461033e578060031936011261033e576003546040516001600160a01b039091168152602090f35b503461033e57604036600319011261033e5761055960043561126f61148b565b9061127c61054f8261156a565b611b02565b503461033e57602036600319011261033e576020610ffa6004356115f1565b503461033e57604036600319011261033e576112ba611470565b6112c26119e3565b6001600160a01b03166112d681151561157e565b6003546001600160a01b0381166112fe576001600160a01b0319161760035560243560045580f35b60405162461bcd60e51b815260206004820152601160248201527010dd5c9d994e881c9859999b19481cd95d607a1b6044820152606490fd5b503461033e57602036600319011261033e576020610ffa60043561156a565b503461033e578060031936011261033e5760206040517fbf233dd2aafeb4d50879c4aa5c81e96d92f6e6945c906a58f9f2d1c1631b4b268152f35b503461033e578060031936011261033e576113bc6113ad61150b565b6040939193519384938461145a565b0390f35b503461033e578060031936011261033e576040517f00000000000000000000000000000000000000000000000000000000000000006001600160a01b03168152602090f35b905034610aeb576020366003190112610aeb5760043563ffffffff60e01b8116809103610ae75760209250637965db0b60e01b8114908115611449575b5015158152f35b6301ffc9a760e01b14905038611442565b6040919493926060820195825260208201520152565b600435906001600160a01b038216820361148657565b600080fd5b602435906001600160a01b038216820361148657565b6040906003190112611486576004359060243590565b6009548110156114d257600960005260206000200190600090565b634e487b7160e01b600052603260045260246000fd5b919082039182116114f557565b634e487b7160e01b600052601160045260246000fd5b600954801561155e57600754908082101561154b575b5061152b816114b7565b505460801c9161153a826114b7565b50549192916001600160801b031690565b6000198101915081116114f55738611521565b50600090600090600090565b600052600060205260016040600020015490565b1561158557565b60405162461bcd60e51b815260206004820152601260248201527143757276653a20726166666c65207a65726f60701b6044820152606490fd5b9060001982019182136001166114f557565b818102929181159184041417156114f557565b919082018092116114f557565b801561170857600554908181116117015761160c90826114e8565b9060009161161b6009546115bf565b915b600083121561162d575b50505090565b90919283156000146116e05760005b6001600160801b031661164e856114b7565b50546001600160801b031690818510156116d857808411156116d0576116936116ad93926116a7928088116000146116ca575086905b808710156116c55750856114e8565b61169c876114b7565b505460801c906115d1565b906115e4565b925b600160ff1b81146114f55760001901919061161d565b6114e8565b90611684565b505092611627565b5050926116af565b6116f16116ec856115bf565b6114b7565b50546001600160801b031661163c565b5050600090565b50600090565b80156117085760055490811981116118185761172a90826115e4565b600091600091600954915b828410611744575b5050505090565b90919293600085156000146117dd575060005b6001600160801b0316611769866114b7565b50546001600160801b031690818410156117d257808511156117ca57916116a76117b06117b9936001958088116000146117c4575086905b808910156116c55750876114e8565b61169c896114b7565b945b01929190611735565b906117a1565b50509361173d565b5050936001906117bb565b60001986019086821161180457506117f4906114b7565b50546001600160801b0316611757565b634e487b7160e01b81526011600452602490fd5b60405162461bcd60e51b815260206004820152601660248201527543757276653a20737570706c79206f766572666c6f7760501b6044820152606490fd5b1561185d57565b60405162461bcd60e51b815260206004820152600f60248201526e10dd5c9d994e881b9bdd081a5b9a5d608a1b6044820152606490fd5b1561189b57565b60405162461bcd60e51b815260206004820152600d60248201526c10dd5c9d994e881b1bd8dad959609a1b6044820152606490fd5b156118d757565b60405162461bcd60e51b815260206004820152600f60248201526e043757276653a20616d6f756e74203608c1b6044820152606490fd5b1561191557565b60405162461bcd60e51b815260206004820152600f60248201526e43757276653a20736c69707061676560881b6044820152606490fd5b90601f801991011681019081106001600160401b0382111761196d57604052565b634e487b7160e01b600052604160045260246000fd5b9081526001600160a01b039091166020820152604081019190915260600190565b91908110156114d25760061b0190565b356001600160801b03811681036114865790565b6001600160a01b039091168152602081019190915260400190565b3360009081527f30c94462b074158584a923c0e0ecbc20306d576892c538eb1fbaab09d72efe8a602052604090205460ff1615611a1c57565b63e2517d3f60e01b600052336004527f03b4459c543e7fe245e8e148c6cab46a28e66bba7ee09988335c0dc88457fac260245260446000fd5b3360009081527f3c1b1854ab1360abbb06c8d4c6b2672d4b8cedc5eff522ab19e51d5cb8fdbd46602052604090205460ff1615611a8e57565b63e2517d3f60e01b600052336004527fbf233dd2aafeb4d50879c4aa5c81e96d92f6e6945c906a58f9f2d1c1631b4b2660245260446000fd5b60008181526020818152604080832033845290915290205460ff1615611aea5750565b63e2517d3f60e01b6000523360045260245260446000fd5b6000818152602081815260408083206001600160a01b038616845290915290205460ff16611701576000818152602081815260408083206001600160a01b0395909516808452949091528120805460ff19166001179055339291907f2f8788117e7eff1d82e926ec794901d17c78024a50270940304540a733656f0d9080a4600190565b6000818152602081815260408083206001600160a01b038616845290915290205460ff1615611701576000818152602081815260408083206001600160a01b0395909516808452949091528120805460ff19169055339291907ff6391f5c32d9c69d2a47ea670b442974b53935d1edc7fd64eb21e047a839171b9080a4600190565b611c3d611c429392611c2f60405194859263a9059cbb60e01b6020850152602484016119c8565b03601f19810184528361194c565b611d06565b565b600260015414611c55576002600155565b633ee5aeb560e01b60005260046000fd5b60ff60025416611c7257565b63d93c066560e01b60005260046000fd5b6005546009548015611cfe5760001981019081116114f5575b60009160005b600954811015611cf657611cb5816114b7565b50546001600160801b0316821115611ccf57600101611ca2565b60075550905060015b1580611ceb575b611ce65750565b600755565b506009541515611cdf565b505090611cd8565b506000611c9c565b906000602091828151910182855af115611d61576000513d611d5857506001600160a01b0381163b155b611d375750565b635274afe760e01b60009081526001600160a01b0391909116600452602490fd5b60011415611d30565b6040513d6000823e3d90fd2f8788117e7eff1d82e926ec794901d17c78024a50270940304540a733656f0d3c1b1854ab1360abbb06c8d4c6b2672d4b8cedc5eff522ab19e51d5cb8fdbd46ad3228b676f7d3cd4284a5443f17f1962b36e491b30a40b2405849e597ba5fb5608060405234610519576115d3803803806100198161051e565b928339810160c0828203126105195781516001600160401b0381116105195781610044918401610543565b60208301516001600160401b0381116105195782610063918501610543565b9260408101519260608201519060018060401b03821161051957610088918301610543565b9360a060808301519201519280519060018060401b0382116103295760035490600182811c9216801561050f575b60208310146103095781601f84931161049f575b50602090601f83116001146104375760009261042c575b50508160011b916000199060031b1c1916176003555b8051906001600160401b0382116103295760045490600182811c92168015610422575b60208310146103095781601f8493116103b2575b50602090601f831160011461034a5760009261033f575b50508160011b916000199060031b1c1916176004555b610164336105ae565b5060405160a08101906001600160401b03821181831017610329576080916040528481528560208201526040810192835260608101938452019260018452600655835160018060401b03811161032957600754600181811c9116801561031f575b602082101461030957601f81116102a4575b50602094601f821160011461023d57948192939495600092610232575b50508160011b916000199060031b1c1916176007555b516008555160095551151560ff8019600a5416911617600a55604051610f76908161063d8239f35b0151905038806101f4565b601f198216956007600052806000209160005b88811061028c57508360019596979810610273575b505050811b0160075561020a565b015160001960f88460031b161c19169055388080610265565b91926020600181928685015181550194019201610250565b60076000527fa66cc928b5edb82af9bd49922954155ab7b0942694bea4ce44661d9a8736c688601f830160051c810191602084106102ff575b601f0160051c01905b8181106102f357506101d7565b600081556001016102e6565b90915081906102dd565b634e487b7160e01b600052602260045260246000fd5b90607f16906101c5565b634e487b7160e01b600052604160045260246000fd5b015190503880610145565b600460009081528281209350601f198516905b81811061039a5750908460019594939210610381575b505050811b0160045561015b565b015160001960f88460031b161c19169055388080610373565b9293602060018192878601518155019501930161035d565b60046000529091507f8a35acfbc15ff81a39ae7d344fd709f28e8600b4aa8c65c6b64bfe7fe36bd19b601f840160051c81019160208510610418575b90601f859493920160051c01905b818110610409575061012e565b600081558493506001016103fc565b90915081906103ee565b91607f169161011a565b0151905038806100e1565b600360009081528281209350601f198516905b818110610487575090846001959493921061046e575b505050811b016003556100f7565b015160001960f88460031b161c19169055388080610460565b9293602060018192878601518155019501930161044a565b60036000529091507fc2575a0e9e593c00f959f8c92f12db2869c3395a3b0502d05e2516446f71f85b601f840160051c81019160208510610505575b90601f859493920160051c01905b8181106104f657506100ca565b600081558493506001016104e9565b90915081906104db565b91607f16916100b6565b600080fd5b6040519190601f01601f191682016001600160401b0381118382101761032957604052565b81601f82011215610519578051906001600160401b03821161032957610572601f8301601f191660200161051e565b92828452602083830101116105195760005b82811061059957505060206000918301015290565b80602080928401015182828701015201610584565b6001600160a01b03811660009081526000805160206115b3833981519152602052604090205460ff16610636576001600160a01b031660008181526000805160206115b383398151915260205260408120805460ff191660011790553391907f2f8788117e7eff1d82e926ec794901d17c78024a50270940304540a733656f0d8180a4600190565b5060009056fe608080604052600436101561001357600080fd5b60003560e01c90816301ffc9a714610aed5750806306fdde0314610a2f578063095ea7b3146109a957806311de2a74146108fb57806318160ddd146108dd57806323b872dd146107f0578063248a9ca3146107ca578063282c51f31461078f5780632f2ff15d1461075e578063313ce5671461074257806336568abe146106fc57806340c10f19146105f157806342966c68146105d45780635311252b1461051857806370a08231146104de57806379cc67901461044857806391d14854146103fb57806395d89b41146102ec578063a217fddf146102d0578063a9059cbb1461029f578063b1a532de14610243578063ba732064146101fb578063d5391393146101c0578063d547741f146101885763dd62ed3e1461013257600080fd5b346101835760403660031901126101835761014b610b81565b610153610b97565b6001600160a01b039182166000908152600160209081526040808320949093168252928352819020549051908152f35b600080fd5b34610183576040366003190112610183576101be6004356101a7610b97565b906101b96101b482610ce3565b610cf7565b610e60565b005b346101835760003660031901126101835760206040517f9f2df0fed2c77648de5860a4cc508cd0818c85b8b8a1ab4ceeef8d981c8956a68152f35b346101835760003660031901126101835760ff600a541680610237575b8061022b575b6020906040519015158152f35b5060095442111561021e565b50600854421015610218565b346101835760003660031901126101835760065461025f610bff565b9060085460095460ff600a541690610289604051958695865260a0602087015260a0860190610b40565b9260408501526060840152151560808301520390f35b34610183576040366003190112610183576102c56102bb610b81565b6024359033610d34565b602060405160018152f35b3461018357600036600319011261018357602060405160008152f35b346101835760003660031901126101835760405160006004548060011c906001811680156103f1575b6020831081146103dd578285529081156103b9575060011461035a575b6103568361034281850382610bde565b604051918291602083526020830190610b40565b0390f35b600460009081527f8a35acfbc15ff81a39ae7d344fd709f28e8600b4aa8c65c6b64bfe7fe36bd19b939250905b80821061039f57509091508101602001610342610332565b919260018160209254838588010152019101909291610387565b60ff191660208086019190915291151560051b840190910191506103429050610332565b634e487b7160e01b84526022600452602484fd5b91607f1691610315565b3461018357604036600319011261018357610414610b97565b600435600052600560205260406000209060018060a01b0316600052602052602060ff604060002054166040519015158152f35b3461018357604036600319011261018357610461610b81565b3360009081527f847f481f687befb06ed3511f1a8dcef57e83007c0147ae5047583d7056170937602052604090205460ff16156104a5576101be9060243590610ee6565b63e2517d3f60e01b600052336004527f3c11d16cbaffd01df69ce1c404f6340ee057498f5f00246190ea54220576a84860245260446000fd5b34610183576020366003190112610183576001600160a01b036104ff610b81565b1660005260006020526020604060002054604051908152f35b34610183576000366003190112610183576000608060405161053981610bad565b82815260606020820152826040820152826060820152015260405161055d81610bad565b600654815261056a610bff565b9060208101918252600854604082019081526009546060830190815260ff600a5416906080840191151582526105bb604051958695602087525160208701525160a0604087015260c0860190610b40565b9251606085015251608084015251151560a08301520390f35b34610183576020366003190112610183576101be60043533610ee6565b346101835760403660031901126101835761060a610b81565b3360009081527f15a28d26fa1bf736cf7edc9922607171ccb09c3c73b808e7772a3013e068a5226020526040902054602435919060ff16156106c3576001600160a01b031680156106ad576002549180830180931161069757602092600255600080516020610f56833981519152600093849284845283825260408420818154019055604051908152a380f35b634e487b7160e01b600052601160045260246000fd5b63ec442f0560e01b600052600060045260246000fd5b63e2517d3f60e01b600052336004527f9f2df0fed2c77648de5860a4cc508cd0818c85b8b8a1ab4ceeef8d981c8956a660245260446000fd5b3461018357604036600319011261018357610715610b97565b336001600160a01b03821603610731576101be90600435610e60565b63334bd91960e11b60005260046000fd5b3461018357600036600319011261018357602060405160128152f35b34610183576040366003190112610183576101be60043561077d610b97565b9061078a6101b482610ce3565b610dd1565b346101835760003660031901126101835760206040517f3c11d16cbaffd01df69ce1c404f6340ee057498f5f00246190ea54220576a8488152f35b346101835760203660031901126101835760206107e8600435610ce3565b604051908152f35b3461018357606036600319011261018357610809610b81565b610811610b97565b6001600160a01b0382166000818152600160209081526040808320338452909152902054909260443592916000198110610851575b506102c59350610d34565b8381106108c05784156108aa573315610894576102c5946000526001602052604060002060018060a01b0333166000526020528360406000209103905584610846565b634a1406b160e11b600052600060045260246000fd5b63e602df0560e01b600052600060045260246000fd5b8390637dc7a0d960e11b6000523360045260245260445260646000fd5b34610183576000366003190112610183576020600254604051908152f35b3461018357602036600319011261018357600435801515809103610183573360009081527f05b8ccbb9d4d8fb16ea74ce3c29a41f1b461fbdaff4714a0d9a8eb05499746bc602052604090205460ff161561098f5760ff19600a541660ff821617600a557f7dd3902b18165a0ac5311d6a4f1929c4b67e76d91efec06ff2fd0315ebfcfbe0602060065492604051908152a2005b63e2517d3f60e01b60005233600452600060245260446000fd5b34610183576040366003190112610183576109c2610b81565b6024359033156108aa576001600160a01b031690811561089457336000526001602052604060002082600052602052806040600020556040519081527f8c5be1e5ebec7d5bd14f71427d1e84f3dd0314c0f7b2291e5b200ac8c7c3b92560203392a3602060405160018152f35b346101835760003660031901126101835760405160006003548060011c90600181168015610ae3575b6020831081146103dd578285529081156103b95750600114610a84576103568361034281850382610bde565b600360009081527fc2575a0e9e593c00f959f8c92f12db2869c3395a3b0502d05e2516446f71f85b939250905b808210610ac957509091508101602001610342610332565b919260018160209254838588010152019101909291610ab1565b91607f1691610a58565b34610183576020366003190112610183576004359063ffffffff60e01b821680920361018357602091637965db0b60e01b8114908115610b2f575b5015158152f35b6301ffc9a760e01b14905083610b28565b919082519283825260005b848110610b6c575050826000602080949584010152601f8019910116010190565b80602080928401015182828601015201610b4b565b600435906001600160a01b038216820361018357565b602435906001600160a01b038216820361018357565b60a081019081106001600160401b03821117610bc857604052565b634e487b7160e01b600052604160045260246000fd5b90601f801991011681019081106001600160401b03821117610bc857604052565b604051906000600754908160011c91600181168015610cd9575b602084108114610cc5578386528592918115610ca65750600114610c46575b610c4492500383610bde565b565b506007600090815290917fa66cc928b5edb82af9bd49922954155ab7b0942694bea4ce44661d9a8736c6885b818310610c8a575050906020610c4492820101610c38565b6020919350806001915483858901015201910190918492610c72565b60209250610c4494915060ff191682840152151560051b820101610c38565b634e487b7160e01b83526022600452602483fd5b92607f1692610c19565b600052600560205260016040600020015490565b600081815260056020908152604080832033845290915290205460ff1615610d1c5750565b63e2517d3f60e01b6000523360045260245260446000fd5b6001600160a01b0316908115610dbb576001600160a01b03169182156106ad576000828152806020526040812054828110610da1579160408282600080516020610f56833981519152958760209652828652038282205586815280845220818154019055604051908152a3565b916064928463391434e360e21b8452600452602452604452fd5b634b637e8f60e11b600052600060045260246000fd5b60008181526005602090815260408083206001600160a01b038616845290915290205460ff16610e595760008181526005602090815260408083206001600160a01b0395909516808452949091528120805460ff19166001179055339291907f2f8788117e7eff1d82e926ec794901d17c78024a50270940304540a733656f0d9080a4600190565b5050600090565b60008181526005602090815260408083206001600160a01b038616845290915290205460ff1615610e595760008181526005602090815260408083206001600160a01b0395909516808452949091528120805460ff19169055339291907ff6391f5c32d9c69d2a47ea670b442974b53935d1edc7fd64eb21e047a839171b9080a4600190565b6001600160a01b03168015610dbb57600091818352826020526040832054818110610f3c5781600080516020610f56833981519152926020928587528684520360408620558060025403600255604051908152a3565b6064939263391434e360e21b8452600452602452604452fdfeddf252ad1be2c89b69c2b068fc378daa952ba7f163c4a11628f55a4df523b3ef05b8ccbb9d4d8fb16ea74ce3c29a41f1b461fbdaff4714a0d9a8eb05499746bcb88b0f53c789e9af51eb66b92a0ba70005f0e64d5a58a4c74304b575836336fbbf233dd2aafeb4d50879c4aa5c81e96d92f6e6945c906a58f9f2d1c1631b4b26ac77b6b0b2feb4466fddc617dfa38c6ef3c26332af501f28b86a706a0b6ec2ebc5e2433d0a3c75ef5e37c4e28ccd84092c7dcdc38a7fff2e2a116ad41013a6562f8788117e7eff1d82e926ec794901d17c78024a50270940304540a733656f0d3c1b1854ab1360abbb06c8d4c6b2672d4b8cedc5eff522ab19e51d5cb8fdbd46ad3228b676f7d3cd4284a5443f17f1962b36e491b30a40b2405849e597ba5fb5","linkReferences":{}},"methodIdentifiers":{"BONDING_CURVE_ROLE()":"354443a0","DEFAULT_ADMIN_ROLE()":"a217fddf","EMERGENCY_ROLE()":"20df4359","SEASON_CREATOR_ROLE()":"98f0e3e9","VRF_REQUEST_CONFIRMATIONS()":"1e27580e","createSeason((string,uint256,uint256,uint32,uint16,uint16,uint16,bool,bool,address,address),(uint128,uint128)[],uint16,uint16)":"4fc343bb","currentSeasonId()":"dc293382","getParticipantNumberRange(uint256,address)":"593d03a0","getParticipantPosition(uint256,address)":"f1412d94","getParticipants(uint256)":"c1e3bd3e","getRoleAdmin(bytes32)":"248a9ca3","getSeasonDetails(uint256)":"1c30c76b","getWinners(uint256)":"6b1426a4","grantRole(bytes32,address)":"2f2ff15d","hasRole(bytes32,address)":"91d14854","pauseSeason(uint256)":"3aa4159e","rawFulfillRandomWords(uint256,uint256[])":"1fe543e3","recordParticipant(uint256,address,uint256)":"26182e7b","removeParticipant(uint256,address,uint256)":"8d12036c","renounceRole(bytes32,address)":"36568abe","requestSeasonEnd(uint256)":"3e81d1ca","revokeRole(bytes32,address)":"d547741f","seasonStates(uint256)":"d6769d42","seasons(uint256)":"f5d709a1","sofToken()":"06f6fc13","startSeason(uint256)":"703dbfe4","supportsInterface(bytes4)":"01ffc9a7","updateVRFConfig(uint64,bytes32,uint32)":"8df48e66","vrfCallbackGasLimit()":"3b7ed734","vrfKeyHash()":"041d443e","vrfRequestToSeason(uint256)":"b71d1627","vrfSubscriptionId()":"ed647d21"},"id":35}