{"abi":[{"type":"constructor","inputs":[{"name":"_sofToken","type":"address","internalType":"address"}],"stateMutability":"nonpayable"},{"type":"function","name":"DEFAULT_ADMIN_ROLE","inputs":[],"outputs":[{"name":"","type":"bytes32","internalType":"bytes32"}],"stateMutability":"view"},{"type":"function","name":"EMERGENCY_ROLE","inputs":[],"outputs":[{"name":"","type":"bytes32","internalType":"bytes32"}],"stateMutability":"view"},{"type":"function","name":"RAFFLE_MANAGER_ROLE","inputs":[],"outputs":[{"name":"","type":"bytes32","internalType":"bytes32"}],"stateMutability":"view"},{"type":"function","name":"bondSteps","inputs":[{"name":"","type":"uint256","internalType":"uint256"}],"outputs":[{"name":"rangeTo","type":"uint128","internalType":"uint128"},{"name":"price","type":"uint128","internalType":"uint128"}],"stateMutability":"view"},{"type":"function","name":"buyTokens","inputs":[{"name":"tokenAmount","type":"uint256","internalType":"uint256"},{"name":"maxSofAmount","type":"uint256","internalType":"uint256"}],"outputs":[],"stateMutability":"nonpayable"},{"type":"function","name":"calculateBuyPrice","inputs":[{"name":"tokenAmount","type":"uint256","internalType":"uint256"}],"outputs":[{"name":"","type":"uint256","internalType":"uint256"}],"stateMutability":"view"},{"type":"function","name":"calculateSellPrice","inputs":[{"name":"tokenAmount","type":"uint256","internalType":"uint256"}],"outputs":[{"name":"","type":"uint256","internalType":"uint256"}],"stateMutability":"view"},{"type":"function","name":"curveConfig","inputs":[],"outputs":[{"name":"totalSupply","type":"uint256","internalType":"uint256"},{"name":"sofReserves","type":"uint256","internalType":"uint256"},{"name":"currentStep","type":"uint256","internalType":"uint256"},{"name":"buyFee","type":"uint16","internalType":"uint16"},{"name":"sellFee","type":"uint16","internalType":"uint16"},{"name":"tradingLocked","type":"bool","internalType":"bool"},{"name":"initialized","type":"bool","internalType":"bool"}],"stateMutability":"view"},{"type":"function","name":"extractSof","inputs":[{"name":"to","type":"address","internalType":"address"},{"name":"amount","type":"uint256","internalType":"uint256"}],"outputs":[],"stateMutability":"nonpayable"},{"type":"function","name":"getBondSteps","inputs":[],"outputs":[{"name":"","type":"tuple[]","internalType":"struct SOFBondingCurve.BondStep[]","components":[{"name":"rangeTo","type":"uint128","internalType":"uint128"},{"name":"price","type":"uint128","internalType":"uint128"}]}],"stateMutability":"view"},{"type":"function","name":"getCurrentStep","inputs":[],"outputs":[{"name":"step","type":"uint256","internalType":"uint256"},{"name":"price","type":"uint256","internalType":"uint256"},{"name":"rangeTo","type":"uint256","internalType":"uint256"}],"stateMutability":"view"},{"type":"function","name":"getRoleAdmin","inputs":[{"name":"role","type":"bytes32","internalType":"bytes32"}],"outputs":[{"name":"","type":"bytes32","internalType":"bytes32"}],"stateMutability":"view"},{"type":"function","name":"getSofReserves","inputs":[],"outputs":[{"name":"","type":"uint256","internalType":"uint256"}],"stateMutability":"view"},{"type":"function","name":"grantRole","inputs":[{"name":"role","type":"bytes32","internalType":"bytes32"},{"name":"account","type":"address","internalType":"address"}],"outputs":[],"stateMutability":"nonpayable"},{"type":"function","name":"hasRole","inputs":[{"name":"role","type":"bytes32","internalType":"bytes32"},{"name":"account","type":"address","internalType":"address"}],"outputs":[{"name":"","type":"bool","internalType":"bool"}],"stateMutability":"view"},{"type":"function","name":"initializeCurve","inputs":[{"name":"_raffleToken","type":"address","internalType":"address"},{"name":"_bondSteps","type":"tuple[]","internalType":"struct SOFBondingCurve.BondStep[]","components":[{"name":"rangeTo","type":"uint128","internalType":"uint128"},{"name":"price","type":"uint128","internalType":"uint128"}]},{"name":"_buyFee","type":"uint16","internalType":"uint16"},{"name":"_sellFee","type":"uint16","internalType":"uint16"}],"outputs":[],"stateMutability":"nonpayable"},{"type":"function","name":"lockTrading","inputs":[],"outputs":[],"stateMutability":"nonpayable"},{"type":"function","name":"pause","inputs":[],"outputs":[],"stateMutability":"nonpayable"},{"type":"function","name":"paused","inputs":[],"outputs":[{"name":"","type":"bool","internalType":"bool"}],"stateMutability":"view"},{"type":"function","name":"raffle","inputs":[],"outputs":[{"name":"","type":"address","internalType":"address"}],"stateMutability":"view"},{"type":"function","name":"raffleSeasonId","inputs":[],"outputs":[{"name":"","type":"uint256","internalType":"uint256"}],"stateMutability":"view"},{"type":"function","name":"raffleToken","inputs":[],"outputs":[{"name":"","type":"address","internalType":"contract IRaffleToken"}],"stateMutability":"view"},{"type":"function","name":"renounceRole","inputs":[{"name":"role","type":"bytes32","internalType":"bytes32"},{"name":"callerConfirmation","type":"address","internalType":"address"}],"outputs":[],"stateMutability":"nonpayable"},{"type":"function","name":"revokeRole","inputs":[{"name":"role","type":"bytes32","internalType":"bytes32"},{"name":"account","type":"address","internalType":"address"}],"outputs":[],"stateMutability":"nonpayable"},{"type":"function","name":"sellTokens","inputs":[{"name":"tokenAmount","type":"uint256","internalType":"uint256"},{"name":"minSofAmount","type":"uint256","internalType":"uint256"}],"outputs":[],"stateMutability":"nonpayable"},{"type":"function","name":"setRaffleInfo","inputs":[{"name":"_raffle","type":"address","internalType":"address"},{"name":"_seasonId","type":"uint256","internalType":"uint256"}],"outputs":[],"stateMutability":"nonpayable"},{"type":"function","name":"sofToken","inputs":[],"outputs":[{"name":"","type":"address","internalType":"contract IERC20"}],"stateMutability":"view"},{"type":"function","name":"supportsInterface","inputs":[{"name":"interfaceId","type":"bytes4","internalType":"bytes4"}],"outputs":[{"name":"","type":"bool","internalType":"bool"}],"stateMutability":"view"},{"type":"function","name":"unpause","inputs":[],"outputs":[],"stateMutability":"nonpayable"},{"type":"event","name":"CurveInitialized","inputs":[{"name":"raffleToken","type":"address","indexed":false,"internalType":"address"},{"name":"stepCount","type":"uint256","indexed":false,"internalType":"uint256"}],"anonymous":false},{"type":"event","name":"Paused","inputs":[{"name":"account","type":"address","indexed":false,"internalType":"address"}],"anonymous":false},{"type":"event","name":"RoleAdminChanged","inputs":[{"name":"role","type":"bytes32","indexed":true,"internalType":"bytes32"},{"name":"previousAdminRole","type":"bytes32","indexed":true,"internalType":"bytes32"},{"name":"newAdminRole","type":"bytes32","indexed":true,"internalType":"bytes32"}],"anonymous":false},{"type":"event","name":"RoleGranted","inputs":[{"name":"role","type":"bytes32","indexed":true,"internalType":"bytes32"},{"name":"account","type":"address","indexed":true,"internalType":"address"},{"name":"sender","type":"address","indexed":true,"internalType":"address"}],"anonymous":false},{"type":"event","name":"RoleRevoked","inputs":[{"name":"role","type":"bytes32","indexed":true,"internalType":"bytes32"},{"name":"account","type":"address","indexed":true,"internalType":"address"},{"name":"sender","type":"address","indexed":true,"internalType":"address"}],"anonymous":false},{"type":"event","name":"SofExtracted","inputs":[{"name":"to","type":"address","indexed":true,"internalType":"address"},{"name":"amount","type":"uint256","indexed":false,"internalType":"uint256"}],"anonymous":false},{"type":"event","name":"TokensPurchased","inputs":[{"name":"buyer","type":"address","indexed":true,"internalType":"address"},{"name":"sofAmount","type":"uint256","indexed":false,"internalType":"uint256"},{"name":"tokensReceived","type":"uint256","indexed":false,"internalType":"uint256"},{"name":"feeAmount","type":"uint256","indexed":false,"internalType":"uint256"}],"anonymous":false},{"type":"event","name":"TokensSold","inputs":[{"name":"seller","type":"address","indexed":true,"internalType":"address"},{"name":"tokenAmount","type":"uint256","indexed":false,"internalType":"uint256"},{"name":"sofReceived","type":"uint256","indexed":false,"internalType":"uint256"},{"name":"feeAmount","type":"uint256","indexed":false,"internalType":"uint256"}],"anonymous":false},{"type":"event","name":"TradingLocked","inputs":[{"name":"timestamp","type":"uint256","indexed":false,"internalType":"uint256"}],"anonymous":false},{"type":"event","name":"Unpaused","inputs":[{"name":"account","type":"address","indexed":false,"internalType":"address"}],"anonymous":false},{"type":"error","name":"AccessControlBadConfirmation","inputs":[]},{"type":"error","name":"AccessControlUnauthorizedAccount","inputs":[{"name":"account","type":"address","internalType":"address"},{"name":"neededRole","type":"bytes32","internalType":"bytes32"}]},{"type":"error","name":"EnforcedPause","inputs":[]},{"type":"error","name":"ExpectedPause","inputs":[]},{"type":"error","name":"ReentrancyGuardReentrantCall","inputs":[]},{"type":"error","name":"SafeERC20FailedOperation","inputs":[{"name":"token","type":"address","internalType":"address"}]}],"bytecode":{"object":"0x60a0346100d957601f611fd638819003918201601f19168301916001600160401b038311848410176100de578084926020946040528339810103126100d957516001600160a01b038116908190036100d95760018055801561009f57608052610067336100f4565b5061007133610170565b50604051611d6d9081610209823960805181818161027101528181610db50152818161110001526113d60152f35b60405162461bcd60e51b8152602060048201526012602482015271534f463a20746f6b656e206973207a65726f60701b6044820152606490fd5b600080fd5b634e487b7160e01b600052604160045260246000fd5b6001600160a01b0381166000908152600080516020611fb6833981519152602052604090205460ff1661016a576001600160a01b03166000818152600080516020611fb683398151915260205260408120805460ff19166001179055339190600080516020611f768339815191528180a4600190565b50600090565b6001600160a01b0381166000908152600080516020611f96833981519152602052604090205460ff1661016a576001600160a01b03166000818152600080516020611f9683398151915260205260408120805460ff191660011790553391907fbf233dd2aafeb4d50879c4aa5c81e96d92f6e6945c906a58f9f2d1c1631b4b2690600080516020611f768339815191529080a460019056fe608080604052600436101561001357600080fd5b600090813560e01c90816301ffc9a7146114055750806306f6fc13146113c05780631d3824ea1461139157806320df435914611356578063248a9ca3146113375780632ba3a504146112a05780632e5e2b3b146112815780632f2ff15d1461124f57806333c1420a1461122657806336568abe146111e15780633c420b89146110885780633c4e09271461106a5780633f4ba83a1461100257806358b9a99614610fdb5780635c975abb14610fb857806364b4fc8e14610f8b5780636c43084f14610f505780637975ce2814610cf45780638357128a14610c915780638456cb5914610c3657806385a3a74c14610c1857806386afa11014610b9e5780638a497c4c14610b5657806391d1485414610b0b578063a217fddf14610aef578063a95a0b051461055d578063d547741f14610522578063d8946f7a146103e75763ed9772b61461016057600080fd5b3461033e5761016e366114a1565b90610177611c44565b61017f611c66565b6008549161019260ff8460281c16611856565b6101a260ff8460201c1615611894565b6101ad8215156118d0565b60055482116103b0576127106101d361ffff6101c8856115f1565b9560101c16856115d1565b046101ea6101e182866114e8565b9283101561190e565b83600654106103795760025485949060081c6001600160a01b0316803b156103755785604051809263079cc67960e41b825281838161022d8b33600484016119c8565b03925af190811561036a578691610351575b50507f6db63bebf1e6540277744df32846ebdb98385b1a73f2d5de49b28348add63f50916102ac6102c69261029586337f0000000000000000000000000000000000000000000000000000000000000000611c08565b6102a1876005546114e8565b6005556006546114e8565b6006556102b7611c83565b6040519182913395878461145a565b0390a26003546001600160a01b031690816102e4575b826001805580f35b60045490823b1561034c576103149284928360405180968195829463234480db60e21b8452339060048501611983565b03925af1801561034157610329575b806102dc565b816103339161194c565b61033e578038610323565b80fd5b6040513d84823e3d90fd5b505050fd5b8161035b9161194c565b61036657843861023f565b8480fd5b6040513d88823e3d90fd5b8580fd5b60405162461bcd60e51b815260206004820152600f60248201526e43757276653a20726573657276657360881b6044820152606490fd5b60405162461bcd60e51b815260206004820152600f60248201526e43757276653a203e20737570706c7960881b6044820152606490fd5b503461033e578060031936011261033e576009546001600160401b03811161050e5760405161041c60208360051b018261194c565b8181526009835260208101917f6e1540171b6c0c960b71a7020d9f60077f6af931a8bbf590da0223dacf75c7af9084845b8282106104b057868587604051928392602084019060208552518091526040840192915b81811061047f575050500390f35b825180516001600160801b039081168652602091820151168186015286955060409094019390920191600101610471565b604051604081018181106001600160401b038211176104fa5760405284546001600160801b038116825260801c60208083019190915290825260019485019492909201910161044d565b634e487b7160e01b89526041600452602489fd5b634e487b7160e01b82526041600452602482fd5b503461033e57604036600319011261033e5761055960043561054261148b565b9061055461054f8261156a565b611ac7565b611b86565b5080f35b503461033e57608036600319011261033e57610577611470565b90602435916001600160401b038311610aeb5736602384011215610aeb578260040135906001600160401b038211610ae7576024840193602436918460061b010111610ae75760443561ffff8116809103610ae3576064359061ffff821695868303610375576105e56119e3565b60ff60085460281c16610aa9576106066001600160a01b038516151561157e565b8415610a72576103e88211610a37576103e887116109fb5760028054610100600160a81b031916600886901b610100600160a81b03161790556009805490879055806109b9575b50855b8581106107305750506040519560e087018781106001600160401b0382111761071c577fb70e08e127ce072caa4229e23320f2fe12ddd5d35dbf754f89963c54ea98359a969760019260c09260405289825289602083015289604083015284606083015260808201528860a0820152015285600555856006558560075563ffff00006008549260101b169163ffffffff1916171760085560ff60201b1960085416600855600160281b60ff60281b196008541617600855610716604051928392836119c8565b0390a180f35b634e487b7160e01b87526041600452602487fd5b6001600160801b0361074b6107468389866119a4565b6119b4565b1615610983576001600160801b0361076f6020610769848a876119a4565b016119b4565b161561094d57806108bc575b6001600160801b0380610792610746848a876119a4565b161161087f576001600160801b03806107b16020610769858b886119a4565b1611610842576107c28187846119a4565b600954600160401b8110156104fa578060016107e192016009556114b7565b91909161082e5760019291906001600160801b036107fe826119b4565b169081858060801b03198454161783556108216020868060801b031992016119b4565b60801b1617905501610650565b634e487b7160e01b89526004899052602489fd5b60405162461bcd60e51b815260206004820152601560248201527443757276653a207072696365206f766572666c6f7760581b6044820152606490fd5b60405162461bcd60e51b815260206004820152601560248201527443757276653a2072616e6765206f766572666c6f7760581b6044820152606490fd5b6108ca6107468288856119a4565b6000198201828111610939576001600160801b03906108ee90610746908a876119a4565b166001600160801b039091161161077b5760405162461bcd60e51b815260206004820152601260248201527121bab93b329d1039ba32b8399037b93232b960711b6044820152606490fd5b634e487b7160e01b89526011600452602489fd5b60405162461bcd60e51b815260206004820152600e60248201526d043757276653a20707269636520360941b6044820152606490fd5b60405162461bcd60e51b815260206004820152600e60248201526d043757276653a2072616e676520360941b6044820152606490fd5b600987527f6e1540171b6c0c960b71a7020d9f60077f6af931a8bbf590da0223dacf75c7af908101905b8181106109f0575061064d565b8781556001016109e3565b60405162461bcd60e51b815260206004820152601460248201527343757276653a2073656c6c466565203e2031302560601b6044820152606490fd5b60405162461bcd60e51b815260206004820152601360248201527243757276653a20627579466565203e2031302560681b6044820152606490fd5b60405162461bcd60e51b815260206004820152600f60248201526e43757276653a206e6f20737465707360881b6044820152606490fd5b60405162461bcd60e51b815260206004820152601260248201527110dd5c9d994e881a5b9a5d1a585b1a5e995960721b6044820152606490fd5b8380fd5b8280fd5b5080fd5b503461033e578060031936011261033e57602090604051908152f35b503461033e57604036600319011261033e576040610b2761148b565b91600435815280602052209060018060a01b0316600052602052602060ff604060002054166040519015158152f35b503461033e57602036600319011261033e576004359060095482101561033e576040610b81836114b7565b505481516001600160801b038216815260809190911c6020820152f35b503461033e578060031936011261033e57610bb76119e3565b600854610bc960ff8260281c16611856565b610bd960ff8260201c1615611894565b60ff60201b1916600160201b176008556040514281527fe032e6fbb95ea27d9b5dd8a16c4bf046f561b842e6bc8e260f47b77d1b0ef69b90602090a180f35b503461033e578060031936011261033e576020600654604051908152f35b503461033e578060031936011261033e57610c4f611a55565b610c57611c66565b600160ff1960025416176002557f62e78cea01bee320cd4e420270b5ea74000d11b0c9f74754ebdbfc544b05a2586020604051338152a180f35b503461033e578060031936011261033e5760e060055460ff600654600754600854916040519485526020850152604084015261ffff8116606084015261ffff8160101c166080840152818160201c16151560a084015260281c16151560c0820152f35b503461033e57610d03366114a1565b9190610d0d611c44565b610d15611c66565b60085492610d2860ff8560281c16611856565b610d3860ff8560201c1615611894565b610d438215156118d0565b600554198211610f1157612710610d6761ffff610d5f8561170e565b9616866115d1565b0493610d7f610d7686836115e4565b9283111561190e565b610dd96040516323b872dd60e01b602082015233602482015230604482015283606482015260648152610db360848261194c565b7f0000000000000000000000000000000000000000000000000000000000000000611d06565b60025460081c6001600160a01b0316803b15610366578460405180926340c10f1960e01b8252818381610e108a33600484016119c8565b03925af18015610f0657610ec8575b50610e7b8495610e617f0d1a0d5e3d583a0e92588799dd06e50fd78c07daf05f0cc06d7b848b1ca445f193610e56876005546115e4565b6005556006546115e4565b600655610e6c611c83565b6040519182918633968461145a565b0390a26003546001600160a01b03169081610e9857826001805580f35b60045490823b1561034c57610314928492836040518096819582946326182e7b60e01b8452339060048501611983565b610e619585610efc7f0d1a0d5e3d583a0e92588799dd06e50fd78c07daf05f0cc06d7b848b1ca445f19497610e7b9461194c565b9592509550610e1f565b6040513d87823e3d90fd5b60405162461bcd60e51b815260206004820152601760248201527643757276653a20616d6f756e7420746f6f206c6172676560481b6044820152606490fd5b503461033e578060031936011261033e5760206040517f03b4459c543e7fe245e8e148c6cab46a28e66bba7ee09988335c0dc88457fac28152f35b503461033e578060031936011261033e5760025460405160089190911c6001600160a01b03168152602090f35b503461033e578060031936011261033e57602060ff600254166040519015158152f35b503461033e57602036600319011261033e576020610ffa60043561170e565b604051908152f35b503461033e578060031936011261033e5761101b611a55565b60025460ff81161561105b5760ff19166002557f5db9ee0a495bf2e6ff9c91a7834c1ba4fdd244a5e8aa4e537bd38aeae4b073aa6020604051338152a180f35b638dfc202b60e01b8252600482fd5b503461033e578060031936011261033e576020600454604051908152f35b503461033e57604036600319011261033e576110a2611470565b6024356110ad6119e3565b60ff60085460201c16156111ac576006548111611173576001600160a01b03821691821561113d57816111247f51042b7a4c111754f54cf7d34232d1ca77140d9549d258df9bff4de65f6a53e4936020937f0000000000000000000000000000000000000000000000000000000000000000611c08565b611130816006546114e8565b600655604051908152a280f35b60405162461bcd60e51b815260206004820152600e60248201526d43757276653a207a65726f20746f60901b6044820152606490fd5b60405162461bcd60e51b815260206004820152601160248201527043757276653a203e20726573657276657360781b6044820152606490fd5b60405162461bcd60e51b815260206004820152600d60248201526c43757276653a20756e6c6f636b60981b6044820152606490fd5b503461033e57604036600319011261033e576111fb61148b565b336001600160a01b038216036112175761055990600435611b86565b63334bd91960e11b8252600482fd5b503461033e578060031936011261033e576003546040516001600160a01b039091168152602090f35b503461033e57604036600319011261033e5761055960043561126f61148b565b9061127c61054f8261156a565b611b02565b503461033e57602036600319011261033e576020610ffa6004356115f1565b503461033e57604036600319011261033e576112ba611470565b6112c26119e3565b6001600160a01b03166112d681151561157e565b6003546001600160a01b0381166112fe576001600160a01b0319161760035560243560045580f35b60405162461bcd60e51b815260206004820152601160248201527010dd5c9d994e881c9859999b19481cd95d607a1b6044820152606490fd5b503461033e57602036600319011261033e576020610ffa60043561156a565b503461033e578060031936011261033e5760206040517fbf233dd2aafeb4d50879c4aa5c81e96d92f6e6945c906a58f9f2d1c1631b4b268152f35b503461033e578060031936011261033e576113bc6113ad61150b565b6040939193519384938461145a565b0390f35b503461033e578060031936011261033e576040517f00000000000000000000000000000000000000000000000000000000000000006001600160a01b03168152602090f35b905034610aeb576020366003190112610aeb5760043563ffffffff60e01b8116809103610ae75760209250637965db0b60e01b8114908115611449575b5015158152f35b6301ffc9a760e01b14905038611442565b6040919493926060820195825260208201520152565b600435906001600160a01b038216820361148657565b600080fd5b602435906001600160a01b038216820361148657565b6040906003190112611486576004359060243590565b6009548110156114d257600960005260206000200190600090565b634e487b7160e01b600052603260045260246000fd5b919082039182116114f557565b634e487b7160e01b600052601160045260246000fd5b600954801561155e57600754908082101561154b575b5061152b816114b7565b505460801c9161153a826114b7565b50549192916001600160801b031690565b6000198101915081116114f55738611521565b50600090600090600090565b600052600060205260016040600020015490565b1561158557565b60405162461bcd60e51b815260206004820152601260248201527143757276653a20726166666c65207a65726f60701b6044820152606490fd5b9060001982019182136001166114f557565b818102929181159184041417156114f557565b919082018092116114f557565b801561170857600554908181116117015761160c90826114e8565b9060009161161b6009546115bf565b915b600083121561162d575b50505090565b90919283156000146116e05760005b6001600160801b031661164e856114b7565b50546001600160801b031690818510156116d857808411156116d0576116936116ad93926116a7928088116000146116ca575086905b808710156116c55750856114e8565b61169c876114b7565b505460801c906115d1565b906115e4565b925b600160ff1b81146114f55760001901919061161d565b6114e8565b90611684565b505092611627565b5050926116af565b6116f16116ec856115bf565b6114b7565b50546001600160801b031661163c565b5050600090565b50600090565b80156117085760055490811981116118185761172a90826115e4565b600091600091600954915b828410611744575b5050505090565b90919293600085156000146117dd575060005b6001600160801b0316611769866114b7565b50546001600160801b031690818410156117d257808511156117ca57916116a76117b06117b9936001958088116000146117c4575086905b808910156116c55750876114e8565b61169c896114b7565b945b01929190611735565b906117a1565b50509361173d565b5050936001906117bb565b60001986019086821161180457506117f4906114b7565b50546001600160801b0316611757565b634e487b7160e01b81526011600452602490fd5b60405162461bcd60e51b815260206004820152601660248201527543757276653a20737570706c79206f766572666c6f7760501b6044820152606490fd5b1561185d57565b60405162461bcd60e51b815260206004820152600f60248201526e10dd5c9d994e881b9bdd081a5b9a5d608a1b6044820152606490fd5b1561189b57565b60405162461bcd60e51b815260206004820152600d60248201526c10dd5c9d994e881b1bd8dad959609a1b6044820152606490fd5b156118d757565b60405162461bcd60e51b815260206004820152600f60248201526e043757276653a20616d6f756e74203608c1b6044820152606490fd5b1561191557565b60405162461bcd60e51b815260206004820152600f60248201526e43757276653a20736c69707061676560881b6044820152606490fd5b90601f801991011681019081106001600160401b0382111761196d57604052565b634e487b7160e01b600052604160045260246000fd5b9081526001600160a01b039091166020820152604081019190915260600190565b91908110156114d25760061b0190565b356001600160801b03811681036114865790565b6001600160a01b039091168152602081019190915260400190565b3360009081527f30c94462b074158584a923c0e0ecbc20306d576892c538eb1fbaab09d72efe8a602052604090205460ff1615611a1c57565b63e2517d3f60e01b600052336004527f03b4459c543e7fe245e8e148c6cab46a28e66bba7ee09988335c0dc88457fac260245260446000fd5b3360009081527f3c1b1854ab1360abbb06c8d4c6b2672d4b8cedc5eff522ab19e51d5cb8fdbd46602052604090205460ff1615611a8e57565b63e2517d3f60e01b600052336004527fbf233dd2aafeb4d50879c4aa5c81e96d92f6e6945c906a58f9f2d1c1631b4b2660245260446000fd5b60008181526020818152604080832033845290915290205460ff1615611aea5750565b63e2517d3f60e01b6000523360045260245260446000fd5b6000818152602081815260408083206001600160a01b038616845290915290205460ff16611701576000818152602081815260408083206001600160a01b0395909516808452949091528120805460ff19166001179055339291907f2f8788117e7eff1d82e926ec794901d17c78024a50270940304540a733656f0d9080a4600190565b6000818152602081815260408083206001600160a01b038616845290915290205460ff1615611701576000818152602081815260408083206001600160a01b0395909516808452949091528120805460ff19169055339291907ff6391f5c32d9c69d2a47ea670b442974b53935d1edc7fd64eb21e047a839171b9080a4600190565b611c3d611c429392611c2f60405194859263a9059cbb60e01b6020850152602484016119c8565b03601f19810184528361194c565b611d06565b565b600260015414611c55576002600155565b633ee5aeb560e01b60005260046000fd5b60ff60025416611c7257565b63d93c066560e01b60005260046000fd5b6005546009548015611cfe5760001981019081116114f5575b60009160005b600954811015611cf657611cb5816114b7565b50546001600160801b0316821115611ccf57600101611ca2565b60075550905060015b1580611ceb575b611ce65750565b600755565b506009541515611cdf565b505090611cd8565b506000611c9c565b906000602091828151910182855af115611d61576000513d611d5857506001600160a01b0381163b155b611d375750565b635274afe760e01b60009081526001600160a01b0391909116600452602490fd5b60011415611d30565b6040513d6000823e3d90fd2f8788117e7eff1d82e926ec794901d17c78024a50270940304540a733656f0d3c1b1854ab1360abbb06c8d4c6b2672d4b8cedc5eff522ab19e51d5cb8fdbd46ad3228b676f7d3cd4284a5443f17f1962b36e491b30a40b2405849e597ba5fb5","linkReferences":{}},"methodIdentifiers":{"DEFAULT_ADMIN_ROLE()":"a217fddf","EMERGENCY_ROLE()":"20df4359","RAFFLE_MANAGER_ROLE()":"6c43084f","bondSteps(uint256)":"8a497c4c","buyTokens(uint256,uint256)":"7975ce28","calculateBuyPrice(uint256)":"58b9a996","calculateSellPrice(uint256)":"2e5e2b3b","curveConfig()":"8357128a","extractSof(address,uint256)":"3c420b89","getBondSteps()":"d8946f7a","getCurrentStep()":"1d3824ea","getRoleAdmin(bytes32)":"248a9ca3","getSofReserves()":"85a3a74c","grantRole(bytes32,address)":"2f2ff15d","hasRole(bytes32,address)":"91d14854","initializeCurve(address,(uint128,uint128)[],uint16,uint16)":"a95a0b05","lockTrading()":"86afa110","pause()":"8456cb59","paused()":"5c975abb","raffle()":"33c1420a","raffleSeasonId()":"3c4e0927","raffleToken()":"64b4fc8e","renounceRole(bytes32,address)":"36568abe","revokeRole(bytes32,address)":"d547741f","sellTokens(uint256,uint256)":"ed9772b6","setRaffleInfo(address,uint256)":"2ba3a504","sofToken()":"06f6fc13","supportsInterface(bytes4)":"01ffc9a7","unpause()":"3f4ba83a"},"id":38}